:100000000C9434000C9451000C9451000C94510049
:100010000C9451000C9451000C9451000C9451001C
:100020000C9451000C9451000C9451000C94A106B6
:100030000C9451000C9451000C94AB020C945100A0
:100040000C9451000C9451000C943A0F0C946B0FCB
:100050000C9451000C9451000C94DA030C94510050
:100060000C9451000C94510011241FBECFEFD8E026
:10007000DEBFCDBF11E0A0E0B1E0E8E4F8E202C0ED
:1000800005900D92AA3DB107D9F723E0AAEDB1E0A2
:1000900001C01D92A439B207E1F70E948E050C94AD
:1000A0000E140C940000EF92FF920F931F93CF93C6
:1000B000DF93CDB7DEB728970FB6F894DEBF0FBE3B
:1000C000CDBF0DB71EB700000E940803892BE1F7D2
:1000D00080E490E09A83898382E190E09C838B8323
:1000E0008B819C812DB73EB779019C01215031094C
:1000F0003E832D832DB73EB7281B390B0FB6F894DE
:100100003EBF0FBE2DBF8DB79EB7019698878F83D8
:100110004B812F81388589819A81B9010E9485039D
:100120002B813C818F819885A901BC0183E892E0F5
:100130000E94FC130E94CC00892BB1F40E94500154
:100140004B812F81388589819A81B9010E9485036D
:100150002B813C818F819885A901BC0183E892E0C5
:100160000E94FC13109282020FB6F894FEBE0FBEDE
:10017000EDBE00000FB6F8941EBF0FBE0DBF28964F
:100180000FB6F894DEBF0FBECDBFDF91CF911F91A8
:100190000F91FF90EF900895CF93DF93CDB7DEB727
:1001A00083E892E08D55914059F462E170E083E874
:1001B00092E00E943A07892B19F081E090E002C09A
:1001C00080E090E0DF91CF910895CF93DF93CDB79A
:1001D000DEB781E0809382020000DF91CF91089525
:1001E000EF92FF920F931F93CF93DF93CDB7DEB7BC
:1001F00028970FB6F894DEBF0FBECDBF0DB71EB760
:100200000E940803892BC9F5809182028823A9F1F5
:100210008DB79EB77C0162E170E083E892E00E94B6
:10022000100780E490E09A83898382E190E09C83C8
:100230008B838B819C819C01215031093E832D83CE
:100240002DB73EB7281B390B0FB6F8943EBF0FBE33
:100250002DBF8DB79EB7019698878F834B812F81D5
:10026000388589819A81B9010E9417031092820210
:100270000FB6F894FEBE0FBEEDBE00000FB6F894A8
:100280001EBF0FBE0DBF28960FB6F894DEBF0FBE7F
:10029000CDBFDF91CF911F910F91FF90EF90089507
:1002A000EF92FF920F931F93CF93DF93CDB7DEB7FB
:1002B00028970FB6F894DEBF0FBECDBF0DB71EB79F
:1002C0008DB79EB77C0162E170E083E892E00E9406
:1002D000100780E490E09A83898382E190E09C8318
:1002E0008B838B819C819C01215031093E832D831E
:1002F0002DB73EB7281B390B0FB6F8943EBF0FBE83
:100300002DBF8DB79EB7019698878F832B813C8137
:100310008F819885A90160E071E00E94FC134B81F8
:100320002F81388589819A81B9010E9417030FB600
:10033000F894FEBE0FBEEDBE00000FB6F8941EBFCF
:100340000FBE0DBF28960FB6F894DEBF0FBECDBF0F
:10035000DF91CF911F910F91FF90EF900895CF9370
:10036000DF9300D0CDB7DEB78091E201882389F515
:100370008AEF90E09A83898387E490E02981215075
:10038000FC01208384E490E024E430E0F901208142
:100390002260FC01208385E490E025E430E0F9014F
:1003A00020812360FC0120838FE590E02FE530E081
:1003B000F90120812068FC0120838EE690E02EE682
:1003C00030E0F90120812260FC01208381E08093EC
:1003D000E20100000F900F90DF91CF910895CF932D
:1003E000DF9300D000D000D0CDB7DEB79E838D83E1
:1003F0008FE590E0FC018081082E000C990B80783D
:1004000099279A8389838FE590E02FE530E0F90101
:1004100020812F77FC0120838D819E81880F991F79
:1004200086529E4FFC01808191819C838B838981C0
:100430009A81892B49F08FE590E02FE530E0F901B2
:1004400020812068FC0120838B819C8126960FB639
:10045000F894DEBF0FBECDBFDF91CF910895CF934B
:10046000DF9300D000D000D0CDB7DEB79C838B8364
:100470007E836D838091E201882311F40E94AF0195
:100480008FE590E0FC018081082E000C990B8078AC
:1004900099279A8389838FE590E02FE530E0F90171
:1004A00020812F77FC0120838B819C81880F991FED
:1004B00082529E4F2D813E81FC01318320838B81AE
:1004C0009C81880F991F86529E4FFC0111821082D9
:1004D00089819A81892B49F08FE590E02FE530E002
:1004E000F90120812068FC012083000026960FB6C8
:1004F000F894DEBF0FBECDBFDF91CF910895CF93AB
:10050000DF9300D000D0CDB7DEB79C838B831A82F7
:1005100019828B819C81880F991F86529E4FFC0106
:10052000208131818B819C81880F991F82529E4F3F
:10053000FC01808191812817390721F481E090E046
:100540009A83898389819A810F900F900F900F90E1
:10055000DF91CF9108951F920F9200905F000F924C
:1005600011242F933F938F939F93EF93FF93CF93F8
:10057000DF9300D0CDB7DEB71A8219822FC08981F0
:100580009A81880F991F86529E4FFC0120813181EC
:1005900089819A81880F991F82529E4FFC01808128
:1005A000918128173907A8F489819A81880F991FAA
:1005B00086529E4FFC01808191819C012F5F3F4FAD
:1005C00089819A81880F991F86529E4FFC01318341
:1005D000208389819A8101969A83898389819A816E
:1005E000029768F200000F900F90DF91CF91FF917A
:1005F000EF919F918F913F912F910F9000925F000B
:100600000F901F901895FA9AF99A0895F89A0895FC
:10061000CF93DF93CDB7DEB79091E30181E09130C6
:1006200009F080E0882F90E0DF91CF910895CF937B
:10063000DF93CDB7DEB727970FB6F894DEBF0FBEB6
:10064000CDBF9C838B837E836D834F838B819C8105
:10065000909396028093950281E08093E30110923B
:10066000D8021A82198213C089819A812D813E8114
:10067000820F931FFC01208189819A8188569D4FAA
:10068000FC01208389819A8101969A8389838F81D5
:10069000282F30E089819A81821793072CF38F816C
:1006A000809397028FE390E02FE330E0F9012081FF
:1006B0002062FC0120838FE390E02FE330E0F9011A
:1006C00020812F7EFC0120838FE590E02FE530E034
:1006D000F90120812068FC0120838FE390E02FE363
:1006E00030E0F90120812860FC0120830000809126
:1006F000E3018823E1F7000027960FB6F894DEBFE8
:100700000FBECDBFDF91CF910895CF93DF93CDB7CB
:10071000DEB729970FB6F894DEBF0FBECDBF9E831C
:100720008D8378876F8349878D819E819A838983A2
:100730001C821B822DC000008FE390E0FC018081B1
:10074000082E000C990B82709927892BA9F781E458
:1007500090E029813A81FC01318320830E940603C5
:1007600000C000008B819C812F813885820F931FF0
:1007700020E430E0F9012081FC01208389819A8105
:1007800001969A8389838B819C8101969C838B83BC
:100790008985282F30E08B819C81821793075CF23A
:1007A000000029960FB6F894DEBF0FBECDBFDF91D3
:1007B000CF9108951F920F9200905F000F92112425
:1007C0002F933F934F935F936F937F938F939F9359
:1007D000AF93BF93EF93FF93CF93DF93CDB7DEB784
:1007E0009091D80280919702981708F059C08FE530
:1007F00090E02FE530E0F90120812F77FC01208384
:1008000000008FE390E0FC018081082E000C990B22
:1008100082709927892BA9F70E94030381E490E055
:100820002091950230919602FC013183208380E46F
:1008300090E02091D802222F30E028563D4FF90158
:100840002081FC012083809195029091960201966F
:1008500090939602809395028091D8028F5F809347
:10086000D8028FE590E02FE530E0F9012081206883
:10087000FC0120838FE390E02FE330E0F901208139
:100880002860FC01208300008FE390E0FC01808160
:10089000082E000C990B82709927892BA9F711C09B
:1008A0009091D80280919702981758F08FE390E0CA
:1008B0002FE330E0F9012081277FFC012083109293
:1008C000E3010000DF91CF91FF91EF91BF91AF91D4
:1008D0009F918F917F916F915F914F913F912F9158
:1008E0000F9000925F000F901F901895CF93DF93A9
:1008F000CDB7DEB78FE390E02FE330E0F901208140
:100900002062FC0120830000DF91CF910895CF93F6
:10091000DF93CDB7DEB784E290E024E230E0F90166
:1009200020812260FC01208385E290E025E230E016
:10093000F90120812D7FFC0120830000DF91CF9100
:100940000895CF93DF93CDB7DEB785E290E025E23F
:1009500030E0F90120812260FC0120830000DF915A
:10096000CF910895CF93DF93CDB7DEB785E290E0C6
:1009700025E230E0F90120812D7FFC012083000079
:10098000DF91CF910895CF93DF93CDB7DEB785E2A6
:1009900090E0FC018081882F90E08270992721E00F
:1009A000892B09F420E0822F90E0DF91CF91089508
:1009B000CF93DF9300D0CDB7DEB79A838983898147
:1009C0009A81909379028093780210927B02109220
:1009D0007A0210927D0210927C0260E070E080E06A
:1009E00090E00E942F020E94B20400000F900F902E
:1009F000DF91CF910895CF93DF93CDB7DEB780918C
:100A00007C0290917D02009721F0019709F451C07A
:100A100081C080E090E00E947F02892B09F477C0BA
:100A2000209178023091790280917A0290917B0234
:100A3000820F931FFC018081082E000C990B8D32D0
:100A4000910531F08E32910591F08097F9F027C031
:100A50000E94A1046EEE72E080E090E00E942F02FE
:100A600081E090E090937D0280937C0221C00E94FF
:100A7000A1046AEF70E080E090E00E942F0281E024
:100A800090E090937D0280937C0212C00E94B20499
:100A900068EE73E080E090E00E942F0209C00E949F
:100AA000B20460E070E080E090E00E942F0200005D
:100AB0002EC080E090E00E947F02892B51F10E94BD
:100AC000B20464E670E080E090E00E942F02809122
:100AD0007A0290917B02019690937B0280937A0236
:100AE00080917802909179020E9405149C01809176
:100AF0007A0290917B028217930720F010927B027A
:100B000010927A0210927D0210927C0202C00000C4
:100B100001C000000000DF91CF910895CF93DF93D3
:100B200000D0CDB7DEB70E94930D0E9453000E9403
:100B300087040E946E080E94340A0E945D070E948A
:100B4000AF0181E691E00E94D80483E691E00E9423
:100B5000630A87E791E00E94990D8DED92E00E9473
:100B6000990D8CEA91E00E94990D89EE92E00E9425
:100B7000990D8CEA91E00E94990D89ED92E00E9416
:100B8000990D8CEA91E00E94990D81E080938F028B
:100B90000E94E5000E94BA098AEA0E9469098BEB6B
:100BA0000E9469098CEC0E9469091A8219820E94CC
:100BB000FB040E9433090E94F0000E940803892B65
:100BC000B1F789819A81892B91F760E071E080E02B
:100BD00090E00E945D0E81E090E09A838983E7CFE8
:100BE000CF93DF9300D0CDB7DEB789E09DE39A8342
:100BF000898381E890E021E830E0F90120812860D4
:100C0000FC01208381E890E021E830E0F9012081B7
:100C10002560FC01208388E890E029813A812150F9
:100C20003109FC01318320838FE690E02FE630E02C
:100C3000F90120812260FC0120838FE590E02FE5FF
:100C400030E0F90120812068FC01208300000F9032
:100C50000F90DF91CF910895CF93DF9300D000D014
:100C600000D0CDB7DEB78FE590E0FC018081882F02
:100C700090E0807899279A8389838FE590E02FE52B
:100C800030E0F90120812F77FC0120838091E4017D
:100C90009091E501A091E601B091E7018B839C83DF
:100CA000AD83BE8389819A81892B49F08FE590E0DD
:100CB0002FE530E0F90120812068FC0120838B8141
:100CC0009C81AD81BE81BC01CD0126960FB6F89402
:100CD000DEBF0FBECDBFDF91CF910895CF93DF93DD
:100CE00000D0CDB7DEB78FE590E0FC018081882F82
:100CF00090E0807899279A8389838FE590E02FE5AB
:100D000030E0F90120812F77FC0120831092E4016B
:100D10001092E5011092E6011092E70189819A8113
:100D2000892B49F08FE590E02FE530E0F901208133
:100D30002068FC01208300000F900F90DF91CF917D
:100D400008951F920F9200905F000F9211248F93CD
:100D50009F93AF93BF93CF93DF93CDB7DEB78091CF
:100D6000E4019091E501A091E601B091E7010196BF
:100D7000A11DB11D8093E4019093E501A093E601CC
:100D8000B093E7010000DF91CF91BF91AF919F91A8
:100D90008F910F9000925F000F901F901895CF9346
:100DA000DF93CDB7DEB727970FB6F894DEBF0FBE3F
:100DB000CDBF9D838C837F836E831B821A821EC06E
:100DC0008A819B812C813D81820F931FFC01808150
:100DD0009981890F89838FE590E0FC018081082E3D
:100DE000000C990B81709927892B19F089818F5FED
:100DF00089838A819B8101969B838A832A813B8197
:100E00008E819F8128173907D8F28981809527968E
:100E10000FB6F894DEBF0FBECDBFDF91CF9108951E
:100E2000CF93DF9300D000D000D0CDB7DEB79C8346
:100E30008B837E836D832D813E818B819C81B90163
:100E40000E94CF068983898180958A838D819E81C6
:100E500001972B813C81820F931F2A81FC01208303
:100E6000000026960FB6F894DEBF0FBECDBFDF910F
:100E7000CF910895CF93DF9300D000D01F92CDB7CC
:100E8000DEB79B838A837D836C832C813D818A813D
:100E90009B81B9010E94CF0689838981882319F437
:100EA00081E090E002C080E090E00F900F900F9002
:100EB0000F900F90DF91CF910895EF92FF920F93D3
:100EC0001F93CF93DF93CDB7DEB728970FB6F89473
:100ED000DEBF0FBECDBF0DB71EB700000E940803D6
:100EE000892BE1F71A82198287E390E09C838B8338
:100EF0008B819C812DB73EB779019C01215031092E
:100F00003E832D832DB73EB7281B390B0FB6F894BF
:100F10003EBF0FBE2DBF8DB79EB7019698878F83BA
:100F20004B812F81388589819A81B9010E9485037F
:100F30002B813C818F819885A901BC0189ED92E0CC
:100F40000E94FC130E94D207892BA1F40E94EB0798
:100F50004B812F81388589819A81B9010E9485034F
:100F60002B813C818F819885A901BC0189ED92E09C
:100F70000E94FC130FB6F894FEBE0FBEEDBE00003B
:100F80000FB6F8941EBF0FBE0DBF28960FB6F8948B
:100F9000DEBF0FBECDBFDF91CF911F910F91FF90AC
:100FA000EF900895CF93DF93CDB7DEB789ED92E050
:100FB0008F5A914059F467E370E089ED92E00E9406
:100FC0003A07892B19F081E090E002C080E090E0C0
:100FD000DF91CF910895EF92FF920F931F93CF93DC
:100FE000DF93CDB7DEB728970FB6F894DEBF0FBEFC
:100FF000CDBF0DB71EB78DB79EB77C0167E370E01C
:1010000089ED92E00E9410071A82198287E390E02E
:101010009C838B838B819C819C01215031093E8371
:101020002D832DB73EB7281B390B0FB6F8943EBF62
:101030000FBE2DBF8DB79EB7019698878F832B81EA
:101040003C818F819885A90162E171E00E94FC13C7
:101050004B812F81388589819A81B9010E941703BC
:101060000FB6F894FEBE0FBEEDBE00000FB6F894AA
:101070001EBF0FBE0DBF28960FB6F894DEBF0FBE81
:10108000CDBFDF91CF911F910F91FF90EF90089509
:101090008031910504F527E0289FA001299F500D7C
:1010A0001124FA01E551FE4F80818132A0F480E0E5
:1010B00090E020E0FA01E80FF91FE551FE4F308182
:1010C000230F019687309105A9F781E090E0222354
:1010D00021F080E0089580E090E008956F927F9283
:1010E0008F929F92AF92BF92CF92DF92EF92FF9238
:1010F0000F931F93CF93DF930E940803892BE1F78F
:101100000BE512E0C0E8D0E0BE0165597E4F47E034
:10111000CE010E948503F80111928F012796C03FEE
:10112000D10591F74BEEE42E41E0F42E8701C0E0AB
:10113000D0E0D12CB12C77247A94CE010E944808BB
:10114000892B41F0F8018081871520F4BC2E782E80
:10115000DD24D3942196095F1F4FC031D10569F773
:10116000DD2009F46AC0B092EA017092E901CB2D4A
:10117000D0E08E010F5F1F4F872C2FE0A22E37E0AB
:10118000932E6801FFE0CF22DD24C6010E944808AB
:10119000892B61F4B092E8018E010150110960972A
:1011A00080E1A82EB12C97E0692E3AC09C9CF001FA
:1011B0009D9CF00D1124E551FE4F4081242F30E01D
:1011C000882D90E001968F7199272817390711F71C
:1011D000C092EA014093E901AA940F5F1F4FAA2031
:1011E000C9F2842ECECFF701208130E0872D90E028
:1011F0004F968F7199272817390731F5C092E8016A
:10120000689CF001699CF00D1124E551FE4F70803F
:1012100001501109F7E0EF0EF11C0C171D07A1F0AA
:10122000C801B5010E948D136C014C019924C401C1
:101230000E944808892BB9F607C08FE08093EA0125
:101240001092E9011092E801DF91CF911F910F9167
:10125000FF90EF90DF90CF90BF90AF909F908F90D6
:101260007F906F900895EF92FF921F93CF93DF933B
:101270000E940803892B39F5EBE5F2E0C0E0D0E0ED
:1012800081918823E1F017E01C9FC0011D9F900D04
:1012900011249C0125513E4F790167E070E0C9019E
:1012A0000E941007C19FC001112447E0B701805878
:1012B0009F4F0E941703C55ADD4F188204C0219624
:1012C000C031D105E9F6DF91CF911F91FF90EF90EA
:1012D0000895EF92FF920F931F93CF93DF93E82E21
:1012E000C091EA01D0E02196CF70DD278091E8011E
:1012F00090E00E944808F82E8091E9018F5F8132CA
:1013000018F48093E90102C01092E90187E08C9FF4
:1013100080018D9F100D112405511E4F8091E90110
:10132000F80180830E94360AF80161837283838307
:101330009483E582C093EA0167E070E0C8010E94EF
:101340001007C55ADD4F81E088838091EA019091B2
:10135000E801891308C0FF2031F090E001968F70FA
:1013600099278093E801DF91CF911F910F91FF9012
:10137000EF900895EBEEF1E0ABE5B2E08FEF4FEFC9
:101380005FEFBA0191E08083858341835283638359
:1013900074839D93379622E0EB35F207A1F78FE037
:1013A0008093EA011092E8011092E90108950F93E9
:1013B0001F93CF93DF930091E801C02F10E0D0E09E
:1013C000CE010E944808892B29F02196CF701F5F1B
:1013D0000C13F5CF812FDF91CF911F910F910895BD
:1013E000AF92BF92CF92DF92EF92FF920F931F9333
:1013F000CF93DF936B017C018A0159010E94D709C9
:1014000090E0A0E0B0E0C816D906EA06FB06F8F4C2
:101410008091E80190E0C80ED91E8FE0C822DD243B
:1014200087E08C9DF0018D9DF00D1124E551FE4F5C
:1014300081819281A381B481E80188839983AA8301
:10144000BB838581F501808381E090E002C080E06C
:1014500090E0DF91CF911F910F91FF90EF90DF907F
:10146000CF90BF90AF9008950C94F0050F931F9309
:101470000E942C0600911003109111032091120379
:1014800030911303600F711F821F931F1F910F91E3
:1014900008959C0160E971E00E947913892B79F02D
:1014A000C90183709927892B61F4C90164E670E052
:1014B0000E9479139C0181E0232B21F402C081E07A
:1014C000089580E008952F923F924F925F926F921D
:1014D0007F928F929F92AF92BF92CF92DF92EF92C4
:1014E000FF920F931F93CF93DF93CDB7DEB767972C
:1014F0000FB6F894DEBF0FBECDBF2CE0E3EBF1E0FA
:10150000AE014F5F5F4F1A01DA0101900D922A95EB
:10151000E1F7DC012C91220F2056322F330F330FCD
:10152000230F11963C9111973153230F2D8713965A
:101530002C911397022E000C330B205331096AE0D3
:10154000629FA001639F500D11241496CC900C2C27
:10155000000CDD08B0E3CB1AD108C40ED51E8601FD
:1015600001501109FC012681022E000C330B20537F
:101570003109E8EEF3E02E9FA0012F9F500D3E9F12
:10158000500D1124DC0117962C911797022E000C98
:10159000330B2053310974E6729F7001739FF00C76
:1015A0001124E40EF51E18964C911897042E000C89
:1015B000550B40535109649F9001659F300D1124D4
:1015C000E20EF31E19962C911997F701E20FF11D07
:1015D00027FDFA95AF0158507A011B962C911B9765
:1015E000220F2056322F330F330F230F1C963C91BE
:1015F0001C973053230F298B1E962C911E97220F78
:101600002056322F330F330F230F1F963C911F9715
:101610003053230F2A8B51962C915197220F20562D
:10162000322F330F330F230F52968C918053280F94
:101630002B8BCA010E94490A882321F05D85523014
:1016400008F08601C70160E971E00E947913FC018E
:10165000DB0120E839E540E650EF0E94F1132B0151
:101660003C01CF0164E670E00E947913FC01DB01CC
:1016700020E032EC47E15CEB0E94F1134B015C018E
:10168000DF01B695A795B695A79520E83FE146E816
:1016900057E00E94F1136B017C01DF01A370BB27AF
:1016A00020E833E341EE51E00E94F1136C8B7D8B17
:1016B0008E8B9F8BF1018E2F82199D85891720F4C7
:1016C0008191080F111DF7CFA9892A2F30E0A0E1E1
:1016D000BEE00E94E2136D877E878F87988BBA8960
:1016E0002B2F30E0ACE3B0E00E94E2132D853E8565
:1016F0004F855889260F371F481F591FDA01C90126
:101700003B89830F911DA11DB11D480E591E6A1EF4
:101710007B1E840C951CA61CB71CC80CD91CEA1C8B
:10172000FB1C8C899D89AE89BF89C80ED91EEA1E13
:10173000FB1ED80120E831E541E050E00E94F113A2
:10174000DC01CB018C0D9D1DAE1DBF1D80931003D0
:1017500090931103A0931203B093130367960FB6EF
:10176000F894DEBF0FBECDBFDF91CF911F910F91D7
:10177000FF90EF90DF90CF90BF90AF909F908F90B1
:101780007F906F905F904F903F902F900C946E06DB
:10179000EF92FF920F931F93CF93DF93CDB7DEB7F6
:1017A00068970FB6F894DEBF0FBECDBF7B012CE06B
:1017B000E3EBF1E0DE011D9601900D922A95E1F731
:1017C0008E010F5F1F4F2CE0F80111922A95E9F767
:1017D0000E94490A8A83DE011D9680E0F70140815C
:1017E00051819D91F80121918F0130E0290F311D28
:1017F0004217530740F0421B530BF70151834083BC
:101800008F5F8C3059F768960FB6F894DEBF0FBE25
:10181000CDBFDF91CF911F910F91FF90EF90089571
:101820004F925F926F927F928F929F92AF92BF92F0
:10183000CF92DF92EF92FF92CF93DF9300D0CDB79C
:10184000DEB72B013C0181E090E0A0E0B0E020E8B1
:10185000421629E5520620E6620620EF720618F4C9
:1018600080E090E0DC0120E931E0829F5001839F1D
:10187000B00C929FB00C112480E3A81A88EFB80A2C
:10188000C12CD12C7601C39420E8421629E55206DA
:1018900020E6620620EF720618F4C12CD12C7601E6
:1018A000A701960160E879E580E690EF0E94691350
:1018B00073016201C61AD70AE80AF90A81E090E0CA
:1018C000A0E0B0E0C11422ECD20627E1E2062CEB46
:1018D000F20618F480E090E0DC0144E6489F9001B5
:1018E000499F300D1124A20EB31E21E030E040E0EC
:1018F00050E0C11482ECD80687E1E8068CEBF806CC
:1019000018F420E030E0A90160E072EC87E19CEB84
:101910000E946913A7019601261B370B480B590B30
:10192000CA01B90120E83FE146E857E00E94A1134F
:10193000220F331F220F331FA20EB31E20E833E302
:1019400041EE51E00E94A1137501E20EF31E20E862
:1019500031E541E050E00E94A1134B015C013A8364
:101960002983BE016F5F7F4FC7010E94C80BD82E2D
:10197000C501B40120E13EE040E050E00E94A11327
:1019800029013A014B015C016FEB71E089E491E0C0
:101990000E94270D6D2D70E06F5F7F4F42E089E45C
:1019A00091E00E94310D69817A816F5F7F4F42E043
:1019B0008CE491E00E94310D44E0B7018FE491E0A6
:1019C0000E94310D42E0B20184E591E00E94310DA8
:1019D000C501B4012CE330E040E050E00E94A113C7
:1019E00049015A016B017C0142E0B40187E591E0B5
:1019F0000E94310D42E0B6018AE591E00E94310D6E
:101A000089E491E00F900F90DF91CF91FF90EF90DC
:101A1000DF90CF90BF90AF909F908F907F906F900E
:101A20005F904F9008950F931F930E942C06009192
:101A30001003109111032091120330911303600FD2
:101A4000711F821F931F1F910F910C94100CFC01AA
:101A5000DB018D91BD01882311F08193F9CF1082B4
:101A600008959F92AF92BF92CF92DF92EF92FF9232
:101A70000F931F93CF93DF9300D000D01F92CDB769
:101A8000DEB7FC016B019E012F5F3F4F8E010A5FA5
:101A90001F4FEE24E394F12C9AE0992E9E9C500166
:101AA0009F9CB00C1124C601B5010E947913B701A7
:101AB0000E947913D9016D939D01C61AD10867FD63
:101AC000D3947501A017B10749F760E070E084E096
:101AD00090E050E0D8012E918D01211105C06115D3
:101AE000710511F4009741F4841795072CF4205DDB
:101AF000219361E070E004C0841795070CF43196DF
:101B0000019740F70F900F900F900F900F90DF917B
:101B1000CF911F910F91FF90EF90DF90CF90BF90EA
:101B2000AF909F9008950E94270F789408950C9489
:101B3000BF0FCF93DF93EC018991882319F00E94A6
:101B4000BF0FFACFDF91CF910895CF93C82F90E0C8
:101B500024E0959587952A95E1F78A3010F4805D09
:101B600001C0895C0E94BF0F8C2F8F708A3010F0EB
:101B7000895C01C0805DCF910C94BF0FCF93C82FBB
:101B8000892F0E94A50D8C2FCF910C94A50D2F921B
:101B90003F924F925F926F927F928F929F92AF92FD
:101BA000BF92CF92DF92EF92FF920F931F93CF934A
:101BB000DF93CDB7DEB763970FB6F894DEBF0FBEE5
:101BC000CDBF6B017C0197FF0DC0F094E094D094E1
:101BD000C094C11CD11CE11CF11C81E090E09B8BE6
:101BE0008A8B02C01B8A1A8AFE0131965F018E0120
:101BF000055F1F4FF98BE88B66246394712C812C51
:101C0000912CAAE0B0E09301A4010E94F1131B0102
:101C10002C01C701B6019101A2010E94C3139301D7
:101C2000A4010E94C313E889F9892193F98BE88BF9
:101C3000822F220F990BAA0BBB0BC81AD90AEA0AEA
:101C4000FB0A310142010E171F07D9F68A899B89C9
:101C5000892B11F08DE201C080E20E94BF0F20E0CD
:101C600030E0F80182918F01811106C02115310504
:101C700019F4EA15FB0529F4805D0E94BF0F21E0ED
:101C800030E00A151B0569F763960FB6F894DEBFBE
:101C90000FBECDBFDF91CF911F910F91FF90EF90BD
:101CA000DF90CF90BF90AF909F908F907F906F907C
:101CB0005F904F903F902F9008952F923F924F92B8
:101CC0005F926F927F928F929F92AF92BF92CF92CC
:101CD000DF92EF92FF920F931F93CF93DF93CDB7D5
:101CE000DEB764970FB6F894DEBF0FBECDBF8C0190
:101CF0006115710509F492C0812C912C5401CB011E
:101D0000A0E0B0E0898B9A8BAB8BBC8BDE01119687
:101D10001D0189899A89AB89BC8988169906AA060A
:101D2000BB0608F07BC0812F0E94A50D802F807F0D
:101D30000E94A50D80E20E94970D61017801412C5F
:101D4000512C320141E0B601C7010E948503BFEF6B
:101D5000EB1AFB0AEFEF4E1A5E0A6E0A7E0AFFEFDD
:101D60008F1A9F0AAF0ABF0A89899A89AB89BC89F1
:101D700088169906AA06BB0650F068019FE0C922A2
:101D8000DD2400E010E032016C0C7D1C09C0AFEFD7
:101D9000CA1ADA0AC7018F709927892B99F6EDCFF5
:101DA0000C151D0518F00615170528F083ED91E0B8
:101DB0000E94990D0BC0F801EC19FD09E20DF31D0D
:101DC00080810E94A50D80E20E94970D0F5F1F4F3A
:101DD0000031110529F700E010E0C016D10631F0FE
:101DE00080E20E94970D0F5F1F4FF7CF8101C8015E
:101DF000821993098415950558F4F80181918F0192
:101E000090EE980F903608F08EE20E94970DEFCF7B
:101E100087ED91E00E94990D87017BCF64960FB604
:101E2000F894DEBF0FBECDBFDF91CF911F910F9110
:101E3000FF90EF90DF90CF90BF90AF909F908F90EA
:101E40007F906F905F904F903F902F9008951092E9
:101E5000C00087E690E09093C5008093C400E1EC59
:101E6000F0E088E1808386E08093C2008081806A10
:101E7000808308951F920F920FB60F9211242F9313
:101E80008F939F93EF93FF9380916D0220916E0249
:101E900090E0821B910901978F739927892B79F024
:101EA000E0916E02F0E08091C600EC5EFC4F808312
:101EB00080916E028F5F8F7380936E0202C080915B
:101EC000C600FF91EF919F918F912F910F900FBEC0
:101ED0000F901F9018951F920F920FB60F9211241A
:101EE0002F938F939F93EF93FF9380916C02209198
:101EF0006B0290E0821B91098F739927892B79F0EF
:101F0000E0916B02F0E0EC5AFC4F80818093C600B8
:101F100080916B028F5F8F7380936B0205C08091FD
:101F2000C1008F7D8093C100FF91EF919F918F91B0
:101F30002F910F900FBE0F901F90189580916E02F9
:101F400090916D02891B8F73089580916E0220918C
:101F50006D0290E0821B91098F739927892B69F09C
:101F6000E0916D02F0E0EC5EFC4F808190916D029B
:101F70009F5F9F7390936D02089580E008950FB660
:101F800007FE0EC020916B0290916C0230E0291B7D
:101F90003109215031092F733327232B99F30DC0B9
:101FA00020916B0290916C0230E0291B3109215085
:101FB00031092F733327232B61F0E0916C02F0E09D
:101FC000EC5AFC4F808380916C028F5F8F738093FB
:101FD0006C028091C10080628093C10008951F93BC
:101FE000CF93DF93EC0180E011E0180FFE01E80FC2
:101FF000F11D8081882321F00E94BF0F812FF4CF33
:10200000DF91CF911F9108951F93CF93DF93EC0140
:1020100080E011E0180FFE01E80FF11D8491882384
:1020200021F00E94BF0F812FF4CFDF91CF911F913C
:102030000895CF93DF9300D0CDB7DEB780917702BC
:10204000882389F58AEF90E09A83898387E490E07A
:1020500029812150FC01208384E490E024E430E0D5
:10206000F90120812260FC01208385E490E025E4D1
:1020700030E0F90120812360FC0120838FE590E0AE
:102080002FE530E0F90120812068FC0120838EE6F5
:1020900090E02EE630E0F90120812260FC012083EF
:1020A00081E08093770200000F900F90DF91CF9135
:1020B0000895CF93DF9300D000D000D0CDB7DEB726
:1020C0009E838D838FE590E0FC018081082E000CBB
:1020D000990B807899279A8389838FE590E02FE583
:1020E00030E0F90120812F77FC0120838D819E81D2
:1020F000880F991F81599D4FFC01808191819C839C
:102100008B8389819A81892B49F08FE590E02FE5B7
:1021100030E0F90120812068FC0120838B819C81C3
:1021200026960FB6F894DEBF0FBECDBFDF91CF91DC
:102130000895CF93DF9300D000D000D0CDB7DEB7A5
:102140009C838B837E836D8380917702882311F437
:102150000E9419108FE590E0FC018081082E000C90
:10216000990B807899279A8389838FE590E02FE5F2
:1021700030E0F90120812F77FC0120838B819C8145
:10218000880F991F8D589D4F2D813E81FC01318311
:1021900020838B819C81880F991F81599D4FFC0161
:1021A0001182108289819A81892B49F08FE590E014
:1021B0002FE530E0F90120812068FC012083000038
:1021C00026960FB6F894DEBF0FBECDBFDF91CF913C
:1021D0000895CF93DF9300D000D0CDB7DEB79C83B6
:1021E0008B831A8219828B819C81880F991F815958
:1021F0009D4FFC01208131818B819C81880F991F2B
:102200008D589D4FFC018081918141E0281739074D
:1022100009F040E0442321F081E090E09A83898333
:1022200089819A810F900F900F900F90DF91CF913D
:1022300008951F920F9200905F000F9211242F9328
:102240003F934F938F939F93EF93FF93CF93DF939E
:1022500000D0CDB7DEB71A82198222E030E0898142
:102260009A8182179307A0F589819A81880F991F17
:1022700081599D4FFC012081318189819A81880F8C
:10228000991F8D589D4FFC018081918141E0281755
:10229000390708F040E04423A9F089819A81880F2A
:1022A000991F81599D4FFC01808191819C012F5F75
:1022B0003F4F89819A81880F991F81599D4FFC0159
:1022C0003183208389819A8101969A838983C5CF3E
:1022D00000000F900F90DF91CF91FF91EF919F91B0
:1022E0008F914F913F912F910F9000925F000F902F
:1022F0001F901895CF93DF93CDB7DEB784E290E0BF
:1023000024E230E0F90120812260FC01208385E293
:1023100090E025E230E0F90120812D7FFC0120834F
:102320000000DF91CF910895CF93DF93CDB7DEB753
:1023300085E290E025E230E0F90120812260FC0195
:1023400020830000DF91CF910895CF93DF93CDB725
:10235000DEB785E290E025E230E0F90120812D7FB3
:10236000FC0120830000DF91CF910895CF93DF938C
:10237000CDB7DEB785E290E0FC018081882F90E048
:1023800082709927892B19F081E090E002C080E0EB
:1023900090E0DF91CF910895CF93DF9300D0CDB738
:1023A000DEB79A83898389819A8190937902809399
:1023B000780210927B0210927A0210927D021092A3
:1023C0007C0260E070E080E090E00E9499100E9442
:1023D000A51100000F900F90DF91CF910895CF933A
:1023E000DF93CDB7DEB780917C0290917D0200979C
:1023F00021F0019709F455C089C080E090E00E9467
:10240000E91021E0892B09F420E0222309F47BC0A4
:10241000209178023091790280917A0290917B022A
:10242000820F931FFC018081082E000C990B8D32C6
:10243000910531F08E32910591F08097F9F027C027
:102440000E9494116EEE72E080E090E00E9499107C
:1024500081E090E090937D0280937C0221C00E94F5
:1024600094116AEF70E080E090E00E94991081E0A2
:1024700090E090937D0280937C0212C00E94A5118F
:1024800068EE73E080E090E00E94991009C00E941D
:10249000A51160E070E080E090E00E9499100000DB
:1024A00032C080E090E00E94E91021E0892B09F41D
:1024B00020E0222351F10E94A51164E670E080E043
:1024C00090E00E94991080917A0290917B0201968F
:1024D00090937B0280937A028091780290917902A6
:1024E0000E9405149C0180917A0290917B028217D0
:1024F000930720F010927B0210927A0210927D02D4
:1025000010927C0202C0000001C000000000DF91B8
:10251000CF910895CF93DF9300D0CDB7DEB789E098
:102520009DE39A83898381E890E021E830E0F90116
:1025300020812860FC01208381E890E021E830E0E0
:10254000F90120812560FC01208388E890E0298141
:102550003A8121503109FC01318320838FE690E0DC
:102560002FE630E0F90120812260FC0120838FE515
:1025700090E02FE530E0F90120812068FC01208304
:1025800000000F900F90DF91CF910895CF93DF93CC
:1025900000D000D000D0CDB7DEB78FE590E0FC01D1
:1025A0008081882F90E0807899279A8389838FE5AE
:1025B00090E02FE530E0F90120812F77FC012083A6
:1025C00080917E0290917F02A0918002B091810261
:1025D0008B839C83AD83BE8389819A81892B49F04B
:1025E0008FE590E02FE530E0F90120812068FC01C3
:1025F00020838B819C81AD81BE81BC01CD0126965B
:102600000FB6F894DEBF0FBECDBFDF91CF91089516
:10261000CF93DF9300D0CDB7DEB78FE590E0FC011C
:102620008081882F90E0807899279A8389838FE52D
:1026300090E02FE530E0F90120812F77FC01208325
:1026400010927E0210927F021092800210928102FC
:1026500089819A81892B49F08FE590E02FE530E060
:10266000F90120812068FC01208300000F900F9069
:10267000DF91CF9108951F920F9200905F000F920B
:1026800011248F939F93AF93BF93CF93DF93CDB7D5
:10269000DEB780917E0290917F02A0918002B0917E
:1026A00081020196A11DB11D80937E0290937F024D
:1026B000A0938002B09381020000DF91CF91BF917F
:1026C000AF919F918F910F9000925F000F901F909C
:1026D0001895DB018F939F930E94F113BF91AF91E7
:1026E000A29F800D911DA39F900DB29F900D11246C
:1026F0000895AA1BBB1B51E107C0AA1FBB1FA61749
:10270000B70710F0A61BB70B881F991F5A95A9F79A
:1027100080959095BC01CD01089597FB072E16F486
:10272000009407D077FD09D00E94791307FC05D0EB
:102730003EF4909581959F4F0895709561957F4FD8
:102740000895A1E21A2EAA1BBB1BFD010DC0AA1FF2
:10275000BB1FEE1FFF1FA217B307E407F50720F00A
:10276000A21BB30BE40BF50B661F771F881F991F85
:102770001A9469F760957095809590959B01AC01CE
:10278000BD01CF010895052E97FB1EF400940E9411
:10279000DA1357FD07D00E94A11307FC03D04EF4B3
:1027A0000C94DA1350954095309521953F4F4F4F3B
:1027B0005F4F089590958095709561957F4F8F4FED
:1027C0009F4F0895A29FB001B39FC001A39F700DBA
:1027D000811D1124911DB29F700D811D1124911D29
:1027E00008950E94E213A59F900DB49F900DA49FA1
:1027F000800D911D11240895FB01DC0102C00190A0
:102800000D9241505040D8F70895FC0101900020EE
:10281000E9F7809590958E0F9F1F0895F894FFCF4C
:10282000030B443100802500002D00040B443000D0
:10283000802500002D0002060024F400010C6174C4
:082840006D6567613332380059
:1028480041535500FF03FE030000010000C0A8012A
:102858006400534552004D616E69736800000000C2
:1028680000004D616E690000000000000000616218
:1028780063643132333400000000000000007362EA
:1028880073646A62555341000030302F30302F3066
:102898003030302030303A30303A30300041535503
:1028A800002D0030312F30312F3230313920303087
:1028B8003A30303A303000534552203438362050C0
:1028C800726F6A6563742032202D204D616E6973C2
:1028D80068204D79736F72652052616A657368204C
:1028E80047616E6761646861720A0D000A0D0053E2
:1028F8004552001F1C1F1E1F1E1F1F1E1F1E1F309C
:10290800302F30302F303030302030303A30303ABD
:0A291800303000202020000D0A00DE
:00000001FF
