:100000000C9434000C9451000C9451000C94510049
:100010000C9451000C9451000C9451000C9451001C
:100020000C9451000C9451000C9451000C94550602
:100030000C9451000C9451000C94AB020C945100A0
:100040000C9451000C9451000C94EE0E0C941F0F64
:100050000C9451000C9451000C94D5030C94510055
:100060000C9451000C94510011241FBECFEFD8E026
:10007000DEBFCDBF11E0A0E0B1E0E0EBF7E202C0EF
:1000800005900D92A83DB107D9F723E0A8EDB1E0A6
:1000900001C01D92A239B207E1F70E944E050C94EF
:1000A000C2130C940000EF92FF920F931F93CF9313
:1000B000DF93CDB7DEB728970FB6F894DEBF0FBE3B
:1000C000CDBF0DB71EB700000E940303892BE1F7D7
:1000D00080E490E09A83898382E190E09C838B8323
:1000E0008B819C812DB73EB779019C01215031094C
:1000F0003E832D832DB73EB7281B390B0FB6F894DE
:100100003EBF0FBE2DBF8DB79EB7019698878F83D8
:100110004B812F81388589819A81B9010E947B03A7
:100120002B813C818F819885A901BC0185EC92E0EF
:100130000E94B0130E94CC00892BB1F40E945001A0
:100140004B812F81388589819A81B9010E947B0377
:100150002B813C818F819885A901BC0185EC92E0BF
:100160000E94B01310927F020FB6F894FEBE0FBE2D
:10017000EDBE00000FB6F8941EBF0FBE0DBF28964F
:100180000FB6F894DEBF0FBECDBFDF91CF911F91A8
:100190000F91FF90EF900895CF93DF93CDB7DEB727
:1001A00085EC92E08D55914059F462E170E085EC68
:1001B00092E00E94EE06892B19F081E090E002C0E7
:1001C00080E090E0DF91CF910895CF93DF93CDB79A
:1001D000DEB781E080937F020000DF91CF91089528
:1001E000EF92FF920F931F93CF93DF93CDB7DEB7BC
:1001F00028970FB6F894DEBF0FBECDBF0DB71EB760
:100200000E940303892BC9F580917F028823A9F1FD
:100210008DB79EB77C0162E170E085EC92E00E94B0
:10022000C40680E490E09A83898382E190E09C8315
:100230008B838B819C819C01215031093E832D83CE
:100240002DB73EB7281B390B0FB6F8943EBF0FBE33
:100250002DBF8DB79EB7019698878F834B812F81D5
:10026000388589819A81B9010E94120310927F0218
:100270000FB6F894FEBE0FBEEDBE00000FB6F894A8
:100280001EBF0FBE0DBF28960FB6F894DEBF0FBE7F
:10029000CDBFDF91CF911F910F91FF90EF90089507
:1002A000EF92FF920F931F93CF93DF93CDB7DEB7FB
:1002B00028970FB6F894DEBF0FBECDBF0DB71EB79F
:1002C0008DB79EB77C0162E170E085EC92E00E9400
:1002D000C40680E490E09A83898382E190E09C8365
:1002E0008B838B819C819C01215031093E832D831E
:1002F0002DB73EB7281B390B0FB6F8943EBF0FBE83
:100300002DBF8DB79EB7019698878F832B813C8137
:100310008F819885A90160E071E00E94B0134B8144
:100320002F81388589819A81B9010E9412030FB605
:10033000F894FEBE0FBEEDBE00000FB6F8941EBFCF
:100340000FBE0DBF28960FB6F894DEBF0FBECDBF0F
:10035000DF91CF911F910F91FF90EF900895CF9370
:10036000DF9300D0CDB7DEB78091E001882389F517
:100370008AEF90E09A83898387E490E02981215075
:10038000FC01208384E490E024E430E0F901208142
:100390002260FC01208385E490E025E430E0F9014F
:1003A00020812360FC0120838FE590E02FE530E081
:1003B000F90120812068FC0120838EE690E02EE682
:1003C00030E0F90120812260FC01208381E08093EC
:1003D000E00100000F900F90DF91CF910895CF932F
:1003E000DF9300D000D000D0CDB7DEB79E838D83E1
:1003F0008FE590E0FC018081082E000C990B80783D
:1004000099279A8389838FE590E02FE530E0F90101
:1004100020812F77FC0120838D819E81880F991F79
:1004200088529E4FFC01808191819C838B838981BE
:100430009A81892B49F08FE590E02FE530E0F901B2
:1004400020812068FC0120838B819C8126960FB639
:10045000F894DEBF0FBECDBFDF91CF910895CF934B
:10046000DF9300D000D000D0CDB7DEB79C838B8364
:100470007E836D838091E001882311F40E94AF0197
:100480008FE590E0FC018081082E000C990B8078AC
:1004900099279A8389838FE590E02FE530E0F90171
:1004A00020812F77FC0120838B819C81880F991FED
:1004B00084529E4F2D813E81FC01318320838B81AC
:1004C0009C81880F991F88529E4FFC0111821082D7
:1004D00089819A81892B49F08FE590E02FE530E002
:1004E000F90120812068FC012083000026960FB6C8
:1004F000F894DEBF0FBECDBFDF91CF910895CF93AB
:10050000DF9300D000D0CDB7DEB79C838B831A82F7
:1005100019828B819C81880F991F88529E4FFC0104
:10052000208131818B819C81880F991F84529E4F3D
:10053000FC01808191812817390721F481E090E046
:100540009A83898389819A810F900F900F900F90E1
:10055000DF91CF9108951F920F9200905F000F924C
:1005600011242F933F938F939F93EF93FF93CF93F8
:10057000DF9300D0CDB7DEB71A8219822FC08981F0
:100580009A81880F991F88529E4FFC0120813181EA
:1005900089819A81880F991F84529E4FFC01808126
:1005A000918128173907A8F489819A81880F991FAA
:1005B00088529E4FFC01808191819C012F5F3F4FAB
:1005C00089819A81880F991F88529E4FFC0131833F
:1005D000208389819A8101969A83898389819A816E
:1005E000029768F200000F900F90DF91CF91FF917A
:1005F000EF919F918F913F912F910F9000925F000B
:100600000F901F901895CF93DF93CDB7DEB79091E1
:10061000800281E0913009F080E0882F90E0DF9146
:10062000CF910895CF93DF93CDB7DEB727970FB65D
:10063000F894DEBF0FBECDBF9C838B837E836D831A
:100640004F838B819C81909382028093810281E011
:10065000809380021092C4021A82198213C0898189
:100660009A812D813E81820F931FFC012081898117
:100670009A818C579D4FFC01208389819A81019634
:100680009A8389838F81282F30E089819A8182170C
:1006900093072CF38F81809383028FE390E02FE305
:1006A00030E0F90120812062FC01208382E490E0A7
:1006B00022E430E0F90120812F77FC0120838FE5CF
:1006C00090E02FE530E0F90120812068FC012083D3
:1006D0008FE390E02FE330E0F90120812860FC01F6
:1006E0002083000027960FB6F894DEBF0FBECDBF63
:1006F000DF91CF910895CF93DF93CDB7DEB72997E0
:100700000FB6F894DEBF0FBECDBF9E838D83788772
:100710006F8349878D819E819A8389831C821B8286
:1007200032C000008FE390E0FC018081082E000CB5
:10073000990B82709927892BA9F781E490E0298190
:10074000FC0120838FE390E02FE330E0F90120816A
:100750002160FC01208300C000C08B819C812F811F
:100760003885820F931F20E430E0F9012081FC01DD
:10077000208389819A8101969A8389838B819C81C8
:1007800001969C838B838985282F30E08B819C8107
:100790008217930734F2000029960FB6F894DEBF53
:1007A0000FBECDBFDF91CF910895CF93DF93CDB72B
:1007B000DEB79091C40280918302981708F041C07F
:1007C00000008FE390E0FC018081082E000C990B63
:1007D00082709927892BA9F781E490E0209181020A
:1007E00030918202FC01208380E490E02091C402D9
:1007F000222F30E02C573D4FF9012081FC0120834E
:100800008FE390E02FE330E0F90120812460FC01C8
:1008100020838FE390E02FE330E0F9012081226014
:10082000FC01208380918102909182020196909335
:100830008202809381028091C4028F5F8093C40200
:1008400011C09091C40280918302981758F08FE3F1
:1008500090E02FE330E0F9012081277FFC01208325
:10086000109280020000DF91CF910895CF93DF9323
:10087000CDB7DEB78FE390E02FE330E0F9012081C0
:100880002062FC0120830000DF91CF910895CF9377
:10089000DF93CDB7DEB784E290E024E230E0F901E7
:1008A00020812260FC01208385E290E025E230E097
:1008B000F90120812D7FFC0120830000DF91CF9181
:1008C0000895CF93DF93CDB7DEB785E290E025E2C0
:1008D00030E0F90120812260FC0120830000DF91DB
:1008E000CF910895CF93DF93CDB7DEB785E290E047
:1008F00025E230E0F90120812D7FFC0120830000FA
:10090000DF91CF910895CF93DF93CDB7DEB785E226
:1009100090E0FC018081882F90E08270992721E08F
:10092000892B09F420E0822F90E0DF91CF91089588
:10093000CF93DF9300D0CDB7DEB79A8389838981C7
:100940009A819093760280937502109278021092A9
:10095000770210927A021092790260E070E080E0F3
:1009600090E00E942F020E94720400000F900F90EE
:10097000DF91CF910895CF93DF93CDB7DEB780910C
:10098000790290917A02009721F0019709F451C001
:1009900081C080E090E00E947F02892B09F477C03B
:1009A00020917502309176028091770290917802C1
:1009B000820F931FFC018081082E000C990B8D3251
:1009C000910531F08E32910591F08097F9F027C0B2
:1009D0000E9461046EEE72E080E090E00E942F02BF
:1009E00081E090E090937A028093790221C00E9486
:1009F00061046AEF70E080E090E00E942F0281E0E5
:100A000090E090937A028093790212C00E9472045F
:100A100068EE73E080E090E00E942F0209C00E941F
:100A2000720460E070E080E090E00E942F0200001D
:100A30002EC080E090E00E947F02892B51F10E943D
:100A4000720464E670E080E090E00E942F028091E2
:100A500077029091780201969093780280937702C2
:100A600080917502909176020E94B9139C01809149
:100A70007702909178028217930720F01092780203
:100A80001092770210927A021092790202C000004E
:100A900001C000000000DF91CF910895CF93DF9354
:100AA00000D0CDB7DEB70E94470D0E9453000E94D0
:100AB00047040E9422080E94E8090E9411070E9430
:100AC000AF0181E691E00E94980483E691E00E94E4
:100AD000170A87E791E00E944D0D8BED92E00E948E
:100AE0004D0D87EE92E00E944D0D87ED92E00E9441
:100AF0004D0D81E08093D1020E94E5000E946E09B5
:100B00008AEA0E941D098BEB0E941D098CEC0E9451
:100B10001D091A8219820E94BB040E94E7080E94E4
:100B2000F0000E940303892BB1F789819A81892BF8
:100B300091F760E071E080E090E00E94110E81E0AA
:100B400090E09A838983E7CFCF93DF9300D0CDB72E
:100B5000DEB789E09DE39A83898381E890E021E80C
:100B600030E0F90120812860FC01208381E890E0D9
:100B700021E830E0F90120812560FC01208388E82C
:100B800090E029813A8121503109FC013183208391
:100B90008FE690E02FE630E0F90120812260FC0131
:100BA00020838FE590E02FE530E0F9012081206877
:100BB000FC01208300000F900F90DF91CF910895EA
:100BC000CF93DF9300D000D000D0CDB7DEB78FE554
:100BD00090E0FC018081882F90E0807899279A83AB
:100BE00089838FE590E02FE530E0F90120812F77B0
:100BF000FC0120838091E1019091E201A091E30149
:100C0000B091E4018B839C83AD83BE8389819A81FB
:100C1000892B49F08FE590E02FE530E0F901208144
:100C20002068FC0120838B819C81AD81BE81BC0149
:100C3000CD0126960FB6F894DEBF0FBECDBFDF9173
:100C4000CF910895CF93DF9300D0CDB7DEB78FE576
:100C500090E0FC018081882F90E0807899279A832A
:100C600089838FE590E02FE530E0F90120812F772F
:100C7000FC0120831092E1011092E2011092E30145
:100C80001092E40189819A81892B49F08FE590E0E7
:100C90002FE530E0F90120812068FC01208300006D
:100CA0000F900F90DF91CF9108951F920F920090B7
:100CB0005F000F9211248F939F93AF93BF93CF93B5
:100CC000DF93CDB7DEB78091E1019091E201A09171
:100CD000E301B091E4010196A11DB11D8093E101F2
:100CE0009093E201A093E301B093E4010000DF914F
:100CF000CF91BF91AF919F918F910F9000925F0024
:100D00000F901F901895CF93DF93CDB7DEB727973D
:100D10000FB6F894DEBF0FBECDBF9D838C837F835B
:100D20006E831B821A821EC08A819B812C813D8129
:100D3000820F931FFC0180819981890F89838FE540
:100D400090E0FC018081082E000C990B817099279E
:100D5000892B19F089818F5F89838A819B81019614
:100D60009B838A832A813B818E819F812817390743
:100D7000D8F28981809527960FB6F894DEBF0FBE12
:100D8000CDBFDF91CF910895CF93DF9300D000D0F6
:100D900000D0CDB7DEB79C838B837E836D832D819E
:100DA0003E818B819C81B9010E9483068983898160
:100DB00080958A838D819E8101972B813C81820F52
:100DC000931F2A81FC012083000026960FB6F89419
:100DD000DEBF0FBECDBFDF91CF910895CF93DF93DC
:100DE00000D000D01F92CDB7DEB79B838A837D836E
:100DF0006C832C813D818A819B81B9010E9483068D
:100E000089838981882319F481E090E002C080E021
:100E100090E00F900F900F900F900F90DF91CF9177
:100E20000895EF92FF920F931F93CF93DF93CDB767
:100E3000DEB728970FB6F894DEBF0FBECDBF0DB753
:100E40001EB700000E940303892BE1F71A82198262
:100E500087E390E09C838B838B819C812DB73EB789
:100E600079019C01215031093E832D832DB73EB776
:100E7000281B390B0FB6F8943EBF0FBE2DBF8DB7A0
:100E80009EB7019698878F834B812F813885898102
:100E90009A81B9010E947B032B813C818F819885C7
:100EA000A901BC0187ED92E00E94B0130E94860761
:100EB000892BA1F40E949F074B812F81388589815E
:100EC0009A81B9010E947B032B813C818F81988597
:100ED000A901BC0187ED92E00E94B0130FB6F8940F
:100EE000FEBE0FBEEDBE00000FB6F8941EBF0FBED3
:100EF0000DBF28960FB6F894DEBF0FBECDBFDF91B1
:100F0000CF911F910F91FF90EF900895CF93DF93B2
:100F1000CDB7DEB787ED92E08C5A914059F467E384
:100F200070E087ED92E00E94EE06892B19F081E0D7
:100F300090E002C080E090E0DF91CF910895EF92C1
:100F4000FF920F931F93CF93DF93CDB7DEB7289710
:100F50000FB6F894DEBF0FBECDBF0DB71EB78DB76D
:100F60009EB77C0167E370E087ED92E00E94C406C3
:100F70001A82198287E390E09C838B838B819C810A
:100F80009C01215031093E832D832DB73EB7281B8C
:100F9000390B0FB6F8943EBF0FBE2DBF8DB79EB76D
:100FA000019698878F832B813C818F819885A90139
:100FB00062E171E00E94B0134B812F8138858981F5
:100FC0009A81B9010E9412030FB6F894FEBE0FBEBB
:100FD000EDBE00000FB6F8941EBF0FBE0DBF2896E1
:100FE0000FB6F894DEBF0FBECDBFDF91CF911F913A
:100FF0000F91FF90EF9008958031910504F527E05F
:10100000289FA001299F500D1124FA01E851FE4F9D
:1010100080818132A0F480E090E020E0FA01E80FC6
:10102000F91FE851FE4F3081230F0196873091055B
:10103000A9F781E090E0222321F080E0089580E08C
:1010400090E008956F927F928F929F92AF92BF929D
:10105000CF92DF92EF92FF920F931F93CF93DF9384
:101060000E940303892BE1F708E512E0C0E8D0E015
:10107000BE0168597E4F47E0CE010E947B03F80114
:1010800011928F012796C03FD10591F748EEE42ECB
:1010900041E0F42E8701C0E0D0E0D12CB12C7724C0
:1010A0007A94CE010E94FC07892B41F0F8018081DF
:1010B000871520F4BC2E782EDD24D3942196095F69
:1010C0001F4FC031D10569F7DD2009F46AC0B09225
:1010D000E7017092E601CB2DD0E08E010F5F1F4F2C
:1010E000872C2FE0A22E37E0932E6801FFE0CF225D
:1010F000DD24C6010E94FC07892B61F4B092E50152
:101100008E0101501109609780E1A82EB12C97E063
:10111000692E3AC09C9CF0019D9CF00D1124E85171
:10112000FE4F4081242F30E0882D90E001968F7192
:1011300099272817390711F7C092E7014093E60174
:10114000AA940F5F1F4FAA20C9F2842ECECFF701B9
:10115000208130E0872D90E04F968F7199272817D6
:10116000390731F5C092E501689CF001699CF00DEA
:101170001124E851FE4F708001501109F7E0EF0E85
:10118000F11C0C171D07A1F0C801B5010E94411305
:101190006C014C019924C4010E94FC07892BB9F60B
:1011A00007C08FE08093E7011092E6011092E501FD
:1011B000DF91CF911F910F91FF90EF90DF90CF9033
:1011C000BF90AF909F908F907F906F900895EF9217
:1011D000FF921F93CF93DF930E940303892B39F56E
:1011E000E8E5F2E0C0E0D0E081918823E1F017E08B
:1011F0001C9FC0011D9F900D11249C0128513E4F42
:10120000790167E070E0C9010E94C406C19FC00176
:10121000112447E0B70180589F4F0E941203C85A1B
:10122000DD4F188204C02196C031D105E9F6DF9167
:10123000CF911F91FF90EF900895EF92FF920F933F
:101240001F93CF93DF93E82EC091E701D0E0219662
:10125000CF70DD278091E50190E00E94FC07F82E19
:101260008091E6018F5F813218F48093E60102C01D
:101270001092E60187E08C9F80018D9F100D112454
:1012800008511E4F8091E601F80180830E94EA090F
:10129000F8016183728383839483E582C093E701BD
:1012A00067E070E0C8010E94C406C85ADD4F81E0C3
:1012B00088838091E7019091E501891308C0FF20A0
:1012C00031F090E001968F7099278093E501DF91CE
:1012D000CF911F910F91FF90EF900895E8EEF1E00C
:1012E000A8E5B2E08FEF4FEF5FEFBA0191E08083A6
:1012F000858341835283638374839D93379622E071
:10130000E835F207A1F78FE08093E7011092E5013D
:101310001092E60108950F931F93CF93DF930091EE
:10132000E501C02F10E0D0E0CE010E94FC07892B20
:1013300029F02196CF701F5F0C13F5CF812FDF911D
:10134000CF911F910F910895AF92BF92CF92DF92EC
:10135000EF92FF920F931F93CF93DF936B017C016A
:101360008A0159010E948B0990E0A0E0B0E0C81604
:10137000D906EA06FB06F8F48091E50190E0C80E74
:10138000D91E8FE0C822DD2487E08C9DF0018D9D61
:10139000F00D1124E851FE4F81819281A381B48127
:1013A000E80188839983AA83BB838581F5018083C3
:1013B00081E090E002C080E090E0DF91CF911F914A
:1013C0000F91FF90EF90DF90CF90BF90AF90089576
:1013D0000C94A4050F931F930E94E00500910E0347
:1013E00010910F032091100330911103600F711FB2
:1013F000821F931F1F910F9108959C0160E971E076
:101400000E942D13892B79F0C90183709927892BAC
:1014100061F4C90164E670E00E942D139C0181E033
:10142000232B21F402C081E0089580E008952F92DB
:101430003F924F925F926F927F928F929F92AF9264
:10144000BF92CF92DF92EF92FF920F931F93CF93B1
:10145000DF93CDB7DEB767970FB6F894DEBF0FBE48
:10146000CDBF2CE0E0EBF1E0AE014F5F5F4F1A0122
:10147000DA0101900D922A95E1F7DC012C91220FFF
:101480002056322F330F330F230F11963C911197B3
:101490003153230F2D8713962C911397022E000C96
:1014A000330B205331096AE0629FA001639F500D06
:1014B00011241496CC900C2C000CDD08B0E3CB1A50
:1014C000D108C40ED51E860101501109FC012681E8
:1014D000022E000C330B20533109E8EEF3E02E9F6F
:1014E000A0012F9F500D3E9F500D1124DC01179637
:1014F0002C911797022E000C330B2053310974E600
:10150000729F7001739FF00C1124E40EF51E189663
:101510004C911897042E000C550B40535109649FB1
:101520009001659F300D1124E20EF31E19962C9147
:101530001997F701E20FF11D27FDFA95AF015850F9
:101540007A011B962C911B97220F2056322F330FB6
:10155000330F230F1C963C911C973053230F298B7C
:101560001E962C911E97220F2056322F330F330FC9
:10157000230F1F963C911F973053230F2A8B5196B0
:101580002C915197220F2056322F330F330F230FF8
:1015900052968C918053280F2B8BCA010E94FD0913
:1015A000882321F05D85523008F08601C70160E98B
:1015B00071E00E942D13FC01DB0120E839E540E6D3
:1015C00050EF0E94A5132B013C01CF0164E670E0AF
:1015D0000E942D13FC01DB0120E032EC47E15CEBC3
:1015E0000E94A5134B015C01DF01B695A795B69546
:1015F000A79520E83FE146E857E00E94A5136B015C
:101600007C01DF01A370BB2720E833E341EE51E00A
:101610000E94A5136C8B7D8B8E8B9F8BF1018E2F7F
:1016200082199D85891720F48191080F111DF7CF2C
:10163000A9892A2F30E0A0E1BEE00E9496136D87B1
:101640007E878F87988BBA892B2F30E0ACE3B0E090
:101650000E9496132D853E854F855889260F371F8A
:10166000481F591FDA01C9013B89830F911DA11D34
:10167000B11D480E591E6A1E7B1E840C951CA61CAB
:10168000B71CC80CD91CEA1CFB1C8C899D89AE892F
:10169000BF89C80ED91EEA1EFB1ED80120E831E51D
:1016A00041E050E00E94A513DC01CB018C0D9D1D93
:1016B000AE1DBF1D80930E0390930F03A0931003E4
:1016C000B093110367960FB6F894DEBF0FBECDBF7F
:1016D000DF91CF911F910F91FF90EF90DF90CF900E
:1016E000BF90AF909F908F907F906F905F904F9042
:1016F0003F902F900C942206EF92FF920F931F932E
:10170000CF93DF93CDB7DEB768970FB6F894DEBFFF
:101710000FBECDBF7B012CE0E0EBF1E0DE011D96BA
:1017200001900D922A95E1F78E010F5F1F4F2CE07B
:10173000F80111922A95E9F70E94FD098A83DE01DA
:101740001D9680E0F701408151819D91F801219122
:101750008F0130E0290F311D4217530740F0421B23
:10176000530BF701518340838F5F8C3059F7689694
:101770000FB6F894DEBF0FBECDBFDF91CF911F91A2
:101780000F91FF90EF9008954F925F926F927F922A
:101790008F929F92AF92BF92CF92DF92EF92FF9281
:1017A000CF93DF9300D0CDB7DEB72B013C0181E0B2
:1017B00090E0A0E0B0E020E8421629E5520620E6DD
:1017C000620620EF720618F480E090E0DC0120E968
:1017D00031E0829F5001839FB00C929FB00C112486
:1017E00080E3A81A88EFB80AC12CD12C7601C394E3
:1017F00020E8421629E5520620E6620620EF72062E
:1018000018F4C12CD12C7601A701960160E879E586
:1018100080E690EF0E941D1373016201C61AD70A79
:10182000E80AF90A81E090E0A0E0B0E0C11422ECFF
:10183000D20627E1E2062CEBF20618F480E090E0F5
:10184000DC0144E6489F9001499F300D1124A20E0F
:10185000B31E21E030E040E050E0C11482ECD80635
:1018600087E1E8068CEBF80618F420E030E0A901E7
:1018700060E072EC87E19CEB0E941D13A7019601CA
:10188000261B370B480B590BCA01B90120E83FE171
:1018900046E857E00E945513220F331F220F331FD3
:1018A000A20EB31E20E833E341EE51E00E9455132F
:1018B0007501E20EF31E20E831E541E050E00E94A0
:1018C00055134B015C013A832983BE016F5F7F4F43
:1018D000C7010E947C0BD82EC501B40120E13EE077
:1018E00040E050E00E94551329013A014B015C0190
:1018F0006CEB71E089E491E00E94DB0C6D2D70E0EF
:101900006F5F7F4F42E089E491E00E94E50C6981BE
:101910007A816F5F7F4F42E08CE491E00E94E50C9A
:1019200044E0B7018FE491E00E94E50C42E0B2018F
:1019300084E591E00E94E50CC501B4012CE330E0A0
:1019400040E050E00E94551349015A016B017C01AF
:1019500042E0B40187E591E00E94E50C42E0B60167
:101960008AE591E00E94E50C89E491E00F900F90E8
:10197000DF91CF91FF90EF90DF90CF90BF90AF902D
:101980009F908F907F906F905F904F9008950F93EE
:101990001F930E94E00500910E0310910F03209108
:1019A000100330911103600F711F821F931F1F914D
:1019B0000F910C94C40BFC01DB018D91BD018823B8
:1019C00011F08193F9CF108208959F92AF92BF9248
:1019D000CF92DF92EF92FF920F931F93CF93DF93FB
:1019E00000D000D01F92CDB7DEB7FC016B019E0185
:1019F0002F5F3F4F8E010A5F1F4FEE24E394F12CBF
:101A00009AE0992E9E9C50019F9CB00C1124C60117
:101A1000B5010E942D13B7010E942D13D9016D93BA
:101A20009D01C61AD10867FDD3947501A017B107AF
:101A300049F760E070E084E090E050E0D8012E913A
:101A40008D01211105C06115710511F4009741F454
:101A5000841795072CF4205D219361E070E004C0A9
:101A6000841795070CF43196019740F70F900F906B
:101A70000F900F900F90DF91CF911F910F91FF90DA
:101A8000EF90DF90CF90BF90AF909F9008950E940D
:101A9000DB0E789408950C94730FCF93DF93EC01D1
:101AA0008991882319F00E94730FFACFDF91CF91AB
:101AB0000895CF93C82F90E024E0959587952A95B7
:101AC000E1F78A3010F4805D01C0895C0E94730FD9
:101AD0008C2F8F708A3010F0895C01C0805DCF91AF
:101AE0000C94730FCF93C82F892F0E94590D8C2F00
:101AF000CF910C94590D2F923F924F925F926F921B
:101B00007F928F929F92AF92BF92CF92DF92EF928D
:101B1000FF920F931F93CF93DF93CDB7DEB76397F9
:101B20000FB6F894DEBF0FBECDBF6B017C0197FFEF
:101B30000DC0F094E094D094C094C11CD11CE11C61
:101B4000F11C81E090E09B8B8A8B02C01B8A1A8A71
:101B5000FE0131965F018E01055F1F4FF98BE88B07
:101B600066246394712C812C912CAAE0B0E093013F
:101B7000A4010E94A5131B012C01C701B60191010C
:101B8000A2010E9477139301A4010E947713E889B0
:101B9000F9892193F98BE88B822F220F990BAA0BDD
:101BA000BB0BC81AD90AEA0AFB0A310142010E1717
:101BB0001F07D9F68A899B89892B11F08DE201C014
:101BC00080E20E94730F20E030E0F80182918F01E3
:101BD000811106C02115310519F4EA15FB0529F418
:101BE000805D0E94730F21E030E00A151B0569F744
:101BF00063960FB6F894DEBF0FBECDBFDF91CF91D5
:101C00001F910F91FF90EF90DF90CF90BF90AF901A
:101C10009F908F907F906F905F904F903F902F900C
:101C200008952F923F924F925F926F927F928F9280
:101C30009F92AF92BF92CF92DF92EF92FF920F935B
:101C40001F93CF93DF93CDB7DEB764970FB6F894A9
:101C5000DEBF0FBECDBF8C016115710509F492C0C6
:101C6000812C912C5401CB01A0E0B0E0898B9A8BA0
:101C7000AB8BBC8BDE0111961D0189899A89AB89DA
:101C8000BC8988169906AA06BB0608F07BC0812F7E
:101C90000E94590D802F807F0E94590D80E20E9482
:101CA0004B0D61017801412C512C320141E0B6010C
:101CB000C7010E947B03BFEFEB1AFB0AEFEF4E1A3E
:101CC0005E0A6E0A7E0AFFEF8F1A9F0AAF0ABF0AEA
:101CD00089899A89AB89BC8988169906AA06BB06A8
:101CE00050F068019FE0C922DD2400E010E03201DD
:101CF0006C0C7D1C09C0AFEFCA1ADA0AC7018F70DD
:101D00009927892B99F6EDCF0C151D0518F00615AE
:101D1000170528F080ED91E00E944D0D0BC0F801F1
:101D2000EC19FD09E20DF31D80810E94590D80E23E
:101D30000E944B0D0F5F1F4F0031110529F700E086
:101D400010E0C016D10631F080E20E944B0D0F5F0B
:101D50001F4FF7CF8101C80182199309841595059A
:101D600058F4F80181918F0190EE980F903608F0A9
:101D70008EE20E944B0DEFCF84ED91E00E944D0D5D
:101D800087017BCF64960FB6F894DEBF0FBECDBF40
:101D9000DF91CF911F910F91FF90EF90DF90CF9047
:101DA000BF90AF909F908F907F906F905F904F907B
:101DB0003F902F9008951092C00087E690E0909396
:101DC000C5008093C400E1ECF0E088E1808386E008
:101DD0008093C2008081806A808308951F920F9251
:101DE0000FB60F9211242F938F939F93EF93FF932E
:101DF00080916A0220916B0290E0821B9109019709
:101E00008F739927892B79F0E0916B02F0E0809134
:101E1000C600EE5EFC4F808380916B028F5F8F73F4
:101E200080936B0202C08091C600FF91EF919F9159
:101E30008F912F910F900FBE0F901F9018951F92AA
:101E40000F920FB60F9211242F938F939F93EF93BE
:101E5000FF93809169022091680290E0821B9109B2
:101E60008F739927892B79F0E0916802F0E0EE5AA0
:101E7000FC4F80818093C600809168028F5F8F73D2
:101E80008093680205C08091C1008F7D8093C1005E
:101E9000FF91EF919F918F912F910F900FBE0F9017
:101EA0001F90189580916B0290916A02891B8F7325
:101EB000089580916B0220916A0290E0821B910943
:101EC0008F739927892B69F0E0916A02F0E0EE5E4A
:101ED000FC4F808190916A029F5F9F7390936A028A
:101EE000089580E008950FB607FE0EC020916802A5
:101EF0009091690230E0291B3109215031092F737B
:101F00003327232B99F30DC0209168029091690229
:101F100030E0291B3109215031092F733327232B3E
:101F200061F0E0916902F0E0EE5AFC4F808380910D
:101F300069028F5F8F73809369028091C100806214
:101F40008093C10008951F93CF93DF93EC0180E04D
:101F500011E0180FFE01E80FF11D8081882321F0A8
:101F60000E94730F812FF4CFDF91CF911F910895BD
:101F70001F93CF93DF93EC0180E011E0180FFE0177
:101F8000E80FF11D8491882321F00E94730F812FA7
:101F9000F4CFDF91CF911F910895CF93DF9300D0BD
:101FA000CDB7DEB780917402882389F58AEF90E07F
:101FB0009A83898387E490E029812150FC01208362
:101FC00084E490E024E430E0F90120812260FC0107
:101FD000208385E490E025E430E0F901208123604E
:101FE000FC0120838FE590E02FE530E0F9012081AE
:101FF0002068FC0120838EE690E02EE630E0F901B7
:1020000020812260FC01208381E080937402000023
:102010000F900F90DF91CF910895CF93DF9300D071
:1020200000D000D0CDB7DEB79E838D838FE590E0E2
:10203000FC018081082E000C990B807899279A83E7
:1020400089838FE590E02FE530E0F90120812F773B
:10205000FC0120838D819E81880F991F84599D4F9B
:10206000FC01808191819C838B8389819A81892B5A
:1020700049F08FE590E02FE530E0F90120812068FC
:10208000FC0120838B819C8126960FB6F894DEBFDD
:102090000FBECDBFDF91CF910895CF93DF9300D0D6
:1020A00000D000D0CDB7DEB79C838B837E836D8359
:1020B00080917402882311F40E94CD0F8FE590E087
:1020C000FC018081082E000C990B807899279A8357
:1020D00089838FE590E02FE530E0F90120812F77AB
:1020E000FC0120838B819C81880F991F80599D4F13
:1020F0002D813E81FC01318320838B819C81880F5F
:10210000991F84599D4FFC011182108289819A8107
:10211000892B49F08FE590E02FE530E0F90120812F
:102120002068FC012083000026960FB6F894DEBFDD
:102130000FBECDBFDF91CF910895CF93DF9300D035
:1021400000D0CDB7DEB79C838B831A8219828B8136
:102150009C81880F991F84599D4FFC0120813181FA
:102160008B819C81880F991F80599D4FFC01808134
:10217000918141E02817390709F040E0442321F01C
:1021800081E090E09A83898389819A810F900F90F2
:102190000F900F90DF91CF9108951F920F920090B2
:1021A0005F000F9211242F933F934F938F939F9330
:1021B000EF93FF93CF93DF9300D0CDB7DEB71A82B2
:1021C000198222E030E089819A8182179307A0F575
:1021D00089819A81880F991F84599D4FFC01208124
:1021E000318189819A81880F991F80599D4FFC0107
:1021F0008081918141E02817390708F040E04423AD
:10220000A9F089819A81880F991F84599D4FFC01FB
:10221000808191819C012F5F3F4F89819A81880F36
:10222000991F84599D4FFC013183208389819A81B4
:1022300001969A838983C5CF00000F900F90DF919C
:10224000CF91FF91EF919F918F914F913F912F915E
:102250000F9000925F000F901F901895CF93DF931F
:10226000CDB7DEB784E290E024E230E0F9012081CE
:102270002260FC01208385E290E025E230E0F90154
:1022800020812D7FFC0120830000DF91CF910895F4
:10229000CF93DF93CDB7DEB785E290E025E230E063
:1022A000F90120812260FC0120830000DF91CF91A1
:1022B0000895CF93DF93CDB7DEB785E290E025E2B6
:1022C00030E0F90120812D7FFC0120830000DF91A7
:1022D000CF910895CF93DF93CDB7DEB785E290E03D
:1022E000FC018081882F90E082709927892B19F05A
:1022F00081E090E002C080E090E0DF91CF9108950E
:10230000CF93DF9300D0CDB7DEB79A8389838981DD
:102310009A819093760280937502109278021092BF
:10232000770210927A021092790260E070E080E009
:1023300090E00E944D100E94591100000F900F90E4
:10234000DF91CF910895CF93DF93CDB7DEB7809122
:10235000790290917A02009721F0019709F455C013
:1023600089C080E090E00E949D1021E0892B09F453
:1023700020E0222309F47BC020917502309176027F
:102380008091770290917802820F931FFC018081E7
:10239000082E000C990B8D32910531F08E3291058B
:1023A00091F08097F9F027C00E9448116EEE72E01C
:1023B00080E090E00E944D1081E090E090937A02DE
:1023C0008093790221C00E9448116AEF70E080E09A
:1023D00090E00E944D1081E090E090937A0280930B
:1023E000790212C00E94591168EE73E080E090E01B
:1023F0000E944D1009C00E94591160E070E080E019
:1024000090E00E944D10000032C080E090E00E94F9
:102410009D1021E0892B09F420E0222351F10E9434
:10242000591164E670E080E090E00E944D108091C8
:1024300077029091780201969093780280937702C8
:1024400080917502909176020E94B9139C0180914F
:102450007702909178028217930720F01092780209
:102460001092770210927A021092790202C0000054
:1024700001C000000000DF91CF910895CF93DF935A
:1024800000D0CDB7DEB789E09DE39A83898381E8E8
:1024900090E021E830E0F90120812860FC012083F0
:1024A00081E890E021E830E0F90120812560FC011D
:1024B000208388E890E029813A8121503109FC018C
:1024C000318320838FE690E02FE630E0F901208110
:1024D0002260FC0120838FE590E02FE530E0F901D8
:1024E00020812068FC01208300000F900F90DF9175
:1024F000CF910895CF93DF9300D000D000D0CDB717
:10250000DEB78FE590E0FC018081882F90E0807835
:1025100099279A8389838FE590E02FE530E0F901D0
:1025200020812F77FC01208380917B0290917C0297
:10253000A0917D02B0917E028B839C83AD83BE838C
:1025400089819A81892B49F08FE590E02FE530E071
:10255000F90120812068FC0120838B819C81AD8161
:10256000BE81BC01CD0126960FB6F894DEBF0FBE2A
:10257000CDBFDF91CF910895CF93DF9300D0CDB73A
:10258000DEB78FE590E0FC018081882F90E08078B5
:1025900099279A8389838FE590E02FE530E0F90150
:1025A00020812F77FC01208310927B0210927C0205
:1025B00010927D0210927E0289819A81892B49F0C6
:1025C0008FE590E02FE530E0F90120812068FC01E3
:1025D000208300000F900F90DF91CF9108951F92FC
:1025E0000F9200905F000F9211248F939F93AF93EF
:1025F000BF93CF93DF93CDB7DEB780917B029091ED
:102600007C02A0917D02B0917E020196A11DB11DB8
:1026100080937B0290937C02A0937D02B0937E0214
:102620000000DF91CF91BF91AF919F918F910F905B
:1026300000925F000F901F901895DB018F939F937E
:102640000E94A513BF91AF91A29F800D911DA39FE2
:10265000900DB29F900D11240895AA1BBB1B51E150
:1026600007C0AA1FBB1FA617B70710F0A61BB70B02
:10267000881F991F5A95A9F780959095BC01CD01A7
:10268000089597FB072E16F4009407D077FD09D024
:102690000E942D1307FC05D03EF4909581959F4F25
:1026A0000895709561957F4F0895A1E21A2EAA1B97
:1026B000BB1BFD010DC0AA1FBB1FEE1FFF1FA217F2
:1026C000B307E407F50720F0A21BB30BE40BF50BEF
:1026D000661F771F881F991F1A9469F76095709578
:1026E000809590959B01AC01BD01CF010895052E09
:1026F00097FB1EF400940E948E1357FD07D00E9492
:10270000551307FC03D04EF40C948E13509540954E
:10271000309521953F4F4F4F5F4F0895909580958D
:10272000709561957F4F8F4F9F4F0895A29FB00185
:10273000B39FC001A39F700D811D1124911DB29FF5
:10274000700D811D1124911D08950E949613A59F5F
:10275000900DB49F900DA49F800D911D112408959C
:10276000FB01DC0102C001900D9241505040D8F7AE
:102770000895FC0101900020E9F7809590958E0F57
:082780009F1F0895F894FFCF9C
:10278800030B443100802500002D00040B44300069
:10279800802500002D0002060024F400010C61745D
:0827A8006D65676133323800F2
:1027B00041535500FF03FE030000010000C0A801C3
:1027C0006400534552004D616E697368000000005B
:1027D00000004D616E6900000000000000006162B1
:1027E0006364313233340000000000000000736283
:1027F00073646A62555341000030302F30302F30FF
:102800003030302030303A30303A3030004153559B
:10281000002D0030312F30312F323031392030301F
:102820003A30303A30300053455220343836205058
:10283000726F6A6563742032202D204D616E69735A
:1028400068204D79736F72652052616A65736820E4
:1028500047616E6761646861720A0D0053455200FA
:102860001F1C1F1E1F1E1F1F1E1F1E1F30302F303C
:10287000302F303030302030303A30303A30300085
:08288000202020000D0A0000D9
:00000001FF
