:100000000C9434000C9451000C9451000C94510049
:100010000C9451000C9451000C9451000C9451001C
:100020000C9451000C9451000C9451000C94C10696
:100030000C9451000C9451000C94AD020C9451009E
:100040000C9451000C9451000C945A0F0C948B0F8B
:100050000C9451000C9451000C9402040C94510027
:100060000C9451000C94510011241FBECFEFD8E026
:10007000DEBFCDBF11E0A0E0B1E0E8E8F8E202C0E9
:1000800005900D92A83DB107D9F723E0A8EDB1E0A6
:1000900001C01D92A239B207E1F70E94BA050C9483
:1000A0002E140C940000EF92FF920F931F93CF93A6
:1000B000DF93CDB7DEB728970FB6F894DEBF0FBE3B
:1000C000CDBF0DB71EB700000E941703892BE1F7C3
:1000D00080E490E09A83898382E190E09C838B8323
:1000E0008B819C812DB73EB779019C01215031094C
:1000F0003E832D832DB73EB7281B390B0FB6F894DE
:100100003EBF0FBE2DBF8DB79EB7019698878F83D8
:100110004B812F81388589819A81B9010E94A6037C
:100120002B813C818F819885A901BC0181E892E0F7
:100130000E941C140E94CE00892BB1F40E9452012F
:100140004B812F81388589819A81B9010E94A6034C
:100150002B813C818F819885A901BC0181E892E0C7
:100160000E941C14109280020E9405030FB6F8949E
:10017000FEBE0FBEEDBE00000FB6F8941EBF0FBE50
:100180000DBF28960FB6F894DEBF0FBECDBFDF912E
:10019000CF911F910F91FF90EF900895CF93DF9330
:1001A000CDB7DEB781E892E08D55914059F462E118
:1001B00070E081E892E00E945A07892B19F081E0F3
:1001C00090E002C080E090E0DF91CF910895CF935E
:1001D000DF93CDB7DEB781E0809380020000DF912E
:1001E000CF910895EF92FF920F931F93CF93DF93D8
:1001F000CDB7DEB728970FB6F894DEBF0FBECDBFE0
:100200000DB71EB70E941703892BC9F58091800294
:100210008823A9F18DB79EB77C0162E170E081E887
:1002200092E00E94300780E490E09A83898382E123
:1002300090E09C838B838B819C819C0121503109B0
:100240003E832D832DB73EB7281B390B0FB6F8948C
:100250003EBF0FBE2DBF8DB79EB7019698878F8387
:100260004B812F81388589819A81B9010E942F03A2
:10027000109280020FB6F894FEBE0FBEEDBE0000D5
:100280000FB6F8941EBF0FBE0DBF28960FB6F89498
:10029000DEBF0FBECDBFDF91CF911F910F91FF90B9
:1002A000EF900895EF92FF920F931F93CF93DF93F8
:1002B000CDB7DEB728970FB6F894DEBF0FBECDBF1F
:1002C0000DB71EB78DB79EB77C0162E170E081E883
:1002D00092E00E94300780E490E09A83898382E173
:1002E00090E09C838B838B819C819C012150310900
:1002F0003E832D832DB73EB7281B390B0FB6F894DC
:100300003EBF0FBE2DBF8DB79EB7019698878F83D6
:100310002B813C818F819885A90160E071E00E946A
:100320001C144B812F81388589819A81B9010E94E3
:100330002F030FB6F894FEBE0FBEEDBE00000FB641
:10034000F8941EBF0FBE0DBF28960FB6F894DEBFFF
:100350000FBECDBFDF91CF911F910F91FF90EF9016
:100360000895CF93DF9300D0CDB7DEB78091E00141
:10037000882389F58AEF90E09A83898387E490E067
:1003800029812150FC01208384E490E024E430E0C2
:10039000F90120812260FC01208385E490E025E4BE
:1003A00030E0F90120812360FC0120838FE590E09B
:1003B0002FE530E0F90120812068FC0120838EE6E2
:1003C00090E02EE630E0F90120812260FC012083DC
:1003D00081E08093E00100000F900F90DF91CF91BA
:1003E0000895CF93DF9300D000D000D0CDB7DEB713
:1003F0009E838D838FE590E0FC018081082E000CA8
:10040000990B807899279A8389838FE590E02FE56F
:1004100030E0F90120812F77FC0120838D819E81BE
:10042000880F991F88529E4FFC01808191819C8387
:100430008B8389819A81892B49F08FE590E02FE5A4
:1004400030E0F90120812068FC0120838B819C81B0
:1004500026960FB6F894DEBF0FBECDBFDF91CF91C9
:100460000895CF93DF9300D000D000D0CDB7DEB792
:100470009C838B837E836D838091E001882311F4BC
:100480000E94B1018FE590E0FC018081082E000CF4
:10049000990B807899279A8389838FE590E02FE5DF
:1004A00030E0F90120812F77FC0120838B819C8132
:1004B000880F991F84529E4F2D813E81FC0131830C
:1004C00020838B819C81880F991F88529E4FFC014D
:1004D0001182108289819A81892B49F08FE590E001
:1004E0002FE530E0F90120812068FC012083000025
:1004F00026960FB6F894DEBF0FBECDBFDF91CF9129
:100500000895CF93DF9300D000D0CDB7DEB79C83A2
:100510008B831A8219828B819C81880F991F885244
:100520009E4FFC01208131818B819C81880F991F16
:1005300084529E4FFC01808191812817390721F454
:1005400081E090E09A83898389819A810F900F904E
:100550000F900F90DF91CF9108951F920F9200900E
:100560005F000F9211242F933F938F939F93EF93EC
:10057000FF93CF93DF9300D0CDB7DEB71A821982F5
:100580002FC089819A81880F991F88529E4FFC0144
:100590002081318189819A81880F991F84529E4FD1
:1005A000FC018081918128173907A8F489819A81FB
:1005B000880F991F88529E4FFC01808191819C0178
:1005C0002F5F3F4F89819A81880F991F88529E4FD4
:1005D000FC013183208389819A8101969A838983E2
:1005E00089819A81029768F200000F900F90DF9145
:1005F000CF91FF91EF919F918F913F912F910F900C
:1006000000925F000F901F901895CF93DF93CDB7A6
:10061000DEB78091E101882F90E0A0E0B0E0BC015E
:10062000CD010E94E70D0000DF91CF910895CF9397
:10063000DF9300D0CDB7DEB78091E101813011F4B6
:100640001A8219829091E10181E0913009F080E0F5
:10065000882F90E00F900F90DF91CF910895CF9366
:10066000DF93CDB7DEB727970FB6F894DEBF0FBE86
:10067000CDBF9C838B837E836D834F838B819C81D5
:10068000909394028093930281E08093E101109211
:10069000D6021A82198213C089819A812D813E81E6
:1006A000820F931FFC01208189819A818A569D4F78
:1006B000FC01208389819A8101969A8389838F81A5
:1006C000282F30E089819A81821793072CF38F813C
:1006D000809395028FE390E02FE330E0F9012081D1
:1006E0002062FC0120838FE390E02FE330E0F901EA
:1006F00020812F7EFC01208382E490E022E430E020
:10070000F90120812E7FFC0120838FE590E02FE509
:1007100030E0F90120812068FC0120838FE390E024
:100720002FE330E0F90120812860FC0120830000E4
:100730008091E1018823E1F7000027960FB6F89435
:10074000DEBF0FBECDBFDF91CF910895CF93DF9372
:10075000CDB7DEB729970FB6F894DEBF0FBECDBF79
:100760009E838D8378876F8349878D819E819A834D
:1007700089831C821B8234C000008FE390E0FC015F
:100780008081082E000C990B82709927892BA9F77C
:1007900081E690E029813A81FC01318320838FE357
:1007A00090E02FE330E0F90120812160FC012083FB
:1007B00000C000C08B819C812F813885820F931FE0
:1007C00020E430E0F9012081FC01208389819A81B5
:1007D00001969A8389838B819C8101969C838B836C
:1007E0008985282F30E08B819C818217930724F222
:1007F000000029960FB6F894DEBF0FBECDBFDF9183
:10080000CF9108951F920F9200905F000F921124D4
:100810002F933F938F939F93EF93FF93CF93DF9308
:10082000CDB7DEB79091D60280919502981708F067
:1008300069C08FE590E02FE530E0F90120812F7746
:10084000FC01208300008FE390E0FC018081082EF2
:10085000000C990B82709927892BA9F781E690E00B
:100860002091930230919402FC013183208380E433
:1008700090E02091D602222F30E02A563D4FF90118
:100880002081FC0120838FE390E02FE330E0F90129
:1008900020812460FC0120838FE390E02FE330E08F
:1008A000F90120812260FC012083809193029091C4
:1008B0009402019690939402809393028091D602C1
:1008C0008F5F8093D6028FE590E02FE530E0F9014D
:1008D00020812068FC0120838FE390E02FE330E04B
:1008E000F90120812860FC01208300008FE390E063
:1008F000FC018081082E000C990B82709927892BAE
:10090000A9F711C09091D60280919502981758F0DE
:100910008FE390E02FE330E0F9012081277FFC0195
:1009200020831092E1010000DF91CF91FF91EF91C0
:100930009F918F913F912F910F9000925F000F90A8
:100940001F901895CF93DF93CDB7DEB78FE390E07C
:100950002FE330E0F90120812062FC0120830000B8
:10096000DF91CF910895CF93DF93CDB7DEB784E2C7
:1009700090E024E230E0F90120812260FC01208334
:1009800085E290E025E230E0F90120812D7FFC0135
:1009900020830000DF91CF910895CF93DF93CDB7EF
:1009A000DEB785E290E025E230E0F90120812260A7
:1009B000FC0120830000DF91CF910895CF93DF9356
:1009C000CDB7DEB785E290E025E230E0F901208185
:1009D0002D7FFC0120830000DF91CF910895CF93FC
:1009E000DF93CDB7DEB785E290E0FC018081882FF0
:1009F00090E08270992721E0892B09F420E0822F72
:100A000090E0DF91CF910895CF93DF9300D0CDB7E1
:100A1000DEB79A83898389819A8190937702809344
:100A20007602109279021092780210927B02109254
:100A30007A0260E070E080E090E00E9431020E9463
:100A4000DE0400000F900F90DF91CF910895CF93B7
:100A5000DF93CDB7DEB780917A0290917B02009749
:100A600021F0019709F451C081C080E090E00E941C
:100A70008102892B09F477C02091760230917702A8
:100A80008091780290917902820F931FFC018081FE
:100A9000082E000C990B8D32910531F08E329105A4
:100AA00091F08097F9F027C00E94CD046EEE72E0BD
:100AB00080E090E00E94310281E090E090937B0220
:100AC00080937A0221C00E94CD046AEF70E080E03A
:100AD00090E00E94310281E090E090937B0280934D
:100AE0007A0212C00E94DE0468EE73E080E090E0BB
:100AF0000E94310209C00E94DE0460E070E080E0E4
:100B000090E00E94310200002EC080E090E00E9440
:100B10008102892B51F10E94DE0464E670E080E0DE
:100B200090E00E94310280917802909179020196C2
:100B30009093790280937802809176029091770267
:100B40000E9425149C01809178029091790282176D
:100B5000930720F0109279021092780210927B0293
:100B600010927A0202C0000001C000000000DF9174
:100B7000CF910895CF93DF9300D0CDB7DEB70E9419
:100B8000B30D0E9453000E94B3040E948E080E947D
:100B9000540A0E947D070E94B10181E691E00E9403
:100BA000040583E691E00E94830A87E791E00E94B2
:100BB000B90D8BED92E00E94B90D87EE92E00E9494
:100BC000B90D87ED92E00E94B90D81E080938D020E
:100BD0000E94E7000E94DA098AEA0E9489098BEBE9
:100BE0000E9489098CEC0E9489091A8219820E944C
:100BF00027050E9453090E94F2000E941703892BC7
:100C0000B1F789819A81892B91F760E071E080E0EA
:100C100090E00E947D0E81E090E09A838983E7CF87
:100C2000CF93DF9300D0CDB7DEB789E09DE39A8301
:100C3000898381E890E021E830E0F9012081286093
:100C4000FC01208381E890E021E830E0F901208177
:100C50002560FC01208388E890E029813A812150B9
:100C60003109FC01318320838FE690E02FE630E0EC
:100C7000F90120812260FC0120838FE590E02FE5BF
:100C800030E0F90120812068FC01208300000F90F2
:100C90000F90DF91CF910895CF93DF9300D000D0D4
:100CA00000D0CDB7DEB78FE590E0FC018081882FC2
:100CB00090E0807899279A8389838FE590E02FE5EB
:100CC00030E0F90120812F77FC0120838091E2013F
:100CD0009091E301A091E401B091E5018B839C83A5
:100CE000AD83BE8389819A81892B49F08FE590E09D
:100CF0002FE530E0F90120812068FC0120838B8101
:100D00009C81AD81BE81BC01CD0126960FB6F894C1
:100D1000DEBF0FBECDBFDF91CF910895CF93DF939C
:100D200000D0CDB7DEB78FE590E0FC018081882F41
:100D300090E0807899279A8389838FE590E02FE56A
:100D400030E0F90120812F77FC0120831092E2012D
:100D50001092E3011092E4011092E50189819A81D9
:100D6000892B49F08FE590E02FE530E0F9012081F3
:100D70002068FC01208300000F900F90DF91CF913D
:100D800008951F920F9200905F000F9211248F938D
:100D90009F93AF93BF93CF93DF93CDB7DEB780918F
:100DA000E2019091E301A091E401B091E501019687
:100DB000A11DB11D8093E2019093E301A093E40192
:100DC000B093E5010000DF91CF91BF91AF919F916A
:100DD0008F910F9000925F000F901F901895CF9306
:100DE000DF93CDB7DEB727970FB6F894DEBF0FBEFF
:100DF000CDBF9D838C837F836E831B821A821EC02E
:100E00008A819B812C813D81820F931FFC0180810F
:100E10009981890F89838FE590E0FC018081082EFC
:100E2000000C990B81709927892B19F089818F5FAC
:100E300089838A819B8101969B838A832A813B8156
:100E40008E819F8128173907D8F28981809527964E
:100E50000FB6F894DEBF0FBECDBFDF91CF910895DE
:100E6000CF93DF9300D000D000D0CDB7DEB79C8306
:100E70008B837E836D832D813E818B819C81B90123
:100E80000E94EF068983898180958A838D819E8166
:100E900001972B813C81820F931F2A81FC012083C3
:100EA000000026960FB6F894DEBF0FBECDBFDF91CF
:100EB000CF910895CF93DF9300D000D01F92CDB78C
:100EC000DEB79B838A837D836C832C813D818A81FD
:100ED0009B81B9010E94EF0689838981882319F4D7
:100EE00081E090E002C080E090E00F900F900F90C2
:100EF0000F900F90DF91CF910895EF92FF920F9393
:100F00001F93CF93DF93CDB7DEB728970FB6F89432
:100F1000DEBF0FBECDBF0DB71EB700000E94170386
:100F2000892BE1F71A82198287E390E09C838B83F7
:100F30008B819C812DB73EB779019C0121503109ED
:100F40003E832D832DB73EB7281B390B0FB6F8947F
:100F50003EBF0FBE2DBF8DB79EB7019698878F837A
:100F60004B812F81388589819A81B9010E94A6031E
:100F70002B813C818F819885A901BC0187ED92E08E
:100F80000E941C140E94F207892BA1F40E940B08F6
:100F90004B812F81388589819A81B9010E94A603EE
:100FA0002B813C818F819885A901BC0187ED92E05E
:100FB0000E941C140FB6F894FEBE0FBEEDBE0000DA
:100FC0000FB6F8941EBF0FBE0DBF28960FB6F8944B
:100FD000DEBF0FBECDBFDF91CF911F910F91FF906C
:100FE000EF900895CF93DF93CDB7DEB787ED92E012
:100FF0008C5A914059F467E370E087ED92E00E94CB
:101000005A07892B19F081E090E002C080E090E05F
:10101000DF91CF910895EF92FF920F931F93CF939B
:10102000DF93CDB7DEB728970FB6F894DEBF0FBEBB
:10103000CDBF0DB71EB78DB79EB77C0167E370E0DB
:1010400087ED92E00E9430071A82198287E390E0D0
:101050009C838B838B819C819C01215031093E8331
:101060002D832DB73EB7281B390B0FB6F8943EBF22
:101070000FBE2DBF8DB79EB7019698878F832B81AA
:101080003C818F819885A90162E171E00E941C1466
:101090004B812F81388589819A81B9010E942F0364
:1010A0000FB6F894FEBE0FBEEDBE00000FB6F8946A
:1010B0001EBF0FBE0DBF28960FB6F894DEBF0FBE41
:1010C000CDBFDF91CF911F910F91FF90EF900895C9
:1010D0008031910504F527E0289FA001299F500D3C
:1010E0001124FA01E751FE4F80818132A0F480E0A3
:1010F00090E020E0FA01E80FF91FE751FE4F308140
:10110000230F019687309105A9F781E090E0222313
:1011100021F080E0089580E090E008956F927F9242
:101120008F929F92AF92BF92CF92DF92EF92FF92F7
:101130000F931F93CF93DF930E941703892BE1F73F
:1011400009E512E0C0E8D0E0BE0167597E4F47E0F4
:10115000CE010E94A603F80111928F012796C03F8D
:10116000D10591F749EEE42E41E0F42E8701C0E06D
:10117000D0E0D12CB12C77247A94CE010E9468085B
:10118000892B41F0F8018081871520F4BC2E782E40
:10119000DD24D3942196095F1F4FC031D10569F733
:1011A000DD2009F46AC0B092E8017092E701CB2D0E
:1011B000D0E08E010F5F1F4F872C2FE0A22E37E06B
:1011C000932E6801FFE0CF22DD24C6010E9468084B
:1011D000892B61F4B092E6018E01015011096097EC
:1011E00080E1A82EB12C97E0692E3AC09C9CF001BA
:1011F0009D9CF00D1124E751FE4F4081242F30E0DB
:10120000882D90E001968F7199272817390711F7DB
:10121000C092E8014093E701AA940F5F1F4FAA20F4
:10122000C9F2842ECECFF701208130E0872D90E0E7
:101230004F968F7199272817390731F5C092E6012B
:10124000689CF001699CF00D1124E751FE4F7080FD
:1012500001501109F7E0EF0EF11C0C171D07A1F06A
:10126000C801B5010E94AD136C014C019924C40161
:101270000E946808892BB9F607C08FE08093E801C7
:101280001092E7011092E601DF91CF911F910F912B
:10129000FF90EF90DF90CF90BF90AF909F908F9096
:1012A0007F906F900895EF92FF921F93CF93DF93FB
:1012B0000E941703892B39F5E9E5F2E0C0E0D0E0A0
:1012C00081918823E1F017E01C9FC0011D9F900DC4
:1012D00011249C0127513E4F790167E070E0C9015C
:1012E0000E943007C19FC001112447E0B701805818
:1012F0009F4F0E942F03C75ADD4F188204C02196CA
:10130000C031D105E9F6DF91CF911F91FF90EF90A9
:101310000895EF92FF920F931F93CF93DF93E82EE0
:10132000C091E801D0E02196CF70DD278091E601E1
:1013300090E00E946808F82E8091E7018F5F81326B
:1013400018F48093E70102C01092E70187E08C9FB8
:1013500080018D9F100D112407511E4F8091E701D0
:10136000F80180830E94560AF801618372838383A7
:101370009483E582C093E80167E070E0C8010E94B1
:101380003007C75ADD4F81E088838091E801909152
:10139000E601891308C0FF2031F090E001968F70BC
:1013A00099278093E601DF91CF911F910F91FF90D4
:1013B000EF900895E9EEF1E0A9E5B2E08FEF4FEF8D
:1013C0005FEFBA0191E08083858341835283638319
:1013D00074839D93379622E0E935F207A1F78FE0F9
:1013E0008093E8011092E6011092E70108950F93AF
:1013F0001F93CF93DF930091E601C02F10E0D0E060
:10140000CE010E946808892B29F02196CF701F5FBA
:101410000C13F5CF812FDF91CF911F910F9108957C
:10142000AF92BF92CF92DF92EF92FF920F931F93F2
:10143000CF93DF936B017C018A0159010E94F70968
:1014400090E0A0E0B0E0C816D906EA06FB06F8F482
:101450008091E60190E0C80ED91E8FE0C822DD24FD
:1014600087E08C9DF0018D9DF00D1124E751FE4F1A
:1014700081819281A381B481E80188839983AA83C1
:10148000BB838581F501808381E090E002C080E02C
:1014900090E0DF91CF911F910F91FF90EF90DF903F
:1014A000CF90BF90AF9008950C9410060F931F93A8
:1014B0000E944C0600910E0310910F03209110031F
:1014C00030911103600F711F821F931F1F910F91A5
:1014D00008959C0160E971E00E949913892B79F0CD
:1014E000C90183709927892B61F4C90164E670E012
:1014F0000E9499139C0181E0232B21F402C081E01A
:10150000089580E008952F923F924F925F926F92DC
:101510007F928F929F92AF92BF92CF92DF92EF9283
:10152000FF920F931F93CF93DF93CDB7DEB76797EB
:101530000FB6F894DEBF0FBECDBF2CE0E0EBF1E0BC
:10154000AE014F5F5F4F1A01DA0101900D922A95AB
:10155000E1F7DC012C91220F2056322F330F330F8D
:10156000230F11963C9111973153230F2D8713961A
:101570002C911397022E000C330B205331096AE093
:10158000629FA001639F500D11241496CC900C2CE7
:10159000000CDD08B0E3CB1AD108C40ED51E8601BD
:1015A00001501109FC012681022E000C330B20533F
:1015B0003109E8EEF3E02E9FA0012F9F500D3E9FD2
:1015C000500D1124DC0117962C911797022E000C58
:1015D000330B2053310974E6729F7001739FF00C36
:1015E0001124E40EF51E18964C911897042E000C49
:1015F000550B40535109649F9001659F300D112494
:10160000E20EF31E19962C911997F701E20FF11DC6
:1016100027FDFA95AF0158507A011B962C911B9724
:10162000220F2056322F330F330F230F1C963C917D
:101630001C973053230F298B1E962C911E97220F37
:101640002056322F330F330F230F1F963C911F97D5
:101650003053230F2A8B51962C915197220F2056ED
:10166000322F330F330F230F52968C918053280F54
:101670002B8BCA010E94690A882321F05D855230B4
:1016800008F08601C70160E971E00E949913FC012E
:10169000DB0120E839E540E650EF0E9411142B01F0
:1016A0003C01CF0164E670E00E949913FC01DB016C
:1016B00020E032EC47E15CEB0E9411144B015C012D
:1016C000DF01B695A795B695A79520E83FE146E8D6
:1016D00057E00E9411146B017C01DF01A370BB274E
:1016E00020E833E341EE51E00E9411146C8B7D8BB6
:1016F0008E8B9F8BF1018E2F82199D85891720F487
:101700008191080F111DF7CFA9892A2F30E0A0E1A0
:10171000BEE00E9402146D877E878F87988BBA89FE
:101720002B2F30E0ACE3B0E00E9402142D853E8503
:101730004F855889260F371F481F591FDA01C901E5
:101740003B89830F911DA11DB11D480E591E6A1EB4
:101750007B1E840C951CA61CB71CC80CD91CEA1C4B
:10176000FB1C8C899D89AE89BF89C80ED91EEA1ED3
:10177000FB1ED80120E831E541E050E00E94111441
:10178000DC01CB018C0D9D1DAE1DBF1D80930E0392
:1017900090930F03A0931003B093110367960FB6B5
:1017A000F894DEBF0FBECDBFDF91CF911F910F9197
:1017B000FF90EF90DF90CF90BF90AF909F908F9071
:1017C0007F906F905F904F903F902F900C948E067B
:1017D000EF92FF920F931F93CF93DF93CDB7DEB7B6
:1017E00068970FB6F894DEBF0FBECDBF7B012CE02B
:1017F000E0EBF1E0DE011D9601900D922A95E1F7F4
:101800008E010F5F1F4F2CE0F80111922A95E9F726
:101810000E94690A8A83DE011D9680E0F7014081FB
:1018200051819D91F80121918F0130E0290F311DE7
:101830004217530740F0421B530BF701518340837B
:101840008F5F8C3059F768960FB6F894DEBF0FBEE5
:10185000CDBFDF91CF911F910F91FF90EF90089531
:101860004F925F926F927F928F929F92AF92BF92B0
:10187000CF92DF92EF92FF92CF93DF9300D0CDB75C
:10188000DEB72B013C0181E090E0A0E0B0E020E871
:10189000421629E5520620E6620620EF720618F489
:1018A00080E090E0DC0120E931E0829F5001839FDD
:1018B000B00C929FB00C112480E3A81A88EFB80AEC
:1018C000C12CD12C7601C39420E8421629E552069A
:1018D00020E6620620EF720618F4C12CD12C7601A6
:1018E000A701960160E879E580E690EF0E948913F0
:1018F00073016201C61AD70AE80AF90A81E090E08A
:10190000A0E0B0E0C11422ECD20627E1E2062CEB05
:10191000F20618F480E090E0DC0144E6489F900174
:10192000499F300D1124A20EB31E21E030E040E0AB
:1019300050E0C11482ECD80687E1E8068CEBF8068B
:1019400018F420E030E0A90160E072EC87E19CEB44
:101950000E948913A7019601261B370B480B590BD0
:10196000CA01B90120E83FE146E857E00E94C113EF
:10197000220F331F220F331FA20EB31E20E833E3C2
:1019800041EE51E00E94C1137501E20EF31E20E802
:1019900031E541E050E00E94C1134B015C013A8304
:1019A0002983BE016F5F7F4FC7010E94E80BD82ECD
:1019B000C501B40120E13EE040E050E00E94C113C7
:1019C00029013A014B015C016CEB71E089E491E083
:1019D0000E94470D6D2D70E06F5F7F4F42E089E4FC
:1019E00091E00E94510D69817A816F5F7F4F42E0E3
:1019F0008CE491E00E94510D44E0B7018FE491E046
:101A00000E94510D42E0B20184E591E00E94510D27
:101A1000C501B4012CE330E040E050E00E94C11366
:101A200049015A016B017C0142E0B40187E591E074
:101A30000E94510D42E0B6018AE591E00E94510DED
:101A400089E491E00F900F90DF91CF91FF90EF909C
:101A5000DF90CF90BF90AF909F908F907F906F90CE
:101A60005F904F9008950F931F930E944C06009132
:101A70000E0310910F032091100330911103600F9A
:101A8000711F821F931F1F910F910C94300CFC014A
:101A9000DB018D91BD01882311F08193F9CF108274
:101AA00008959F92AF92BF92CF92DF92EF92FF92F2
:101AB0000F931F93CF93DF9300D000D01F92CDB729
:101AC000DEB7FC016B019E012F5F3F4F8E010A5F65
:101AD0001F4FEE24E394F12C9AE0992E9E9C500126
:101AE0009F9CB00C1124C601B5010E949913B70147
:101AF0000E949913D9016D939D01C61AD10867FD03
:101B0000D3947501A017B10749F760E070E084E055
:101B100090E050E0D8012E918D01211105C0611592
:101B2000710511F4009741F4841795072CF4205D9A
:101B3000219361E070E004C0841795070CF431969E
:101B4000019740F70F900F900F900F900F90DF913B
:101B5000CF911F910F91FF90EF90DF90CF90BF90AA
:101B6000AF909F9008950E94470F789408950C9429
:101B7000DF0FCF93DF93EC018991882319F00E9446
:101B8000DF0FFACFDF91CF910895CF93C82F90E068
:101B900024E0959587952A95E1F78A3010F4805DC9
:101BA00001C0895C0E94DF0F8C2F8F708A3010F08B
:101BB000895C01C0805DCF910C94DF0FCF93C82F5B
:101BC000892F0E94C50D8C2FCF910C94C50D2F929B
:101BD0003F924F925F926F927F928F929F92AF92BD
:101BE000BF92CF92DF92EF92FF920F931F93CF930A
:101BF000DF93CDB7DEB763970FB6F894DEBF0FBEA5
:101C0000CDBF6B017C0197FF0DC0F094E094D094A0
:101C1000C094C11CD11CE11CF11C81E090E09B8BA5
:101C20008A8B02C01B8A1A8AFE0131965F018E01DF
:101C3000055F1F4FF98BE88B66246394712C812C10
:101C4000912CAAE0B0E09301A4010E9411141B01A1
:101C50002C01C701B6019101A2010E94E313930177
:101C6000A4010E94E313E889F9892193F98BE88B99
:101C7000822F220F990BAA0BBB0BC81AD90AEA0AAA
:101C8000FB0A310142010E171F07D9F68A899B8989
:101C9000892B11F08DE201C080E20E94DF0F20E06D
:101CA00030E0F80182918F01811106C021153105C4
:101CB00019F4EA15FB0529F4805D0E94DF0F21E08D
:101CC00030E00A151B0569F763960FB6F894DEBF7E
:101CD0000FBECDBFDF91CF911F910F91FF90EF907D
:101CE000DF90CF90BF90AF909F908F907F906F903C
:101CF0005F904F903F902F9008952F923F924F9278
:101D00005F926F927F928F929F92AF92BF92CF928B
:101D1000DF92EF92FF920F931F93CF93DF93CDB794
:101D2000DEB764970FB6F894DEBF0FBECDBF8C014F
:101D30006115710509F492C0812C912C5401CB01DD
:101D4000A0E0B0E0898B9A8BAB8BBC8BDE01119647
:101D50001D0189899A89AB89BC8988169906AA06CA
:101D6000BB0608F07BC0812F0E94C50D802F807FAD
:101D70000E94C50D80E20E94B70D61017801412CDF
:101D8000512C320141E0B601C7010E94A603BFEF0A
:101D9000EB1AFB0AEFEF4E1A5E0A6E0A7E0AFFEF9D
:101DA0008F1A9F0AAF0ABF0A89899A89AB89BC89B1
:101DB00088169906AA06BB0650F068019FE0C92262
:101DC000DD2400E010E032016C0C7D1C09C0AFEF97
:101DD000CA1ADA0AC7018F709927892B99F6EDCFB5
:101DE0000C151D0518F00615170528F080ED91E07B
:101DF0000E94B90D0BC0F801EC19FD09E20DF31DAD
:101E000080810E94C50D80E20E94B70D0F5F1F4FB9
:101E10000031110529F700E010E0C016D10631F0BD
:101E200080E20E94B70D0F5F1F4FF7CF8101C801FD
:101E3000821993098415950558F4F80181918F0151
:101E400090EE980F903608F08EE20E94B70DEFCF1B
:101E500084ED91E00E94B90D87017BCF64960FB6A7
:101E6000F894DEBF0FBECDBFDF91CF911F910F91D0
:101E7000FF90EF90DF90CF90BF90AF909F908F90AA
:101E80007F906F905F904F903F902F9008951092A9
:101E9000C00087E690E09093C5008093C400E1EC19
:101EA000F0E088E1808386E08093C2008081806AD0
:101EB000808308951F920F920FB60F9211242F93D3
:101EC0008F939F93EF93FF9380916B0220916C020D
:101ED00090E0821B910901978F739927892B79F0E4
:101EE000E0916C02F0E08091C600EE5EFC4F8083D2
:101EF00080916C028F5F8F7380936C0202C080911F
:101F0000C600FF91EF919F918F912F910F900FBE7F
:101F10000F901F9018951F920F920FB60F921124D9
:101F20002F938F939F93EF93FF9380916A02209159
:101F3000690290E0821B91098F739927892B79F0B0
:101F4000E0916902F0E0EE5AFC4F80818093C60078
:101F5000809169028F5F8F738093690205C08091C1
:101F6000C1008F7D8093C100FF91EF919F918F9170
:101F70002F910F900FBE0F901F90189580916C02BB
:101F800090916B02891B8F73089580916C02209150
:101F90006B0290E0821B91098F739927892B69F05E
:101FA000E0916B02F0E0EE5EFC4F808190916B025D
:101FB0009F5F9F7390936B02089580E008950FB622
:101FC00007FE0EC02091690290916A0230E0291B41
:101FD0003109215031092F733327232B99F30DC079
:101FE0002091690290916A0230E0291B3109215049
:101FF00031092F733327232B61F0E0916A02F0E05F
:10200000EE5AFC4F808380916A028F5F8F738093BA
:102010006A028091C10080628093C10008951F937D
:10202000CF93DF93EC0180E011E0180FFE01E80F81
:10203000F11D8081882321F00E94DF0F812FF4CFD2
:10204000DF91CF911F9108951F93CF93DF93EC0100
:1020500080E011E0180FFE01E80FF11D8491882344
:1020600021F00E94DF0F812FF4CFDF91CF911F91DC
:102070000895CF93DF9300D0CDB7DEB7809175027E
:10208000882389F58AEF90E09A83898387E490E03A
:1020900029812150FC01208384E490E024E430E095
:1020A000F90120812260FC01208385E490E025E491
:1020B00030E0F90120812360FC0120838FE590E06E
:1020C0002FE530E0F90120812068FC0120838EE6B5
:1020D00090E02EE630E0F90120812260FC012083AF
:1020E00081E08093750200000F900F90DF91CF91F7
:1020F0000895CF93DF9300D000D000D0CDB7DEB7E6
:102100009E838D838FE590E0FC018081082E000C7A
:10211000990B807899279A8389838FE590E02FE542
:1021200030E0F90120812F77FC0120838D819E8191
:10213000880F991F83599D4FFC01808191819C8359
:102140008B8389819A81892B49F08FE590E02FE577
:1021500030E0F90120812068FC0120838B819C8183
:1021600026960FB6F894DEBF0FBECDBFDF91CF919C
:102170000895CF93DF9300D000D000D0CDB7DEB765
:102180009C838B837E836D8380917502882311F4F9
:102190000E9439108FE590E0FC018081082E000C30
:1021A000990B807899279A8389838FE590E02FE5B2
:1021B00030E0F90120812F77FC0120838B819C8105
:1021C000880F991F8F589D4F2D813E81FC013183CF
:1021D00020838B819C81880F991F83599D4FFC011F
:1021E0001182108289819A81892B49F08FE590E0D4
:1021F0002FE530E0F90120812068FC0120830000F8
:1022000026960FB6F894DEBF0FBECDBFDF91CF91FB
:102210000895CF93DF9300D000D0CDB7DEB79C8375
:102220008B831A8219828B819C81880F991F835915
:102230009D4FFC01208131818B819C81880F991FEA
:102240008F589D4FFC018081918141E0281739070B
:1022500009F040E0442321F081E090E09A838983F3
:1022600089819A810F900F900F900F90DF91CF91FD
:1022700008951F920F9200905F000F9211242F93E8
:102280003F934F938F939F93EF93FF93CF93DF935E
:1022900000D0CDB7DEB71A82198222E030E0898102
:1022A0009A8182179307A0F589819A81880F991FD7
:1022B00083599D4FFC012081318189819A81880F4A
:1022C000991F8F589D4FFC018081918141E0281713
:1022D000390708F040E04423A9F089819A81880FEA
:1022E000991F83599D4FFC01808191819C012F5F33
:1022F0003F4F89819A81880F991F83599D4FFC0117
:102300003183208389819A8101969A838983C5CFFD
:1023100000000F900F90DF91CF91FF91EF919F916F
:102320008F914F913F912F910F9000925F000F90EE
:102330001F901895CF93DF93CDB7DEB784E290E07E
:1023400024E230E0F90120812260FC01208385E253
:1023500090E025E230E0F90120812D7FFC0120830F
:102360000000DF91CF910895CF93DF93CDB7DEB713
:1023700085E290E025E230E0F90120812260FC0155
:1023800020830000DF91CF910895CF93DF93CDB7E5
:10239000DEB785E290E025E230E0F90120812D7F73
:1023A000FC0120830000DF91CF910895CF93DF934C
:1023B000CDB7DEB785E290E0FC018081882F90E008
:1023C00082709927892B19F081E090E002C080E0AB
:1023D00090E0DF91CF910895CF93DF9300D0CDB7F8
:1023E000DEB79A83898389819A819093770280935B
:1023F0007602109279021092780210927B0210926B
:102400007A0260E070E080E090E00E94B9100E94E3
:10241000C51100000F900F90DF91CF910895CF93D9
:10242000DF93CDB7DEB780917A0290917B0200975F
:1024300021F0019709F455C089C080E090E00E9426
:10244000091121E0892B09F420E0222309F47BC043
:1024500020917602309177028091780290917902F2
:10246000820F931FFC018081082E000C990B8D3286
:10247000910531F08E32910591F08097F9F027C0E7
:102480000E94B4116EEE72E080E090E00E94B910FC
:1024900081E090E090937B0280937A0221C00E94B9
:1024A000B4116AEF70E080E090E00E94B91081E022
:1024B00090E090937B0280937A0212C00E94C51133
:1024C00068EE73E080E090E00E94B91009C00E94BD
:1024D000C51160E070E080E090E00E94B91000005B
:1024E00032C080E090E00E94091121E0892B09F4BC
:1024F00020E0222351F10E94C51164E670E080E0E3
:1025000090E00E94B9108091780290917902019632
:10251000909379028093780280917602909177026D
:102520000E9425149C018091780290917902821773
:10253000930720F0109279021092780210927B0299
:1025400010927A0202C0000001C000000000DF917A
:10255000CF910895CF93DF9300D0CDB7DEB789E058
:102560009DE39A83898381E890E021E830E0F901D6
:1025700020812860FC01208381E890E021E830E0A0
:10258000F90120812560FC01208388E890E0298101
:102590003A8121503109FC01318320838FE690E09C
:1025A0002FE630E0F90120812260FC0120838FE5D5
:1025B00090E02FE530E0F90120812068FC012083C4
:1025C00000000F900F90DF91CF910895CF93DF938C
:1025D00000D000D000D0CDB7DEB78FE590E0FC0191
:1025E0008081882F90E0807899279A8389838FE56E
:1025F00090E02FE530E0F90120812F77FC01208366
:1026000080917C0290917D02A0917E02B0917F0228
:102610008B839C83AD83BE8389819A81892B49F00A
:102620008FE590E02FE530E0F90120812068FC0182
:1026300020838B819C81AD81BE81BC01CD0126961A
:102640000FB6F894DEBF0FBECDBFDF91CF910895D6
:10265000CF93DF9300D0CDB7DEB78FE590E0FC01DC
:102660008081882F90E0807899279A8389838FE5ED
:1026700090E02FE530E0F90120812F77FC012083E5
:1026800010927C0210927D0210927E0210927F02C4
:1026900089819A81892B49F08FE590E02FE530E020
:1026A000F90120812068FC01208300000F900F9029
:1026B000DF91CF9108951F920F9200905F000F92CB
:1026C00011248F939F93AF93BF93CF93DF93CDB795
:1026D000DEB780917C0290917D02A0917E02B09144
:1026E0007F020196A11DB11D80937C0290937D0213
:1026F000A0937E02B0937F020000DF91CF91BF9143
:10270000AF919F918F910F9000925F000F901F905B
:102710001895DB018F939F930E941114BF91AF9185
:10272000A29F800D911DA39F900DB29F900D11242B
:102730000895AA1BBB1B51E107C0AA1FBB1FA61708
:10274000B70710F0A61BB70B881F991F5A95A9F75A
:1027500080959095BC01CD01089597FB072E16F446
:10276000009407D077FD09D00E94991307FC05D08B
:102770003EF4909581959F4F0895709561957F4F98
:102780000895A1E21A2EAA1BBB1BFD010DC0AA1FB2
:10279000BB1FEE1FFF1FA217B307E407F50720F0CA
:1027A000A21BB30BE40BF50B661F771F881F991F45
:1027B0001A9469F760957095809590959B01AC018E
:1027C000BD01CF010895052E97FB1EF400940E94D1
:1027D000FA1357FD07D00E94C11307FC03D04EF433
:1027E0000C94FA1350954095309521953F4F4F4FDB
:1027F0005F4F089590958095709561957F4F8F4FAD
:102800009F4F0895A29FB001B39FC001A39F700D79
:10281000811D1124911DB29F700D811D1124911DE8
:1028200008950E940214A59F900DB49F900DA49F3F
:10283000800D911D11240895FB01DC0102C001905F
:102840000D9241505040D8F70895FC0101900020AE
:10285000E9F7809590958E0F9F1F0895F894FFCF0C
:10286000030B443100802500002D00040B44300090
:10287000802500002D0002060024F400010C617484
:082880006D6567613332380019
:1028880041535500FF03FE030000010000C0A801EA
:102898006400534552004D616E6973680000000082
:1028A80000004D616E6900000000000000006162D8
:1028B80063643132333400000000000000007362AA
:1028C80073646A62555341000030302F30302F3026
:1028D8003030302030303A30303A303000415355C3
:1028E800002D0030312F30312F3230313920303047
:1028F8003A30303A30300053455220343836205080
:10290800726F6A6563742032202D204D616E697381
:1029180068204D79736F72652052616A657368200B
:1029280047616E6761646861720A0D005345520021
:102938001F1C1F1E1F1E1F1F1E1F1E1F30302F3063
:10294800302F303030302030303A30303A303000AC
:08295800202020000D0A000000
:00000001FF
