:100000000C9434000C9451000C9451000C94510049
:100010000C9451000C9451000C9451000C9451001C
:100020000C9451000C9451000C9451000C94B8069F
:100030000C9451000C9451000C94D3020C94510078
:100040000C9451000C9451000C94A40F0C94D50FF7
:100050000C9451000C9451000C9402040C94510027
:100060000C9451000C94510011241FBECFEFD8E026
:10007000DEBFCDBF11E0A0E0B1E0EAE0F9E202C0EE
:1000800005900D92A23DB107D9F723E0A2EDB1E0B2
:1000900001C01D92AC38B207E1F70E9497050C949D
:1000A0006F140C940000CF93DF93CDB7DEB7289781
:1000B0000FB6F894DEBF0FBECDBF9E838D837887C9
:1000C0006F831A8219821C821B821CC08B819C81C7
:1000D0002D813E81820F931FFC0140818B819C8189
:1000E0002F813885820F931FFC018081481729F0EA
:1000F00081E090E09A83898319C08B819C8101966D
:100100009C838B838B819C812D813E81820F931FE9
:10011000FC018081882351F08B819C812F8138855F
:10012000820F931FFC018081882381F689819A8147
:10013000892B19F480E090E002C081E090E02896DD
:100140000FB6F894DEBF0FBECDBFDF91CF910895FB
:10015000EF92FF920F931F93CF93DF93CDB7DEB74C
:100160002E970FB6F894DEBF0FBECDBF0DB71EB7EA
:1001700000000E943003892BE1F780E490E09E8329
:100180008D8382E190E098878F838F8198850A968E
:100190002DB73EB779019C01215031093A87298753
:1001A0002DB73EB7281B390B0FB6F8943EBF0FBED4
:1001B0002DBF8DB79EB701969C878B878BE792E00A
:1001C0009E878D874F812B853C858D819E81B901CE
:1001D0000E94AD031A82198215C089819A812D85EA
:1001E0003E85820F931F4B855C8529813A81240FC0
:1001F000351FF9012081FC01208389819A810196B4
:100200009A83898329813A818F81988528173907B4
:1002100024F30E945001892B59F50E94AC014F81B3
:100220002B853C858D819E81B9010E94AD031C8286
:100230001B8215C08B819C812D853E85820F931F6B
:100240004B855C852B813C81240F351FF901208172
:10025000FC0120838B819C8101969C838B832B8165
:100260003C818F8198852817390724F310927A02F0
:100270000FB6F894FEBE0FBEEDBE00000FB6F894A8
:100280001EBF0FBE0DBF2E960FB6F894DEBF0FBE79
:10029000CDBFDF91CF911F910F91FF90EF90089507
:1002A000CF93DF93CDB7DEB760E071E08BE792E0EC
:1002B0000E945300892B59F062E170E08BE792E0D5
:1002C0000E945107892B19F081E090E002C080E084
:1002D00090E0DF91CF910895CF93DF93CDB7DEB754
:1002E00081E080937A020000DF91CF910895CF934F
:1002F000DF9300D000D000D0CDB7DEB70E9430032E
:10030000892B01F580917A028823E1F062E170E0A7
:100310008BE792E00E94270780E490E09A8389832C
:1003200082E190E09C838B838BE792E09E838D83B8
:100330004B812D813E8189819A81B9010E943F03C1
:1003400010927A02000026960FB6F894DEBF0FBE18
:10035000CDBFDF91CF910895CF93DF9300D000D030
:1003600000D0CDB7DEB762E170E08BE792E00E948B
:10037000270780E490E09A83898382E190E09C8360
:100380008B8380E091E09E838D834B812D813E8124
:1003900089819A81B9010E943F03000026960FB619
:1003A000F894DEBF0FBECDBFDF91CF910895CF93FC
:1003B000DF9300D0CDB7DEB78091DA01882389F5CD
:1003C0008AEF90E09A83898387E490E02981215025
:1003D000FC01208384E490E024E430E0F9012081F2
:1003E0002260FC01208385E490E025E430E0F901FF
:1003F00020812360FC0120838FE590E02FE530E031
:10040000F90120812068FC0120838EE690E02EE631
:1004100030E0F90120812260FC01208381E080939B
:10042000DA0100000F900F90DF91CF910895CF93E4
:10043000DF9300D000D000D0CDB7DEB79E838D8390
:100440008FE590E0FC018081082E000C990B8078EC
:1004500099279A8389838FE590E02FE530E0F901B1
:1004600020812F77FC0120838D819E81880F991F29
:100470008E529E4FFC01808191819C838B83898168
:100480009A81892B49F08FE590E02FE530E0F90162
:1004900020812068FC0120838B819C8126960FB6E9
:1004A000F894DEBF0FBECDBFDF91CF910895CF93FB
:1004B000DF9300D000D000D0CDB7DEB79C838B8314
:1004C0007E836D838091DA01882311F40E94D70125
:1004D0008FE590E0FC018081082E000C990B80785C
:1004E00099279A8389838FE590E02FE530E0F90121
:1004F00020812F77FC0120838B819C81880F991F9D
:100500008A529E4F2D813E81FC01318320838B8155
:100510009C81880F991F8E529E4FFC011182108280
:1005200089819A81892B49F08FE590E02FE530E0B1
:10053000F90120812068FC012083000026960FB677
:10054000F894DEBF0FBECDBFDF91CF910895CF935A
:10055000DF9300D000D0CDB7DEB79C838B831A82A7
:1005600019828B819C81880F991F8E529E4FFC01AE
:10057000208131818B819C81880F991F8A529E4FE7
:10058000FC01808191812817390721F481E090E0F6
:100590009A83898389819A810F900F900F900F9091
:1005A000DF91CF9108951F920F9200905F000F92FC
:1005B00011242F933F938F939F93EF93FF93CF93A8
:1005C000DF9300D0CDB7DEB71A8219822FC08981A0
:1005D0009A81880F991F8E529E4FFC012081318194
:1005E00089819A81880F991F8A529E4FFC018081D0
:1005F000918128173907A8F489819A81880F991F5A
:100600008E529E4FFC01808191819C012F5F3F4F54
:1006100089819A81880F991F8E529E4FFC013183E8
:10062000208389819A8101969A83898389819A811D
:10063000029768F200000F900F90DF91CF91FF9129
:10064000EF919F918F913F912F910F9000925F00BA
:100650000F901F901895FA9AF99A0895F89A0895AC
:10066000CF93DF93CDB7DEB79091DB0181E091307E
:1006700009F080E0882F90E0DF91CF910895CF932B
:10068000DF93CDB7DEB727970FB6F894DEBF0FBE66
:10069000CDBF9C838B837E836D834F838B819C81B5
:1006A00090938E0280938D0281E08093DB01109203
:1006B000D0021A82198213C089819A812D813E81CC
:1006C000820F931FFC01208189819A8180579D4F61
:1006D000FC01208389819A8101969A8389838F8185
:1006E000282F30E089819A81821793072CF38F811C
:1006F00080938F028FE390E02FE330E0F9012081B7
:100700002062FC0120838FE390E02FE330E0F901C9
:1007100020812F7EFC0120838FE590E02FE530E0E3
:10072000F90120812068FC0120838FE390E02FE312
:1007300030E0F90120812860FC01208300008091D5
:10074000DB018823E1F7000027960FB6F894DEBF9F
:100750000FBECDBFDF91CF910895CF93DF93CDB77B
:10076000DEB729970FB6F894DEBF0FBECDBF9E83CC
:100770008D8378876F8349878D819E819A83898352
:100780001C821B822DC000008FE390E0FC01808161
:10079000082E000C990B82709927892BA9F781E408
:1007A00090E029813A81FC01318320830E942E034D
:1007B00000C000C08B819C812F813885820F931FE0
:1007C00020E430E0F9012081FC01208389819A81B5
:1007D00001969A8389838B819C8101969C838B836C
:1007E0008985282F30E08B819C81821793075CF2EA
:1007F000000029960FB6F894DEBF0FBECDBFDF9183
:10080000CF9108951F920F9200905F000F921124D4
:100810002F933F934F935F936F937F938F939F9308
:10082000AF93BF93EF93FF93CF93DF93CDB7DEB733
:100830009091D00280918F029817D8F58FE590E0C3
:100840002FE530E0F90120812F77FC0120830000A3
:100850008FE390E0FC018081082E000C990B8270E0
:100860009927892BA9F781E490E020918D0230919E
:100870008E02FC013183208380E490E02091D0023D
:10088000222F30E020573D4FF9012081FC012083C9
:100890000E942B0380918D0290918E02019690937D
:1008A0008E0280938D028091D0028F5F8093D00260
:1008B00011C09091D00280918F02981758F08FE369
:1008C00090E02FE330E0F9012081277FFC012083B5
:1008D0001092DB010000DF91CF91FF91EF91BF916A
:1008E000AF919F918F917F916F915F914F913F91C8
:1008F0002F910F9000925F000F901F901895CF934B
:10090000DF93CDB7DEB78FE390E02FE330E0F9015E
:1009100020812062FC0120830000DF91CF910895A7
:10092000CF93DF93CDB7DEB784E290E024E230E0EE
:10093000F90120812260FC01208385E290E025E21C
:1009400030E0F90120812D7FFC0120830000DF9140
:10095000CF910895CF93DF93CDB7DEB785E290E0D6
:1009600025E230E0F90120812260FC0120830000B3
:10097000DF91CF910895CF93DF93CDB7DEB785E2B6
:1009800090E025E230E0F90120812D7FFC012083F9
:100990000000DF91CF910895CF93DF93CDB7DEB7FD
:1009A00085E290E0FC018081882F90E08270992799
:1009B00021E0892B09F420E0822F90E0DF91CF9194
:1009C0000895CF93DF9300D0CDB7DEB79A838983A4
:1009D00089819A81909371028093700210927302C0
:1009E00010927202109275021092740260E070E030
:1009F00080E090E00E9457020E94BB0400000F902C
:100A00000F90DF91CF910895CF93DF93CDB7DEB7ED
:100A10008091740290917502009721F0019709F47A
:100A200051C081C080E090E00E94A702892B09F4A8
:100A300077C0209170023091710280917202909182
:100A40007302820F931FFC018081082E000C990B0A
:100A50008D32910531F08E32910591F08097F9F049
:100A600027C00E94AA046EEE72E080E090E00E942F
:100A7000570281E090E0909375028093740221C048
:100A80000E94AA046AEF70E080E090E00E945702A2
:100A900081E090E0909375028093740212C00E94EE
:100AA000BB0468EE73E080E090E00E94570209C04A
:100AB0000E94BB0460E070E080E090E00E9457027A
:100AC00000002EC080E090E00E94A702892B51F127
:100AD0000E94BB0464E670E080E090E00E94570250
:100AE00080917202909173020196909373028093A9
:100AF000720280917002909171020E9466149C01B2
:100B000080917202909173028217930720F01092E5
:100B1000730210927202109275021092740202C057
:100B2000000001C000000000DF91CF910895CF9335
:100B3000DF9300D0CDB7DEB70E94FD0D0E94A80064
:100B40000E9490040E94D8080E949E0A0E94C90731
:100B50000E94D7018DE591E00E94E1048FE591E0CC
:100B60000E94CD0A83E791E00E94030E85ED92E09A
:100B70000E94030E88EA91E00E94030E81EE92E04B
:100B80000E94030E88EA91E00E94030E8BE792E038
:100B90000E94030E88EA91E00E94030E81E0809398
:100BA00087020E946C010E94240A8AEA0E94D309EB
:100BB0008BEB0E94D3098CEC0E94D3090E949D0903
:100BC0000E949D090E949D091A82198280918C02BF
:100BD0000E940F0E88EA91E00E94030E0E94040515
:100BE0000E949D090E9477010E943003892BB1F772
:100BF00089819A81892B91F760E071E080E090E033
:100C00000E94C70E81E090E09A838983E7CFCF935B
:100C1000DF9300D0CDB7DEB789E09DE39A83898367
:100C200081E890E021E830E0F90120812860FC01B2
:100C3000208381E890E021E830E0F90120812560FF
:100C4000FC01208388E890E029813A812150310914
:100C5000FC01318320838FE690E02FE630E0F9013C
:100C600020812260FC0120838FE590E02FE530E0B9
:100C7000F90120812068FC01208300000F900F9073
:100C8000DF91CF910895CF93DF9300D000D000D0B3
:100C9000CDB7DEB78FE590E0FC018081882F90E032
:100CA000807899279A8389838FE590E02FE530E05B
:100CB000F90120812F77FC0120838091DC01909144
:100CC000DD01A091DE01B091DF018B839C83AD83B8
:100CD000BE8389819A81892B49F08FE590E02FE5C9
:100CE00030E0F90120812068FC0120838B819C8108
:100CF000AD81BE81BC01CD0126960FB6F894DEBF52
:100D00000FBECDBFDF91CF910895CF93DF9300D079
:100D1000CDB7DEB78FE590E0FC018081882F90E0B1
:100D2000807899279A8389838FE590E02FE530E0DA
:100D3000F90120812F77FC0120831092DC011092B1
:100D4000DD011092DE011092DF0189819A81892BE9
:100D500049F08FE590E02FE530E0F901208120682F
:100D6000FC01208300000F900F90DF91CF91089538
:100D70001F920F9200905F000F9211248F939F9308
:100D8000AF93BF93CF93DF93CDB7DEB78091DC01F4
:100D90009091DD01A091DE01B091DF010196A11DCE
:100DA000B11D8093DC019093DD01A093DE01B0932F
:100DB000DF010000DF91CF91BF91AF919F918F91A3
:100DC0000F9000925F000F901F901895CF93DF93C4
:100DD000CDB7DEB727970FB6F894DEBF0FBECDBFF5
:100DE0009D838C837F836E831B821A821EC08A81BF
:100DF0009B812C813D81820F931FFC018081998111
:100E0000890F89838FE590E0FC018081082E000C1A
:100E1000990B81709927892B19F089818F5F8983BC
:100E20008A819B8101969B838A832A813B818E8163
:100E30009F8128173907D8F28981809527960FB6A8
:100E4000F894DEBF0FBECDBFDF91CF910895CF9351
:100E5000DF9300D000D000D0CDB7DEB79C838B836A
:100E60007E836D832D813E818B819C81B9010E949F
:100E7000E6068983898180958A838D819E81019789
:100E80002B813C81820F931F2A81FC01208300006B
:100E900026960FB6F894DEBF0FBECDBFDF91CF917F
:100EA0000895CF93DF9300D000D01F92CDB7DEB767
:100EB0009B838A837D836C832C813D818A819B8186
:100EC000B9010E94E60689838981882319F481E0AB
:100ED00090E002C080E090E00F900F900F900F9094
:100EE0000F90DF91CF910895CF93DF93CDB7DEB709
:100EF00028970FB6F894DEBF0FBECDBF9E838D83BB
:100F000078876F831A8219821C821B821CC08B8196
:100F10009C812D813E81820F931FFC0140818B813A
:100F20009C812F813885820F931FFC018081481797
:100F300029F081E090E09A83898319C08B819C819C
:100F400001969C838B838B819C812D813E81820FB6
:100F5000931FFC018081882351F08B819C812F811C
:100F60003885820F931FFC018081882381F6898157
:100F70009A81892B19F480E090E002C081E090E032
:100F800028960FB6F894DEBF0FBECDBFDF91CF918C
:100F90000895EF92FF920F931F93CF93DF93CDB7F6
:100FA000DEB72E970FB6F894DEBF0FBECDBF0DB7DC
:100FB0001EB700000E943003892BE1F71E821D82BC
:100FC00087E390E098878F838F8198850A962DB765
:100FD0003EB779019C01215031093A8729872DB705
:100FE0003EB7281B390B0FB6F8943EBF0FBE2DBF7E
:100FF0008DB79EB701969C878B8781ED92E09E8787
:101000008D874F812B853C858D819E81B9010E9402
:10101000AD031A82198215C089819A812D853E857A
:10102000820F931F4B855C8529813A81240F351FE0
:10103000F9012081FC01208389819A8101969A839C
:10104000898329813A818F8198852817390724F36C
:101050000E946D08892B49F50E9489084F812B85D4
:101060003C858D819E81B9010E94AD031C821B824B
:1010700015C08B819C812D853E85820F931F4B85EA
:101080005C852B813C81240F351FF9012081FC01F7
:1010900020838B819C8101969C838B832B813C8157
:1010A0008F8198852817390724F30FB6F894FEBE70
:1010B0000FBEEDBE00000FB6F8941EBF0FBE0DBFF1
:1010C0002E960FB6F894DEBF0FBECDBFDF91CF9145
:1010D0001F910F91FF90EF900895CF93DF93CDB7BD
:1010E000DEB762E171E081ED92E00E947407892B26
:1010F00059F067E370E081ED92E00E945107892B7F
:1011000019F081E090E002C080E090E0DF91CF91A3
:101110000895CF93DF9300D000D000D0CDB7DEB7D5
:1011200067E370E081ED92E00E9427071A8219823E
:1011300087E390E09C838B8382E191E09E838D83A3
:101140004B812D813E8189819A81B9010E943F03A3
:10115000000026960FB6F894DEBF0FBECDBFDF911C
:10116000CF9108958031910504F527E0289FA001D3
:10117000299F500D1124FA01ED51FE4F80818132DB
:10118000A0F480E090E020E0FA01E80FF91FED51B3
:10119000FE4F3081230F019687309105A9F781E03A
:1011A00090E0222321F080E0089580E090E008950F
:1011B0006F927F928F929F92AF92BF92CF92DF9267
:1011C000EF92FF920F931F93CF93DF930E94300310
:1011D000892BE1F703E512E0C0E8D0E0BE016D59CC
:1011E0007E4F47E0CE010E94AD03F80111928F01BE
:1011F0002796C03FD10591F743EEE42E41E0F42E4F
:101200008701C0E0D0E0D12CB12C77247A94CE01B4
:101210000E94B208892B41F0F8018081871520F4E3
:10122000BC2E782EDD24D3942196095F1F4FC03148
:10123000D10569F7DD2009F46AC0B092E20170922D
:10124000E101CB2DD0E08E010F5F1F4F872C2FE0E7
:10125000A22E37E0932E6801FFE0CF22DD24C601E5
:101260000E94B208892B61F4B092E0018E01015016
:101270001109609780E1A82EB12C97E0692E3AC041
:101280009C9CF0019D9CF00D1124ED51FE4F40817E
:10129000242F30E0882D90E001968F719927281730
:1012A000390711F7C092E2014093E101AA940F5F60
:1012B0001F4FAA20C9F2842ECECFF701208130E043
:1012C000872D90E04F968F7199272817390731F5B0
:1012D000C092E001689CF001699CF00D1124ED5171
:1012E000FE4F708001501109F7E0EF0EF11C0C1752
:1012F0001D07A1F0C801B5010E94F7136C014C0154
:101300009924C4010E94B208892BB9F607C08FE066
:101310008093E2011092E1011092E001DF91CF9100
:101320001F910F91FF90EF90DF90CF90BF90AF9003
:101330009F908F907F906F900895EF92FF921F93F0
:10134000CF93DF930E943003892B39F5E3E5F2E078
:10135000C0E0D0E081918823E1F017E01C9FC0013C
:101360001D9F900D11249C012D513E4F790167E086
:1013700070E0C9010E942707C19FC001112447E006
:10138000B70180589F4F0E943F03CD5ADD4F18820E
:1013900004C02196C031D105E9F6DF91CF911F91AC
:1013A000FF90EF900895EF92FF920F931F93CF93CA
:1013B000DF93E82EC091E201D0E02196CF70DD27C7
:1013C0008091E00190E00E94B208F82E8091E10146
:1013D0008F5F813218F48093E10102C01092E10125
:1013E00087E08C9F80018D9F100D11240D511E4FA1
:1013F0008091E101F80180830E94A00AF8016183D5
:10140000728383839483E582C093E20167E070E096
:10141000C8010E942707CD5ADD4F81E08883809163
:10142000E2019091E001891308C0FF2031F090E0C3
:1014300001968F7099278093E001DF91CF911F91E2
:101440000F91FF90EF900895E3EEF1E0A3E5B2E095
:101450008FEF4FEF5FEFBA0191E080838583418387
:101460005283638374839D93379622E0E335F207BA
:10147000A1F78FE08093E2011092E0011092E10168
:1014800008950F931F93CF93DF930091E001C02F36
:1014900010E0D0E0CE010E94B208892B29F02196FD
:1014A000CF701F5F0C13F5CF812FDF91CF911F916C
:1014B0000F910895AF92BF92CF92DF92EF92FF9279
:1014C0000F931F93CF93DF936B017C018A01590126
:1014D0000E94410A90E0A0E0B0E0C816D906EA06F2
:1014E000FB06F8F48091E00190E0C80ED91E8FE071
:1014F000C822DD2487E08C9DF0018D9DF00D112424
:10150000ED51FE4F81819281A381B481E8018883EE
:101510009983AA83BB838581F501808381E090E074
:1015200002C080E090E0DF91CF911F910F91FF907A
:10153000EF90DF90CF90BF90AF9008950C94070686
:101540000F931F930E944306009108031091090313
:1015500020910A0330910B03600F711F821F931FAC
:101560001F910F9108959C0160E971E00E94E313BF
:10157000892B79F0C90183709927892B61F4C901FE
:1015800064E670E00E94E3139C0181E0232B21F4C8
:1015900002C081E0089580E008952F923F924F921B
:1015A0005F926F927F928F929F92AF92BF92CF92F3
:1015B000DF92EF92FF920F931F93CF93DF93CDB7FC
:1015C000DEB767970FB6F894DEBF0FBECDBF2CE035
:1015D000EBEAF1E0AE014F5F5F4F1A01DA010190D3
:1015E0000D922A95E1F7DC012C91220F2056322F23
:1015F000330F330F230F11963C9111973153230F63
:101600002D8713962C911397022E000C330B205329
:1016100031096AE0629FA001639F500D1124149666
:10162000CC900C2C000CDD08B0E3CB1AD108C40E12
:10163000D51E860101501109FC012681022E000CE5
:10164000330B20533109E8EEF3E02E9FA0012F9FCA
:10165000500D3E9F500D1124DC0117962C911797C9
:10166000022E000C330B2053310974E6729F700177
:10167000739FF00C1124E40EF51E18964C911897E8
:10168000042E000C550B40535109649F9001659F37
:10169000300D1124E20EF31E19962C911997F701C3
:1016A000E20FF11D27FDFA95AF0158507A011B9604
:1016B0002C911B97220F2056322F330F330F230FFD
:1016C0001C963C911C973053230F298B1E962C910E
:1016D0001E97220F2056322F330F330F230F1F96E2
:1016E0003C911F973053230F2A8B51962C91519781
:1016F000220F2056322F330F330F230F52968C9127
:101700008053280F2B8BCA010E94B30A882321F033
:101710005D85523008F08601C70160E971E00E94E2
:10172000E313FC01DB0120E839E540E650EF0E94BD
:101730005B142B013C01CF0164E670E00E94E313CF
:10174000FC01DB0120E032EC47E15CEB0E945B1422
:101750004B015C01DF01B695A795B695A79520E8EA
:101760003FE146E857E00E945B146B017C01DF011A
:10177000A370BB2720E833E341EE51E00E945B14E5
:101780006C8B7D8B8E8B9F8BF1018E2F82199D85AB
:10179000891720F48191080F111DF7CFA9892A2FED
:1017A00030E0A0E1BEE00E944C146D877E878F87F9
:1017B000988BBA892B2F30E0ACE3B0E00E944C1438
:1017C0002D853E854F855889260F371F481F591F85
:1017D000DA01C9013B89830F911DA11DB11D480E7E
:1017E000591E6A1E7B1E840C951CA61CB71CC80CB7
:1017F000D91CEA1CFB1C8C899D89AE89BF89C80E47
:10180000D91EEA1EFB1ED80120E831E541E050E078
:101810000E945B14DC01CB018C0D9D1DAE1DBF1D14
:101820008093080390930903A0930A03B0930B03DA
:1018300067960FB6F894DEBF0FBECDBFDF91CF9194
:101840001F910F91FF90EF90DF90CF90BF90AF90DE
:101850009F908F907F906F905F904F903F902F90D0
:101860000C948506EF92FF920F931F93CF93DF9313
:10187000CDB7DEB768970FB6F894DEBF0FBECDBF09
:101880007B012CE0EBEAF1E0DE011D9601900D9268
:101890002A95E1F78E010F5F1F4F2CE0F80111929E
:1018A0002A95E9F70E94B30A8A83DE011D9680E03B
:1018B000F701408151819D91F80121918F0130E024
:1018C000290F311D4217530740F0421B530BF701FC
:1018D000518340838F5F8C3059F768960FB6F89428
:1018E000DEBF0FBECDBFDF91CF911F910F91FF9053
:1018F000EF9008954F925F926F927F928F929F9296
:10190000AF92BF92CF92DF92EF92FF92CF93DF938D
:1019100000D0CDB7DEB72B013C0181E090E0A0E024
:10192000B0E020E8421629E5520620E6620620EFE4
:10193000720618F480E090E0DC0120E931E0829F3B
:101940005001839FB00C929FB00C112480E3A81A21
:1019500088EFB80AC12CD12C7601C39420E8421636
:1019600029E5520620E6620620EF720618F4C12C23
:10197000D12C7601A701960160E879E580E690EF29
:101980000E94D31373016201C61AD70AE80AF90A42
:1019900081E090E0A0E0B0E0C11422ECD20627E1A3
:1019A000E2062CEBF20618F480E090E0DC0144E65D
:1019B000489F9001499F300D1124A20EB31E21E0D3
:1019C00030E040E050E0C11482ECD80687E1E80640
:1019D0008CEBF80618F420E030E0A90160E072EC2E
:1019E00087E19CEB0E94D313A7019601261B370BBE
:1019F000480B590BCA01B90120E83FE146E857E01E
:101A00000E940B14220F331F220F331FA20EB31E8E
:101A100020E833E341EE51E00E940B147501E20E21
:101A2000F31E20E831E541E050E00E940B144B0129
:101A30005C013A832983BE016F5F7F4FC7010E941B
:101A4000320CD82EC501B40120E13EE040E050E068
:101A50000E940B1429013A014B015C0167EB71E014
:101A600089E491E00E94910D6D2D70E06F5F7F4FD2
:101A700042E089E491E00E949B0D69817A816F5F69
:101A80007F4F42E08CE491E00E949B0D44E0B7015F
:101A90008FE491E00E949B0D42E0B20184E591E069
:101AA0000E949B0DC501B4012CE330E040E050E002
:101AB0000E940B1449015A016B017C0142E0B40100
:101AC00087E591E00E949B0D42E0B6018AE591E036
:101AD0000E949B0D89E491E00F900F90DF91CF91D0
:101AE000FF90EF90DF90CF90BF90AF909F908F903E
:101AF0007F906F905F904F9008950F931F930E9477
:101B00004306009108031091090320910A033091C4
:101B10000B03600F711F821F931F1F910F910C9475
:101B20007A0CFC01DB018D91BD01882311F08193BA
:101B3000F9CF108208959F92AF92BF92CF92DF9219
:101B4000EF92FF920F931F93CF93DF9300D000D0BB
:101B50001F92CDB7DEB7FC016B019E012F5F3F4F97
:101B60008E010A5F1F4FEE24E394F12C9AE0992E28
:101B70009E9C50019F9CB00C1124C601B5010E948F
:101B8000E313B7010E94E313D9016D939D01C61AB7
:101B9000D10867FDD3947501A017B10749F760E03C
:101BA00070E084E090E050E0D8012E918D01211189
:101BB00005C06115710511F4009741F4841795076C
:101BC0002CF4205D219361E070E004C08417950738
:101BD0000CF43196019740F70F900F900F900F90F3
:101BE0000F90DF91CF911F910F91FF90EF90DF90B9
:101BF000CF90BF90AF909F9008950E94910F7894DE
:101C000008950C942910CF93DF93EC0189918823D8
:101C100019F00E942910FACFDF91CF910895CF9348
:101C2000C82F90E024E0959587952A95E1F78A30B2
:101C300010F4805D01C0895C0E9429108C2F8F7088
:101C40008A3010F0895C01C0805DCF910C9429101E
:101C5000CF93C82F892F0E940F0E8C2FCF910C94F9
:101C60000F0E2F923F924F925F926F927F928F92C0
:101C70009F92AF92BF92CF92DF92EF92FF920F931B
:101C80001F93CF93DF93CDB7DEB763970FB6F8946A
:101C9000DEBF0FBECDBF6B017C0197FF0DC0F0947E
:101CA000E094D094C094C11CD11CE11CF11C81E0D3
:101CB00090E09B8B8A8B02C01B8A1A8AFE013196A8
:101CC0005F018E01055F1F4FF98BE88B66246394DB
:101CD000712C812C912CAAE0B0E09301A4010E9408
:101CE0005B141B012C01C701B6019101A2010E94E6
:101CF0002D149301A4010E942D14E889F9892193E0
:101D0000F98BE88B822F220F990BAA0BBB0BC81AF9
:101D1000D90AEA0AFB0A310142010E171F07D9F658
:101D20008A899B89892B11F08DE201C080E20E9493
:101D3000291020E030E0F80182918F01811106C066
:101D40002115310519F4EA15FB0529F4805D0E947F
:101D5000291021E030E00A151B0569F763960FB6DC
:101D6000F894DEBF0FBECDBFDF91CF911F910F91D1
:101D7000FF90EF90DF90CF90BF90AF909F908F90AB
:101D80007F906F905F904F903F902F9008952F928B
:101D90003F924F925F926F927F928F929F92AF92FB
:101DA000BF92CF92DF92EF92FF920F931F93CF9348
:101DB000DF93CDB7DEB764970FB6F894DEBF0FBEE2
:101DC000CDBF8C016115710509F492C0812C912C55
:101DD0005401CB01A0E0B0E0898B9A8BAB8BBC8B1C
:101DE000DE0111961D0189899A89AB89BC89881603
:101DF0009906AA06BB0608F07BC0812F0E940F0E31
:101E0000802F807F0E940F0E80E20E94010E6101F0
:101E10007801412C512C320141E0B601C7010E94EA
:101E2000AD03BFEFEB1AFB0AEFEF4E1A5E0A6E0A24
:101E30007E0AFFEF8F1A9F0AAF0ABF0A89899A8923
:101E4000AB89BC8988169906AA06BB0650F06801C2
:101E50009FE0C922DD2400E010E032016C0C7D1C03
:101E600009C0AFEFCA1ADA0AC7018F709927892B08
:101E700099F6EDCF0C151D0518F00615170528F07D
:101E80008BEC91E00E94030E0BC0F801EC19FD09E8
:101E9000E20DF31D80810E940F0E80E20E94010E70
:101EA0000F5F1F4F0031110529F700E010E0C01649
:101EB000D10631F080E20E94010E0F5F1F4FF7CF75
:101EC0008101C801821993098415950558F4F80118
:101ED00081918F0190EE980F903608F08EE20E946B
:101EE000010EEFCF8FEC91E00E94030E87017BCFB4
:101EF00064960FB6F894DEBF0FBECDBFDF91CF91D1
:101F00001F910F91FF90EF90DF90CF90BF90AF9017
:101F10009F908F907F906F905F904F903F902F9009
:101F200008951092C00087E690E09093C5008093DA
:101F3000C400E1ECF0E088E1808386E08093C20099
:101F40008081806A808308951F920F920FB60F924E
:101F500011242F938F939F93EF93FF9380916502AA
:101F60002091660290E0821B910901978F73992757
:101F7000892B79F0E0916602F0E08091C600E45F81
:101F8000FC4F8083809166028F5F8F73809366021F
:101F900002C08091C600FF91EF919F918F912F9188
:101FA0000F900FBE0F901F9018951F920F920FB6B3
:101FB0000F9211242F938F939F93EF93FF93809110
:101FC00064022091630290E0821B91098F7399272C
:101FD000892B79F0E0916302F0E0E45BFC4F8081B3
:101FE0008093C600809163028F5F8F73809363023A
:101FF00005C08091C1008F7D8093C100FF91EF915A
:102000009F918F912F910F900FBE0F901F90189559
:102010008091660290916502891B8F73089580916B
:1020200066022091650290E0821B91098F739927C7
:10203000892B69F0E0916502F0E0E45FFC4F80815C
:10204000909165029F5F9F7390936502089580E071
:1020500008950FB607FE0EC02091630290916402AE
:1020600030E0291B3109215031092F733327232BED
:1020700099F30DC0209163029091640230E0291B16
:102080003109215031092F733327232B61F0E0915F
:102090006402F0E0E45BFC4F8083809164028F5F18
:1020A0008F73809364028091C10080628093C1002D
:1020B00008951F93CF93DF93EC0180E011E0180F98
:1020C000FE01E80FF11D8081882321F00E94291074
:1020D000812FF4CFDF91CF911F9108951F93CF935C
:1020E000DF93EC0180E011E0180FFE01E80FF11D15
:1020F0008491882321F00E942910812FF4CFDF9151
:10210000CF911F910895CF93DF9300D0CDB7DEB765
:1021100080916F02882389F58AEF90E09A83898302
:1021200087E490E029812150FC01208384E490E041
:1021300024E430E0F90120812260FC01208385E461
:1021400090E025E430E0F90120812360FC01208348
:102150008FE590E02FE530E0F90120812068FC0157
:1021600020838EE690E02EE630E0F90120812260A7
:10217000FC01208381E080936F0200000F900F909C
:10218000DF91CF910895CF93DF9300D000D000D09E
:10219000CDB7DEB79E838D838FE590E0FC01808113
:1021A000082E000C990B807899279A8389838FE5F4
:1021B00090E02FE530E0F90120812F77FC012083AA
:1021C0008D819E81880F991F89599D4FFC018081C7
:1021D00091819C838B8389819A81892B49F08FE53A
:1021E00090E02FE530E0F90120812068FC01208398
:1021F0008B819C8126960FB6F894DEBF0FBECDBFB3
:10220000DF91CF910895CF93DF9300D000D000D01D
:10221000CDB7DEB79C838B837E836D8380916F0205
:10222000882311F40E9483108FE590E0FC018081E7
:10223000082E000C990B807899279A8389838FE563
:1022400090E02FE530E0F90120812F77FC01208319
:102250008B819C81880F991F85599D4F2D813E81CF
:10226000FC01318320838B819C81880F991F8959C0
:102270009D4FFC011182108289819A81892B49F03E
:102280008FE590E02FE530E0F90120812068FC0126
:102290002083000026960FB6F894DEBF0FBECDBF98
:1022A000DF91CF910895CF93DF9300D000D0CDB7C9
:1022B000DEB79C838B831A8219828B819C81880F65
:1022C000991F89599D4FFC01208131818B819C810F
:1022D000880F991F85599D4FFC018081918141E0B4
:1022E0002817390709F040E0442321F081E090E00D
:1022F0009A83898389819A810F900F900F900F9014
:10230000DF91CF9108951F920F9200905F000F927E
:1023100011242F933F934F938F939F93EF93FF93AA
:10232000CF93DF9300D0CDB7DEB71A82198222E0B7
:1023300030E089819A8182179307A0F589819A817B
:10234000880F991F89599D4FFC0120813181898116
:102350009A81880F991F85599D4FFC018081918139
:1023600041E02817390708F040E04423A9F08981AB
:102370009A81880F991F89599D4FFC018081918115
:102380009C012F5F3F4F89819A81880F991F89593E
:102390009D4FFC013183208389819A8101969A8324
:1023A0008983C5CF00000F900F90DF91CF91FF91EF
:1023B000EF919F918F914F913F912F910F900092AC
:1023C0005F000F901F901895CF93DF93CDB7DEB7C6
:1023D00084E290E024E230E0F90120812260FC01F7
:1023E000208385E290E025E230E0F90120812D7F15
:1023F000FC0120830000DF91CF910895CF93DF93FC
:10240000CDB7DEB785E290E025E230E0F90120812A
:102410002260FC0120830000DF91CF910895CF93CB
:10242000DF93CDB7DEB785E290E025E230E0F90139
:1024300020812D7FFC0120830000DF91CF91089542
:10244000CF93DF93CDB7DEB785E290E0FC018081CA
:10245000882F90E082709927892B19F081E090E015
:1024600002C080E090E0DF91CF910895CF93DF9399
:1024700000D0CDB7DEB79A83898389819A81909302
:102480007102809370021092730210927202109285
:1024900075021092740260E070E080E090E00E94AB
:1024A00003110E940F1200000F900F90DF91CF9147
:1024B0000895CF93DF93CDB7DEB7809174029091EA
:1024C0007502009721F0019709F455C089C080E09A
:1024D00090E00E94531121E0892B09F420E022238F
:1024E00009F47BC0209170023091710280917202D8
:1024F00090917302820F931FFC018081082E000CC3
:10250000990B8D32910531F08E32910591F08097C3
:10251000F9F027C00E94FE116EEE72E080E090E0BC
:102520000E94031181E090E0909375028093740201
:1025300021C00E94FE116AEF70E080E090E00E94EE
:10254000031181E090E0909375028093740212C0B1
:102550000E940F1268EE73E080E090E00E94031189
:1025600009C00E940F1260E070E080E090E00E94DD
:102570000311000032C080E090E00E94531121E07E
:10258000892B09F420E0222351F10E940F1264E606
:1025900070E080E090E00E940311809172029091BF
:1025A000730201969093730280937202809170027D
:1025B000909171020E9466149C0180917202909128
:1025C00073028217930720F0109273021092720226
:1025D000109275021092740202C0000001C0000047
:1025E0000000DF91CF910895CF93DF9300D0CDB756
:1025F000DEB789E09DE39A83898381E890E021E852
:1026000030E0F90120812860FC01208381E890E01E
:1026100021E830E0F90120812560FC01208388E871
:1026200090E029813A8121503109FC0131832083D6
:102630008FE690E02FE630E0F90120812260FC0176
:1026400020838FE590E02FE530E0F90120812068BC
:10265000FC01208300000F900F90DF91CF9108952F
:10266000CF93DF9300D000D000D0CDB7DEB78FE599
:1026700090E0FC018081882F90E0807899279A83F0
:1026800089838FE590E02FE530E0F90120812F77F5
:10269000FC0120838091760290917702A0917802CC
:1026A000B09179028B839C83AD83BE8389819A81AB
:1026B000892B49F08FE590E02FE530E0F90120818A
:1026C0002068FC0120838B819C81AD81BE81BC018F
:1026D000CD0126960FB6F894DEBF0FBECDBFDF91B9
:1026E000CF910895CF93DF9300D0CDB7DEB78FE5BC
:1026F00090E0FC018081882F90E0807899279A8370
:1027000089838FE590E02FE530E0F90120812F7774
:10271000FC012083109276021092770210927802C8
:102720001092790289819A81892B49F08FE590E096
:102730002FE530E0F90120812068FC0120830000B2
:102740000F900F90DF91CF9108951F920F920090FC
:102750005F000F9211248F939F93AF93BF93CF93FA
:10276000DF93CDB7DEB78091760290917702A0918A
:102770007802B09179020196A11DB11D8093760275
:1027800090937702A0937802B09379020000DF91D2
:10279000CF91BF91AF919F918F910F9000925F0069
:1027A0000F901F901895DB018F939F930E945B14ED
:1027B000BF91AF91A29F800D911DA39F900DB29FDD
:1027C000900D11240895AA1BBB1B51E107C0AA1F3D
:1027D000BB1FA617B70710F0A61BB70B881F991FC2
:1027E0005A95A9F780959095BC01CD01089597FB66
:1027F000072E16F4009407D077FD09D00E94E3134A
:1028000007FC05D03EF4909581959F4F08957095F3
:1028100061957F4F0895A1E21A2EAA1BBB1BFD01F3
:102820000DC0AA1FBB1FEE1FFF1FA217B307E407AF
:10283000F50720F0A21BB30BE40BF50B661F771F07
:10284000881F991F1A9469F76095709580959095E7
:102850009B01AC01BD01CF010895052E97FB1EF42D
:1028600000940E94441457FD07D00E940B1407FCEB
:1028700003D04EF40C944414509540953095219516
:102880003F4F4F4F5F4F089590958095709561959C
:102890007F4F8F4F9F4F0895A29FB001B39FC001FC
:1028A000A39F700D811D1124911DB29F700D811D7C
:1028B0001124911D08950E944C14A59F900DB49F62
:1028C000900DA49F800D911D11240895FC0101908D
:1028D0000020E9F7809590958E0F9F1F0895F8943A
:0228E000FFCF28
:1028E200030B443100802500002D00040B4430000E
:1028F200802500002D0002060024F400010C617402
:082902006D6567613332380096
:10290A0041535500FF03FE030000010000C0A80167
:10291A006400534552004D616E69736800000000FF
:10292A0000004D616E690000000000000000616255
:10293A0063643132333400000000000000004C416F
:10294A004E4D414E555341000030302F30302F301C
:10295A003030302030303A30303A3030002D0030CC
:10296A00312F30312F323031392030303A30303A4D
:10297A00303000534552203438362050726F6A6521
:10298A0063742032202D204D616E697368204D7961
:10299A00736F72652052616A6573682047616E675A
:1029AA0061646861720A0D000A0D001F1C1F1E1F58
:1029BA001E1F1F1E1F1E1F30302F30302F30303089
:1029CA00302030303A30303A303000202020000DAC
:0229DA000A00F1
:00000001FF
