:100000000C9434000C9451000C9451000C94510049
:100010000C9451000C9451000C9451000C9451001C
:100020000C9451000C9451000C9451000C94A106B6
:100030000C9451000C9451000C94AB020C945100A0
:100040000C9451000C9451000C946F0F0C94A00F61
:100050000C9451000C9451000C94DA030C94510050
:100060000C9451000C94510011241FBECFEFD8E026
:10007000DEBFCDBF11E0A0E0B1E0E2EBF8E202C0EC
:1000800005900D92AC3DB107D9F723E0ACEDB1E09E
:1000900001C01D92A739B207E1F70E948E050C94AA
:1000A00043140C940000EF92FF920F931F93CF9391
:1000B000DF93CDB7DEB728970FB6F894DEBF0FBE3B
:1000C000CDBF0DB71EB700000E940803892BE1F7D2
:1000D00080E490E09A83898383E190E09C838B8322
:1000E0008B819C812DB73EB779019C01215031094C
:1000F0003E832D832DB73EB7281B390B0FB6F894DE
:100100003EBF0FBE2DBF8DB79EB7019698878F83D8
:100110004B812F81388589819A81B9010E9485039D
:100120002B813C818F819885A901BC0185E892E0F3
:100130000E9431140E94CC00892BB1F40E9450011E
:100140004B812F81388589819A81B9010E9485036D
:100150002B813C818F819885A901BC0185E892E0C3
:100160000E943114109284020FB6F894FEBE0FBEA6
:10017000EDBE00000FB6F8941EBF0FBE0DBF28964F
:100180000FB6F894DEBF0FBECDBFDF91CF911F91A8
:100190000F91FF90EF900895CF93DF93CDB7DEB727
:1001A00085E892E08E55914059F462E170E085E86F
:1001B00092E00E943A07892B19F081E090E002C09A
:1001C00080E090E0DF91CF910895CF93DF93CDB79A
:1001D000DEB781E0809384020000DF91CF91089523
:1001E000EF92FF920F931F93CF93DF93CDB7DEB7BC
:1001F00028970FB6F894DEBF0FBECDBF0DB71EB760
:100200000E940803892BC9F5809184028823A9F1F3
:100210008DB79EB77C0162E170E085E892E00E94B4
:10022000100780E490E09A83898383E190E09C83C7
:100230008B838B819C819C01215031093E832D83CE
:100240002DB73EB7281B390B0FB6F8943EBF0FBE33
:100250002DBF8DB79EB7019698878F834B812F81D5
:10026000388589819A81B9010E941703109284020E
:100270000FB6F894FEBE0FBEEDBE00000FB6F894A8
:100280001EBF0FBE0DBF28960FB6F894DEBF0FBE7F
:10029000CDBFDF91CF911F910F91FF90EF90089507
:1002A000EF92FF920F931F93CF93DF93CDB7DEB7FB
:1002B00028970FB6F894DEBF0FBECDBF0DB71EB79F
:1002C0008DB79EB77C0162E170E085E892E00E9404
:1002D000100780E490E09A83898382E190E09C8318
:1002E0008B838B819C819C01215031093E832D831E
:1002F0002DB73EB7281B390B0FB6F8943EBF0FBE83
:100300002DBF8DB79EB7019698878F832B813C8137
:100310008F819885A90160E071E00E9431144B81C2
:100320002F81388589819A81B9010E9417030FB600
:10033000F894FEBE0FBEEDBE00000FB6F8941EBFCF
:100340000FBE0DBF28960FB6F894DEBF0FBECDBF0F
:10035000DF91CF911F910F91FF90EF900895CF9370
:10036000DF9300D0CDB7DEB78091E401882389F513
:100370008AEF90E09A83898387E490E02981215075
:10038000FC01208384E490E024E430E0F901208142
:100390002260FC01208385E490E025E430E0F9014F
:1003A00020812360FC0120838FE590E02FE530E081
:1003B000F90120812068FC0120838EE690E02EE682
:1003C00030E0F90120812260FC01208381E08093EC
:1003D000E40100000F900F90DF91CF910895CF932B
:1003E000DF9300D000D000D0CDB7DEB79E838D83E1
:1003F0008FE590E0FC018081082E000C990B80783D
:1004000099279A8389838FE590E02FE530E0F90101
:1004100020812F77FC0120838D819E81880F991F79
:1004200084529E4FFC01808191819C838B838981C2
:100430009A81892B49F08FE590E02FE530E0F901B2
:1004400020812068FC0120838B819C8126960FB639
:10045000F894DEBF0FBECDBFDF91CF910895CF934B
:10046000DF9300D000D000D0CDB7DEB79C838B8364
:100470007E836D838091E401882311F40E94AF0193
:100480008FE590E0FC018081082E000C990B8078AC
:1004900099279A8389838FE590E02FE530E0F90171
:1004A00020812F77FC0120838B819C81880F991FED
:1004B00080529E4F2D813E81FC01318320838B81B0
:1004C0009C81880F991F84529E4FFC0111821082DB
:1004D00089819A81892B49F08FE590E02FE530E002
:1004E000F90120812068FC012083000026960FB6C8
:1004F000F894DEBF0FBECDBFDF91CF910895CF93AB
:10050000DF9300D000D0CDB7DEB79C838B831A82F7
:1005100019828B819C81880F991F84529E4FFC0108
:10052000208131818B819C81880F991F80529E4F41
:10053000FC01808191812817390721F481E090E046
:100540009A83898389819A810F900F900F900F90E1
:10055000DF91CF9108951F920F9200905F000F924C
:1005600011242F933F938F939F93EF93FF93CF93F8
:10057000DF9300D0CDB7DEB71A8219822FC08981F0
:100580009A81880F991F84529E4FFC0120813181EE
:1005900089819A81880F991F80529E4FFC0180812A
:1005A000918128173907A8F489819A81880F991FAA
:1005B00084529E4FFC01808191819C012F5F3F4FAF
:1005C00089819A81880F991F84529E4FFC01318343
:1005D000208389819A8101969A83898389819A816E
:1005E000029768F200000F900F90DF91CF91FF917A
:1005F000EF919F918F913F912F910F9000925F000B
:100600000F901F901895FA9AF99A0895F89A0895FC
:10061000CF93DF93CDB7DEB79091E50181E09130C4
:1006200009F080E0882F90E0DF91CF910895CF937B
:10063000DF93CDB7DEB727970FB6F894DEBF0FBEB6
:10064000CDBF9C838B837E836D834F838B819C8105
:10065000909398028093970281E08093E501109235
:10066000DA021A82198213C089819A812D813E8112
:10067000820F931FFC01208189819A8186569D4FAC
:10068000FC01208389819A8101969A8389838F81D5
:10069000282F30E089819A81821793072CF38F816C
:1006A000809399028FE390E02FE330E0F9012081FD
:1006B0002062FC0120838FE390E02FE330E0F9011A
:1006C00020812F7EFC0120838FE590E02FE530E034
:1006D000F90120812068FC0120838FE390E02FE363
:1006E00030E0F90120812860FC0120830000809126
:1006F000E5018823E1F7000027960FB6F894DEBFE6
:100700000FBECDBFDF91CF910895CF93DF93CDB7CB
:10071000DEB729970FB6F894DEBF0FBECDBF9E831C
:100720008D8378876F8349878D819E819A838983A2
:100730001C821B822DC000008FE390E0FC018081B1
:10074000082E000C990B82709927892BA9F781E458
:1007500090E029813A81FC01318320830E940603C5
:1007600000C000C08B819C812F813885820F931F30
:1007700020E430E0F9012081FC01208389819A8105
:1007800001969A8389838B819C8101969C838B83BC
:100790008985282F30E08B819C81821793075CF23A
:1007A000000029960FB6F894DEBF0FBECDBFDF91D3
:1007B000CF9108951F920F9200905F000F92112425
:1007C0002F933F934F935F936F937F938F939F9359
:1007D000AF93BF93EF93FF93CF93DF93CDB7DEB784
:1007E0009091DA0280919902981708F059C08FE52C
:1007F00090E02FE530E0F90120812F77FC01208384
:1008000000008FE390E0FC018081082E000C990B22
:1008100082709927892BA9F70E94030381E490E055
:100820002091970230919802FC013183208380E46B
:1008300090E02091DA02222F30E026563D4FF90158
:100840002081FC012083809197029091980201966B
:1008500090939802809397028091DA028F5F809341
:10086000DA028FE590E02FE530E0F9012081206881
:10087000FC0120838FE390E02FE330E0F901208139
:100880002860FC01208300008FE390E0FC01808160
:10089000082E000C990B82709927892BA9F711C09B
:1008A0009091DA0280919902981758F08FE390E0C6
:1008B0002FE330E0F9012081277FFC012083109293
:1008C000E5010000DF91CF91FF91EF91BF91AF91D2
:1008D0009F918F917F916F915F914F913F912F9158
:1008E0000F9000925F000F901F901895CF93DF93A9
:1008F000CDB7DEB78FE390E02FE330E0F901208140
:100900002062FC0120830000DF91CF910895CF93F6
:10091000DF93CDB7DEB784E290E024E230E0F90166
:1009200020812260FC01208385E290E025E230E016
:10093000F90120812D7FFC0120830000DF91CF9100
:100940000895CF93DF93CDB7DEB785E290E025E23F
:1009500030E0F90120812260FC0120830000DF915A
:10096000CF910895CF93DF93CDB7DEB785E290E0C6
:1009700025E230E0F90120812D7FFC012083000079
:10098000DF91CF910895CF93DF93CDB7DEB785E2A6
:1009900090E0FC018081882F90E08270992721E00F
:1009A000892B09F420E0822F90E0DF91CF91089508
:1009B000CF93DF9300D0CDB7DEB79A838983898147
:1009C0009A8190937B0280937A0210927D0210921A
:1009D0007C0210927F0210927E0260E070E080E064
:1009E00090E00E942F020E94B20400000F900F902E
:1009F000DF91CF910895CF93DF93CDB7DEB780918C
:100A00007E0290917F02009721F0019709F451C076
:100A100081C080E090E00E947F02892B09F477C0BA
:100A200020917A0230917B0280917C0290917D022C
:100A3000820F931FFC018081082E000C990B8D32D0
:100A4000910531F08E32910591F08097F9F027C031
:100A50000E94A1046EEE72E080E090E00E942F02FE
:100A600081E090E090937F0280937E0221C00E94FB
:100A7000A1046AEF70E080E090E00E942F0281E024
:100A800090E090937F0280937E0212C00E94B20495
:100A900068EE73E080E090E00E942F0209C00E949F
:100AA000B20460E070E080E090E00E942F0200005D
:100AB0002EC080E090E00E947F02892B51F10E94BD
:100AC000B20464E670E080E090E00E942F02809122
:100AD0007C0290917D02019690937D0280937C022E
:100AE00080917A0290917B020E943A149C0180913D
:100AF0007C0290917D028217930720F010927D0274
:100B000010927C0210927F0210927E0202C00000BE
:100B100001C000000000DF91CF910895CF93DF93D3
:100B200000D0CDB7DEB70E94C80D0E9453000E94CE
:100B300087040E94A3080E94690A0E945D070E9420
:100B4000AF0182E691E00E94D80484E691E00E9421
:100B5000980A88E791E00E94CE0D80EE92E00E9414
:100B6000CE0D8DEA91E00E94CE0D8CEE92E00E94B7
:100B7000CE0D8DEA91E00E94CE0D8BED92E00E94A9
:100B8000CE0D8DEA91E00E94CE0D81E0809391021E
:100B90000E94E5000E94EF098AEA0E949E098BEB01
:100BA0000E949E098CEC0E949E091A8219820E9462
:100BB000FB040E9468090E94F0000E940803892B30
:100BC000B1F789819A81892B91F760E071E080E02B
:100BD00090E00E94920E81E090E09A838983E7CFB3
:100BE000CF93DF9300D0CDB7DEB789E09DE39A8342
:100BF000898381E890E021E830E0F90120812860D4
:100C0000FC01208381E890E021E830E0F9012081B7
:100C10002560FC01208388E890E029813A812150F9
:100C20003109FC01318320838FE690E02FE630E02C
:100C3000F90120812260FC0120838FE590E02FE5FF
:100C400030E0F90120812068FC01208300000F9032
:100C50000F90DF91CF910895CF93DF9300D000D014
:100C600000D0CDB7DEB78FE590E0FC018081882F02
:100C700090E0807899279A8389838FE590E02FE52B
:100C800030E0F90120812F77FC0120838091E6017B
:100C90009091E701A091E801B091E9018B839C83D9
:100CA000AD83BE8389819A81892B49F08FE590E0DD
:100CB0002FE530E0F90120812068FC0120838B8141
:100CC0009C81AD81BE81BC01CD0126960FB6F89402
:100CD000DEBF0FBECDBFDF91CF910895CF93DF93DD
:100CE00000D0CDB7DEB78FE590E0FC018081882F82
:100CF00090E0807899279A8389838FE590E02FE5AB
:100D000030E0F90120812F77FC0120831092E60169
:100D10001092E7011092E8011092E90189819A810D
:100D2000892B49F08FE590E02FE530E0F901208133
:100D30002068FC01208300000F900F90DF91CF917D
:100D400008951F920F9200905F000F9211248F93CD
:100D50009F93AF93BF93CF93DF93CDB7DEB78091CF
:100D6000E6019091E701A091E801B091E9010196B7
:100D7000A11DB11D8093E6019093E701A093E801C6
:100D8000B093E9010000DF91CF91BF91AF919F91A6
:100D90008F910F9000925F000F901F901895CF9346
:100DA000DF93CDB7DEB727970FB6F894DEBF0FBE3F
:100DB000CDBF9D838C837F836E831B821A821EC06E
:100DC0008A819B812C813D81820F931FFC01808150
:100DD0009981890F89838FE590E0FC018081082E3D
:100DE000000C990B81709927892B19F089818F5FED
:100DF00089838A819B8101969B838A832A813B8197
:100E00008E819F8128173907D8F28981809527968E
:100E10000FB6F894DEBF0FBECDBFDF91CF9108951E
:100E2000CF93DF9300D000D000D0CDB7DEB79C8346
:100E30008B837E836D832D813E818B819C81B90163
:100E40000E94CF068983898180958A838D819E81C6
:100E500001972B813C81820F931F2A81FC01208303
:100E6000000026960FB6F894DEBF0FBECDBFDF910F
:100E7000CF910895CF93DF9300D000D01F92CDB7CC
:100E8000DEB79B838A837D836C832C813D818A813D
:100E90009B81B9010E94CF0689838981882319F437
:100EA00081E090E002C080E090E00F900F900F9002
:100EB0000F900F90DF91CF910895EF92FF920F93D3
:100EC0001F93CF93DF93CDB7DEB72C970FB6F8946F
:100ED000DEBF0FBECDBF0DB71EB700000E940803D6
:100EE000892BE1F71C821B8288E390E09E838D832F
:100EF0008D819E810A962DB73EB779019C012150C4
:100F0000310938872F832DB73EB7281B390B0FB611
:100F1000F8943EBF0FBE2DBF8DB79EB701969A873E
:100F200089878BED92E09C878B874D8129853A8557
:100F30008B819C81B9010E9485031A82198215C098
:100F400089819A812B853C85820F931F49855A851B
:100F500029813A81240F351FF9012081FC0120836A
:100F600089819A8101969A83898329813A818D8129
:100F70009E812817390724F30E94EC07892BA1F4DE
:100F80000E9405084D8129853A858B819C81B90194
:100F90000E9485032D813E8189859A85A901BC0126
:100FA0008BED92E00E9431140FB6F894FEBE0FBE96
:100FB000EDBE00000FB6F8941EBF0FBE0DBF2C96FD
:100FC0000FB6F894DEBF0FBECDBFDF91CF911F915A
:100FD0000F91FF90EF900895CF93DF93CDB7DEB7D9
:100FE0008BED92E0805B914059F468E370E08BED0B
:100FF00092E00E943A07892B19F081E090E002C04C
:1010000080E090E0DF91CF910895EF92FF920F93EF
:101010001F93CF93DF93CDB7DEB72C970FB6F8941D
:10102000DEBF0FBECDBF0DB71EB78DB79EB77C011B
:1010300068E370E08BED92E00E9410071C821B8237
:1010400088E390E09E838D838D819E810A969C012A
:101050002150310938872F832DB73EB7281B390B14
:101060000FB6F8943EBF0FBE2DBF8DB79EB7019649
:101070009A87898782E191E09C878B871A821982FF
:1010800015C089819A812B853C85820F931FFC01B5
:10109000408129853A8589819A81820F931FFC01BD
:1010A000408389819A8101969A83898329813A8133
:1010B0008D819E812817390724F34D8129853A8532
:1010C0008B819C81B9010E9417030FB6F894FEBE74
:1010D0000FBEEDBE00000FB6F8941EBF0FBE0DBFD1
:1010E0002C960FB6F894DEBF0FBECDBFDF91CF9127
:1010F0001F910F91FF90EF9008958031910504F5B5
:1011000027E0289FA001299F500D1124FA01E351E7
:10111000FE4F80818132A0F480E090E020E0FA016F
:10112000E80FF91FE351FE4F3081230F01968730FE
:101130009105A9F781E090E0222321F080E0089555
:1011400080E090E008956F927F928F929F92AF928D
:10115000BF92CF92DF92EF92FF920F931F93CF93A4
:10116000DF930E940803892BE1F70DE512E0C0E848
:10117000D0E0BE0163597E4F47E0CE010E94850357
:10118000F80111928F012796C03FD10591F74DEEDE
:10119000E42E41E0F42E8701C0E0D0E0D12CB12C48
:1011A00077247A94CE010E947D08892B41F0F801C2
:1011B0008081871520F4BC2E782EDD24D3942196CF
:1011C000095F1F4FC031D10569F7DD2009F46AC0FE
:1011D000B092EC017092EB01CB2DD0E08E010F5F4D
:1011E0001F4F872C2FE0A22E37E0932E6801FFE0DF
:1011F000CF22DD24C6010E947D08892B61F4B092C4
:10120000EA018E0101501109609780E1A82EB12CEE
:1012100097E0692E3AC09C9CF0019D9CF00D112432
:10122000E351FE4F4081242F30E0882D90E001965D
:101230008F7199272817390711F7C092EC01409355
:10124000EB01AA940F5F1F4FAA20C9F2842ECECFC4
:10125000F701208130E0872D90E04F968F7199271C
:101260002817390731F5C092EA01689CF001699CA2
:10127000F00D1124E351FE4F708001501109F7E089
:10128000EF0EF11C0C171D07A1F0C801B5010E945B
:10129000C2136C014C019924C4010E947D08892B62
:1012A000B9F607C08FE08093EC011092EB01109229
:1012B000EA01DF91CF911F910F91FF90EF90DF90A6
:1012C000CF90BF90AF909F908F907F906F90089538
:1012D000EF92FF921F93CF93DF930E940803892B15
:1012E00039F5EDE5F2E0C0E0D0E081918823E1F04E
:1012F00017E01C9FC0011D9F900D11249C012351DC
:101300003E4F790167E070E0C9010E941007C19F5C
:10131000C001112447E0B70180589F4F0E94170376
:10132000C35ADD4F188204C02196C031D105E9F6B9
:10133000DF91CF911F91FF90EF900895EF92FF9270
:101340000F931F93CF93DF93E82EC091EC01D0E071
:101350002196CF70DD278091EA0190E00E947D0800
:10136000F82E8091EB018F5F813218F48093EB01AE
:1013700002C01092EB0187E08C9F80018D9F100DC1
:10138000112403511E4F8091EB01F80180830E94CC
:101390006B0AF8016183728383839483E582C0932F
:1013A000EC0167E070E0C8010E941007C35ADD4FEE
:1013B00081E088838091EC019091EA01891308C053
:1013C000FF2031F090E001968F7099278093EA0119
:1013D000DF91CF911F910F91FF90EF900895EDEE67
:1013E000F1E0ADE5B2E08FEF4FEF5FEFBA0191E0D2
:1013F0008083858341835283638374839D9337966F
:1014000022E0ED35F207A1F78FE08093EC01109216
:10141000EA011092EB0108950F931F93CF93DF938E
:101420000091EA01C02F10E0D0E0CE010E947D08BB
:10143000892B29F02196CF701F5F0C13F5CF812FD8
:10144000DF91CF911F910F910895AF92BF92CF92EC
:10145000DF92EF92FF920F931F93CF93DF936B0175
:101460007C018A0159010E940C0A90E0A0E0B0E0E2
:10147000C816D906EA06FB06F8F48091EA0190E066
:10148000C80ED91E8FE0C822DD2487E08C9DF001B4
:101490008D9DF00D1124E351FE4F81819281A38136
:1014A000B481E80188839983AA83BB838581F50190
:1014B000808381E090E002C080E090E0DF91CF91F6
:1014C0001F910F91FF90EF90DF90CF90BF90AF9062
:1014D00008950C94F0050F931F930E942C06009121
:1014E0001303109114032091150330911603600F1C
:1014F000711F821F931F1F910F9108959C0160E936
:1015000071E00E94AE13892B79F0C901837099278D
:10151000892B61F4C90164E670E00E94AE139C015E
:1015200081E0232B21F402C081E0089580E008953A
:101530002F923F924F925F926F927F928F929F92E3
:10154000AF92BF92CF92DF92EF92FF920F931F93D1
:10155000CF93DF93CDB7DEB767970FB6F894DEBFB2
:101560000FBECDBF2CE0E4EBF1E0AE014F5F5F4F6B
:101570001A01DA0101900D922A95E1F7DC012C9114
:10158000220F2056322F330F330F230F11963C9129
:1015900011973153230F2D8713962C911397022EF9
:1015A000000C330B205331096AE0629FA001639F56
:1015B000500D11241496CC900C2C000CDD08B0E3D7
:1015C000CB1AD108C40ED51E860101501109FC01A9
:1015D0002681022E000C330B20533109E8EEF3E094
:1015E0002E9FA0012F9F500D3E9F500D1124DC0116
:1015F00017962C911797022E000C330B20533109AC
:1016000074E6729F7001739FF00C1124E40EF51EB6
:1016100018964C911897042E000C550B4053510905
:10162000649F9001659F300D1124E20EF31E199600
:101630002C911997F701E20FF11D27FDFA95AF01E3
:1016400058507A011B962C911B97220F2056322F4F
:10165000330F330F230F1C963C911C973053230FED
:10166000298B1E962C911E97220F2056322F330F56
:10167000330F230F1F963C911F973053230F2A8B54
:1016800051962C915197220F2056322F330F330F42
:10169000230F52968C918053280F2B8BCA010E94E6
:1016A0007E0A882321F05D85523008F08601C7014B
:1016B00060E971E00E94AE13FC01DB0120E839E52E
:1016C00040E650EF0E9426142B013C01CF0164E656
:1016D00070E00E94AE13FC01DB0120E032EC47E138
:1016E0005CEB0E9426144B015C01DF01B695A795C7
:1016F000B695A79520E83FE146E857E00E942614FA
:101700006B017C01DF01A370BB2720E833E341EECE
:1017100051E00E9426146C8B7D8B8E8B9F8BF10188
:101720008E2F82199D85891720F48191080F111D34
:10173000F7CFA9892A2F30E0A0E1BEE00E9417145C
:101740006D877E878F87988BBA892B2F30E0ACE32B
:10175000B0E00E9417142D853E854F855889260FCD
:10176000371F481F591FDA01C9013B89830F911D9B
:10177000A11DB11D480E591E6A1E7B1E840C951CAE
:10178000A61CB71CC80CD91CEA1CFB1C8C899D89A3
:10179000AE89BF89C80ED91EEA1EFB1ED80120E8FB
:1017A00031E541E050E00E942614DC01CB018C0DB4
:1017B0009D1DAE1DBF1D8093130390931403A09332
:1017C0001503B093160367960FB6F894DEBF0FBEED
:1017D000CDBFDF91CF911F910F91FF90EF90DF90E0
:1017E000CF90BF90AF909F908F907F906F905F90C1
:1017F0004F903F902F900C946E06EF92FF920F93B4
:101800001F93CF93DF93CDB7DEB768970FB6F894E9
:10181000DEBF0FBECDBF7B012CE0E4EBF1E0DE01CB
:101820001D9601900D922A95E1F78E010F5F1F4FD3
:101830002CE0F80111922A95E9F70E947E0A8A832A
:10184000DE011D9680E0F701408151819D91F801F4
:1018500021918F0130E0290F311D4217530740F0CD
:10186000421B530BF701518340838F5F8C3059F734
:1018700068960FB6F894DEBF0FBECDBFDF91CF9153
:101880001F910F91FF90EF9008954F925F926F928A
:101890007F928F929F92AF92BF92CF92DF92EF9200
:1018A000FF92CF93DF9300D0CDB7DEB72B013C0181
:1018B00081E090E0A0E0B0E020E8421629E5520681
:1018C00020E6620620EF720618F480E090E0DC016A
:1018D00020E931E0829F5001839FB00C929FB00CB1
:1018E000112480E3A81A88EFB80AC12CD12C760104
:1018F000C39420E8421629E5520620E6620620EF4E
:10190000720618F4C12CD12C7601A701960160E86B
:1019100079E580E690EF0E949E1373016201C61A7A
:10192000D70AE80AF90A81E090E0A0E0B0E0C1142B
:1019300022ECD20627E1E2062CEBF20618F480E056
:1019400090E0DC0144E6489F9001499F300D11244E
:10195000A20EB31E21E030E040E050E0C11482EC62
:10196000D80687E1E8068CEBF80618F420E030E0B2
:10197000A90160E072EC87E19CEB0E949E13A70135
:101980009601261B370B480B590BCA01B90120E8F9
:101990003FE146E857E00E94D613220F331F220F83
:1019A000331FA20EB31E20E833E341EE51E00E9444
:1019B000D6137501E20EF31E20E831E541E050E058
:1019C0000E94D6134B015C013A832983BE016F5FED
:1019D0007F4FC7010E94FD0BD82EC501B40120E145
:1019E0003EE040E050E00E94D61329013A014B014D
:1019F0005C0160EC71E08AE491E00E945C0D6D2D69
:101A000070E06F5F7F4F42E08AE491E00E94660DD4
:101A100069817A816F5F7F4F42E08DE491E00E949F
:101A2000660D44E0B70180E591E00E94660D42E05A
:101A3000B20185E591E00E94660DC501B4012CE379
:101A400030E040E050E00E94D61349015A016B019A
:101A50007C0142E0B40188E591E00E94660D42E01D
:101A6000B6018BE591E00E94660D8AE491E00F904B
:101A70000F90DF91CF91FF90EF90DF90CF90BF90CC
:101A8000AF909F908F907F906F905F904F90089550
:101A90000F931F930E942C060091130310911403BF
:101AA0002091150330911603600F711F821F931F41
:101AB0001F910F910C94450CFC01DB018D91BD0130
:101AC000882311F08193F9CF108208959F92AF92ED
:101AD000BF92CF92DF92EF92FF920F931F93CF931B
:101AE000DF9300D000D01F92CDB7DEB7FC016B01B1
:101AF0009E012F5F3F4F8E010A5F1F4FEE24E3943C
:101B0000F12C9AE0992E9E9C50019F9CB00C1124C0
:101B1000C601B5010E94AE13B7010E94AE13D901F0
:101B20006D939D01C61AD10867FDD3947501A01766
:101B3000B10749F760E070E084E090E050E0D80140
:101B40002E918D01211105C06115710511F40097C9
:101B500041F4841795072CF4205D219361E070E037
:101B600004C0841795070CF43196019740F70F9045
:101B70000F900F900F900F90DF91CF911F910F91C9
:101B8000FF90EF90DF90CF90BF90AF909F9008951F
:101B90000E945C0F789408950C94F40FCF93DF9318
:101BA000EC018991882319F00E94F40FFACFDF919C
:101BB000CF910895CF93C82F90E024E09595879515
:101BC0002A95E1F78A3010F4805D01C0895C0E949B
:101BD000F40F8C2F8F708A3010F0895C01C0805D0B
:101BE000CF910C94F40FCF93C82F892F0E94DA0D58
:101BF0008C2FCF910C94DA0D2F923F924F925F92DF
:101C00006F927F928F929F92AF92BF92CF92DF920C
:101C1000EF92FF920F931F93CF93DF93CDB7DEB771
:101C200063970FB6F894DEBF0FBECDBF6B017C018A
:101C300097FF0DC0F094E094D094C094C11CD11CC7
:101C4000E11CF11C81E090E09B8B8A8B02C01B8A17
:101C50001A8AFE0131965F018E01055F1F4FF98BD5
:101C6000E88B66246394712C812C912CAAE0B0E05F
:101C70009301A4010E9426141B012C01C701B60187
:101C80009101A2010E94F8139301A4010E94F8138C
:101C9000E889F9892193F98BE88B822F220F990B20
:101CA000AA0BBB0BC81AD90AEA0AFB0A3101420186
:101CB0000E171F07D9F68A899B89892B11F08DE2AF
:101CC00001C080E20E94F40F20E030E0F801829130
:101CD0008F01811106C02115310519F4EA15FB05A4
:101CE00029F4805D0E94F40F21E030E00A151B0505
:101CF00069F763960FB6F894DEBF0FBECDBFDF91D4
:101D0000CF911F910F91FF90EF90DF90CF90BF90F8
:101D1000AF909F908F907F906F905F904F903F908B
:101D20002F9008952F923F924F925F926F927F92E1
:101D30008F929F92AF92BF92CF92DF92EF92FF92DB
:101D40000F931F93CF93DF93CDB7DEB764970FB692
:101D5000F894DEBF0FBECDBF8C016115710509F48B
:101D600092C0812C912C5401CB01A0E0B0E0898B72
:101D70009A8BAB8BBC8BDE0111961D0189899A89E8
:101D8000AB89BC8988169906AA06BB0608F07BC0F9
:101D9000812F0E94DA0D802F807F0E94DA0D80E271
:101DA0000E94CC0D61017801412C512C320141E09F
:101DB000B601C7010E948503BFEFEB1AFB0AEFEFE4
:101DC0004E1A5E0A6E0A7E0AFFEF8F1A9F0AAF0A4A
:101DD000BF0A89899A89AB89BC8988169906AA069F
:101DE000BB0650F068019FE0C922DD2400E010E04E
:101DF00032016C0C7D1C09C0AFEFCA1ADA0AC701A8
:101E00008F709927892B99F6EDCF0C151D0518F0C9
:101E10000615170528F084ED91E00E94CE0D0BC049
:101E2000F801EC19FD09E20DF31D80810E94DA0D25
:101E300080E20E94CC0D0F5F1F4F0031110529F782
:101E400000E010E0C016D10631F080E20E94CC0D17
:101E50000F5F1F4FF7CF8101C801821993098415C5
:101E6000950558F4F80181918F0190EE980F903606
:101E700008F08EE20E94CC0DEFCF88ED91E00E9439
:101E8000CE0D87017BCF64960FB6F894DEBF0FBEF0
:101E9000CDBFDF91CF911F910F91FF90EF90DF9019
:101EA000CF90BF90AF909F908F907F906F905F90FA
:101EB0004F903F902F9008951092C00087E690E0D9
:101EC0009093C5008093C400E1ECF0E088E180834A
:101ED00086E08093C2008081806A808308951F928B
:101EE0000F920FB60F9211242F938F939F93EF931E
:101EF000FF9380916F022091700290E0821B910904
:101F000001978F739927892B79F0E0917002F0E0A7
:101F10008091C600E95EFC4F8083809170028F5FE4
:101F20008F738093700202C08091C600FF91EF9181
:101F30009F918F912F910F900FBE0F901F9018952A
:101F40001F920F920FB60F9211242F938F939F938E
:101F5000EF93FF9380916E0220916D0290E0821BBF
:101F600091098F739927892B79F0E0916D02F0E048
:101F7000E95AFC4F80818093C60080916D028F5F8B
:101F80008F7380936D0205C08091C1008F7D809317
:101F9000C100FF91EF919F918F912F910F900FBEF4
:101FA0000F901F9018958091700290916F02891B7D
:101FB0008F7308958091700220916F0290E0821BD0
:101FC00091098F739927892B69F0E0916F02F0E0F6
:101FD000E95EFC4F808190916F029F5F9F739093A9
:101FE0006F02089580E008950FB607FE0EC020919D
:101FF0006D0290916E0230E0291B310921503109A8
:102000002F733327232B99F30DC020916D029091EC
:102010006E0230E0291B3109215031092F7333271B
:10202000232B61F0E0916E02F0E0E95AFC4F8083CF
:1020300080916E028F5F8F7380936E028091C100DA
:1020400080628093C10008951F93CF93DF93EC01CA
:1020500080E011E0180FFE01E80FF11D8081882358
:1020600021F00E94F40F812FF4CFDF91CF911F91C7
:1020700008951F93CF93DF93EC0180E011E0180FD8
:10208000FE01E80FF11D8491882321F00E94F40FD6
:10209000812FF4CFDF91CF911F910895CF93DF93DC
:1020A00000D0CDB7DEB780917902882389F58AEF19
:1020B00090E09A83898387E490E029812150FC0194
:1020C000208384E490E024E430E0F9012081226060
:1020D000FC01208385E490E025E430E0F9012081D3
:1020E0002360FC0120838FE590E02FE530E0F901CB
:1020F00020812068FC0120838EE690E02EE630E00F
:10210000F90120812260FC01208381E08093790223
:1021100000000F900F90DF91CF910895CF93DF9340
:1021200000D000D000D0CDB7DEB79E838D838FE581
:1021300090E0FC018081082E000C990B8078992793
:102140009A8389838FE590E02FE530E0F9012081C3
:102150002F77FC0120838D819E81880F991F8F58D6
:102160009D4FFC01808191819C838B8389819A8121
:10217000892B49F08FE590E02FE530E0F9012081CF
:102180002068FC0120838B819C8126960FB6F894F1
:10219000DEBF0FBECDBFDF91CF910895CF93DF9308
:1021A00000D000D000D0CDB7DEB79C838B837E8378
:1021B0006D8380917902882311F40E944E108FE57F
:1021C00090E0FC018081082E000C990B8078992703
:1021D0009A8389838FE590E02FE530E0F901208133
:1021E0002F77FC0120838B819C81880F991F8B584E
:1021F0009D4F2D813E81FC01318320838B819C8109
:10220000880F991F8F589D4FFC0111821082898180
:102210009A81892B49F08FE590E02FE530E0F901B4
:1022200020812068FC012083000026960FB6F894D8
:10223000DEBF0FBECDBFDF91CF910895CF93DF9367
:1022400000D000D0CDB7DEB79C838B831A82198271
:102250008B819C81880F991F8F589D4FFC01208195
:1022600031818B819C81880F991F8B589D4FFC0178
:102270008081918141E02817390709F040E044232B
:1022800021F081E090E09A83898389819A810F907F
:102290000F900F900F90DF91CF9108951F920F92A2
:1022A00000905F000F9211242F933F934F938F93D1
:1022B0009F93EF93FF93CF93DF9300D0CDB7DEB71B
:1022C0001A82198222E030E089819A81821793076D
:1022D000A0F589819A81880F991F8F589D4FFC0125
:1022E0002081318189819A81880F991F8B589D4F58
:1022F000FC018081918141E02817390708F040E016
:102300004423A9F089819A81880F991F8F589D4F86
:10231000FC01808191819C012F5F3F4F89819A81CF
:10232000880F991F8F589D4FFC013183208389812D
:102330009A8101969A838983C5CF00000F900F90F0
:10234000DF91CF91FF91EF919F918F914F913F91AD
:102350002F910F9000925F000F901F901895CF93D0
:10236000DF93CDB7DEB784E290E024E230E0F901FC
:1023700020812260FC01208385E290E025E230E0AC
:10238000F90120812D7FFC0120830000DF91CF9196
:102390000895CF93DF93CDB7DEB785E290E025E2D5
:1023A00030E0F90120812260FC0120830000DF91F0
:1023B000CF910895CF93DF93CDB7DEB785E290E05C
:1023C00025E230E0F90120812D7FFC01208300000F
:1023D000DF91CF910895CF93DF93CDB7DEB785E23C
:1023E00090E0FC018081882F90E082709927892BF2
:1023F00019F081E090E002C080E090E0DF91CF91A1
:102400000895CF93DF9300D0CDB7DEB79A83898349
:1024100089819A8190937B0280937A0210927D0247
:1024200010927C0210927F0210927E0260E070E0B7
:1024300080E090E00E94CE100E94DA1100000F9020
:102440000F90DF91CF910895CF93DF93CDB7DEB793
:1024500080917E0290917F02009721F0019709F40C
:1024600055C089C080E090E00E941E1121E0892BB8
:1024700009F420E0222309F47BC020917A023091F4
:102480007B0280917C0290917D02820F931FFC0160
:102490008081082E000C990B8D32910531F08E321F
:1024A000910591F08097F9F027C00E94C9116EEE56
:1024B00072E080E090E00E94CE1081E090E0909386
:1024C0007F0280937E0221C00E94C9116AEF70E0F2
:1024D00080E090E00E94CE1081E090E090937F0237
:1024E00080937E0212C00E94DA1168EE73E080E0F1
:1024F00090E00E94CE1009C00E94DA1160E070E006
:1025000080E090E00E94CE10000032C080E090E0B9
:102510000E941E1121E0892B09F420E0222351F1B1
:102520000E94DA1164E670E080E090E00E94CE1034
:1025300080917C0290917D02019690937D02809320
:102540007C0280917A0290917B020E943A149C0155
:1025500080917C0290917D028217930720F0109267
:102560007D0210927C0210927F0210927E0202C0C5
:10257000000001C000000000DF91CF910895CF93CB
:10258000DF9300D0CDB7DEB789E09DE39A838983DE
:1025900081E890E021E830E0F90120812860FC0129
:1025A000208381E890E021E830E0F9012081256076
:1025B000FC01208388E890E029813A81215031098B
:1025C000FC01318320838FE690E02FE630E0F901B3
:1025D00020812260FC0120838FE590E02FE530E030
:1025E000F90120812068FC01208300000F900F90EA
:1025F000DF91CF910895CF93DF9300D000D000D02A
:10260000CDB7DEB78FE590E0FC018081882F90E0A8
:10261000807899279A8389838FE590E02FE530E0D1
:10262000F90120812F77FC01208380918002909115
:102630008102A0918202B09183028B839C83AD833F
:10264000BE8389819A81892B49F08FE590E02FE53F
:1026500030E0F90120812068FC0120838B819C817E
:10266000AD81BE81BC01CD0126960FB6F894DEBFC8
:102670000FBECDBFDF91CF910895CF93DF9300D0F0
:10268000CDB7DEB78FE590E0FC018081882F90E028
:10269000807899279A8389838FE590E02FE530E051
:1026A000F90120812F77FC01208310928002109283
:1026B0008102109282021092830289819A81892B71
:1026C00049F08FE590E02FE530E0F90120812068A6
:1026D000FC01208300000F900F90DF91CF910895AF
:1026E0001F920F9200905F000F9211248F939F937F
:1026F000AF93BF93CF93DF93CDB7DEB780918002C6
:1027000090918102A0918202B09183020196A11D55
:10271000B11D8093800290938102A0938202B093B6
:1027200083020000DF91CF91BF91AF919F918F9174
:102730000F9000925F000F901F901895DB018F9310
:102740009F930E942614BF91AF91A29F800D911D6F
:10275000A39F900DB29F900D11240895AA1BBB1B3F
:1027600051E107C0AA1FBB1FA617B70710F0A61B91
:10277000B70B881F991F5A95A9F780959095BC01B2
:10278000CD01089597FB072E16F4009407D077FD2E
:1027900009D00E94AE1307FC05D03EF490958195B8
:1027A0009F4F0895709561957F4F0895A1E21A2E6D
:1027B000AA1BBB1BFD010DC0AA1FBB1FEE1FFF1FE5
:1027C000A217B307E407F50720F0A21BB30BE40B35
:1027D000F50B661F771F881F991F1A9469F760957C
:1027E0007095809590959B01AC01BD01CF01089536
:1027F000052E97FB1EF400940E940F1457FD07D07E
:102800000E94D61307FC03D04EF40C940F1450957D
:102810004095309521953F4F4F4F5F4F08959095CC
:102820008095709561957F4F8F4F9F4F0895A29F20
:10283000B001B39FC001A39F700D811D1124911D94
:10284000B29F700D811D1124911D08950E941714CF
:10285000A59F900DB49F900DA49F800D911D1124F4
:102860000895FB01DC0102C001900D9241505040DF
:10287000D8F70895FC0101900020E9F78095909524
:0A2880008E0F9F1F0895F894FFCFFC
:10288A00030B443100802500002D00040B44300066
:10289A00802500002D0002060024F400010C61745A
:0828AA006D65676133323800EF
:1028B20041535500FF03FE030000010000C0A801C0
:1028C200640061534552004D616E697368000000F7
:1028D2000000004D616E6900000000000000006110
:1028E2006263643132333400000000000000004CA7
:1028F200414E4D414E555341000030302F30302F64
:10290200303030302030303A30303A3030004153BD
:1029120055002D0030312F30312F323031392030F7
:10292200303A30303A303000534552203438362075
:1029320050726F6A6563742032202D204D616E697A
:102942007368204D79736F72652052616A6573688E
:102952002047616E6761646861720A0D000A0D00AA
:10296200534552001F1C1F1E1F1E1F1F1E1F1E1F0E
:1029720030302F30302F303030302030303A30305D
:0C2982003A303000202020000D0A000038
:00000001FF
